:020000040800F2
:1000000000500020210A0008C1080008C7080008A5
:10001000CD080008D3080008D90800080000000037
:10002000000000000000000000000000DF080008E1
:10003000EB08000800000000F708000803090008AA
:10004000690A0008690A0008690A0008690A0008C4
:10005000690A0008690A0008690A0008690A0008B4
:10006000690A0008690A0008690A0008690A0008A4
:10007000690A0008690A0008690A0008690A000894
:10008000690A0008690A0008690A0008690A000884
:10009000690A0008690A0008690A0008690A000874
:1000A000690A0008690A0008690A0008690A000864
:1000B000690A0008690A0008690A0008690A000854
:1000C000690A0008690A0008690A0008690A000844
:1000D000690A0008690A0008690A0008690A000834
:1000E000690A0008690A0008690A0008000000009F
:1000F0000000000000000000000000000000000000
:0C01000000000000000000005FF808F1A3
:10010C0010B5054C237833B9044B13B10448AFF345
:10011C0000800123237010BD680000200000000047
:10012C00AC2C000808B5034B1BB103490348AFF3D3
:10013C00008008BD000000006C000020AC2C000802
:10014C0080B483B000AF78604FF06043D3F8803E4A
:10015C0003F00103002B13D04FF06043D3F8003EA3
:10016C0003F00103002B0BD000E000BF4FF0604305
:10017C001B68002BF9D04FF060437A68D2B21A702A
:10018C007B6818460C37BD4680BC704780B586B07E
:10019C0000AFF860B9607A6000237B6109E0BB684E
:1001AC005A1CBA601B781846FFF7CAFF7B690133EB
:1001BC007B617A697B689A42F1DB7B681846183759
:1001CC00BD4680BD80B500AF2A4801F0F9FE00F0B5
:1001DC0047FC00F05FF800F01FF900F0B9F800F0F0
:1001EC00E5F800F071F900F097FA642000F09AFC41
:1001FC00214B5B6803F002031946204801F07AFE9C
:10020C001D4B1B691C4A526919461D4801F072FEB0
:10021C00194B9B69184AD26919461A4801F06AFEB3
:10022C00154B1B6A144A526A1946174801F062FEB4
:10023C00114B5B6803F00203002BD4D0134801F080
:10024C0059FE0D4B5B680C4A23F00203536000F01F
:10025C0025FA01224FF480710D4800F0EFFE642066
:10026C0000F060FC00224FF48071094800F0E6FEBB
:10027C00B9E700BFC42C000800280040D42C0008AB
:10028C00EC2C0008102D0008342D0008582D000807
:10029C00000C014080B594B000AF07F12803282270
:1002AC000021184601F06CFF07F1140300221A60BC
:1002BC005A609A60DA601A613B1D00221A605A601B
:1002CC009A60DA600923BB624FF48033FB6200232F
:1002DC003B630123BB6301233B6402237B644FF428
:1002EC008033BB644FF4E013FB6407F1280318461A
:1002FC0001F01AF80346002B01D000F019FA0F2375
:10030C007B610223BB610023FB614FF480633B6282
:10031C0000237B6207F114030221184601F086FAD0
:10032C000346002B01D000F003FA01237B604FF44D
:10033C000073BB603B1D184601F0F2FB0346002B1B
:10034C0001D000F0F5F900BF5037BD4680BD00006C
:10035C0080B500AF124B134A1A60114B124A5A6007
:10036C000F4B00229A600E4B0022DA600C4B4FF4BC
:10037C0080421A610A4B00225A61094B00229A6191
:10038C00074B0022DA61064B00221A62044800F087
:10039C0087FE0346002B01D000F0CAF900BF80BDD8
:1003AC008400002000580040A086010080B500AFFA
:1003BC00174B184A1A60164B4FF482725A60144B42
:1003CC0000229A60124B0022DA60114B00221A6153
:1003DC000F4B00225A610E4B4FF400729A610C4B7A
:1003EC001022DA610A4B00221A62094B00225A626F
:1003FC00074B00229A62064B0A22DA62044801F08B
:10040C0045FC0346002B01D000F092F900BF80BDE3
:10041C00D80000200030014080B588B000AF07F153
:10042C00100300221A605A609A60DA60244B9B69B0
:10043C00234A43F010039361214B9B6903F0100393
:10044C00FB60FB681E4B9B691D4A43F020039361C4
:10045C001B4B9B6903F02003BB60BB68184B9B696B
:10046C00174A43F004039361154B9B6903F0040393
:10047C007B607B68124B9B69114A43F008039361C4
:10048C000F4B9B6903F008033B603B6801224FF460
:10049C0000710C4800F0D2FD4FF400733B61012356
:1004AC007B610223BB610223FB6107F11003194638
:1004BC00044800F03FFC00BF2037BD4680BD00BFA4
:1004CC0000100240000C014080B582B000AF284BF8
:1004DC00DB69274A43F08053D361254BDB69244AFF
:1004EC0043F00063D361234B1B68224A43F48073AF
:1004FC0013601F4B1B6A03F0020319461E4801F0E0
:10050C00F9FC1B4B1B6A1A4A43F0010313620023CC
:10051C00FB7109E0FB790133FB71FB79642B03D987
:10052C00164801F0E7FC05E0114B1B6A03F00203CF
:10053C00002BEFD00E4B1B6A0D4A43F009031362DC
:10054C000B4B1B6A0A4A23F008031362084B1B6A05
:10055C00074A43F400431362054B1B6A19460648CD
:10056C0001F0C8FC00F00CF800BF0837BD4680BD98
:10057C000010024000700040642D0008782D000827
:10058C0080B500AF3B4B1B6A03F0020319463A4897
:10059C0001F0B0FC02E0394801F012FD384B5B6809
:1005AC0003F02003002BF6D0354B5B68344A43F044
:1005BC0010035360324B5B6803F02003194631483B
:1005CC0001F098FC2E4B00229A602D4B47F6FF72DF
:1005DC00DA602B4B5B6803F0200319462A4801F0C4
:1005EC0089FC274B00221A61254B4FF400425A61BB
:1005FC00234B5B6803F020031946244801F07AFC76
:10060C001F4B00229A611E4B0022DA611C4B002208
:10061C001A621B4B04225A62194B1B68184A43F08E
:10062C0002031360164B1B68154A43F00403136056
:10063C00134B5B68124A23F010035360104B5B683A
:10064C0003F020031946124801F054FC07E00C4B50
:10065C005B6803F0200319460E4801F04BFC084B75
:10066C005B6803F02003002BF1D00B4801F0A8FCD1
:10067C0000BF80BD00100240B42D0008C82D00083A
:10068C0000280040DC2D0008F02D0008042E000886
:10069C00182E00082C2E0008502E000880B500AF34
:1006AC0002E01A4801F08CFC194B5B6803F0200344
:1006BC00002BF6D0164B5B68154A43F010035360C1
:1006CC00134B00221A61124B4FF400425A61104B2B
:1006DC0000229A610E4B0022DA610D4B5B680C4ACA
:1006EC0023F01003536007E0094B5B6803F0200311
:1006FC001946084801F0FEFB054B5B6803F020032C
:10070C00002BF1D000BF00BF80BD00BFC82D00087A
:10071C00002800402C2E000880B500AF4FF400716B
:10072C00024800F0A3FC00BF80BD00BF000C0140DC
:10073C0080B400AF72B600BFFEE7000080B485B095
:10074C0000AF154B9B69144A43F001039361124BA4
:10075C009B6903F00103BB60BB680F4BDB690E4A5E
:10076C0043F08053D3610C4BDB6903F080537B6007
:10077C007B680A4B5B68FB60FB6823F0E063FB6003
:10078C00FB6843F00073FB60044AFB68536000BFD6
:10079C001437BD4680BC7047001002400000014079
:1007AC0080B588B000AF786007F1100300221A60A2
:1007BC005A609A60DA607B681B68164A934224D1AF
:1007CC00154B9B69144A43F008039361124B9B69C8
:1007DC0003F00803FB60FB684FF440633B6112239A
:1007EC007B610323FB6107F1100319460B4800F0F2
:1007FC00A1FA094BDB69084A43F48003D361064B29
:10080C00DB6903F48003BB60BB6800BF2037BD46C7
:10081C0080BD00BF0058004000100240000C014099
:10082C0080B588B000AF786007F1100300221A6021
:10083C005A609A60DA607B681B681B4A93422FD11E
:10084C001A4B9B69194A43F480539361174B9B696C
:10085C0003F48053FB60FB68144B9B69134A43F011
:10086C0004039361114B9B6903F00403BB60BB68E9
:10087C00A0233B6102237B610323FB6107F110037F
:10088C0019460B4800F056FA40233B6100237B616C
:10089C000023BB6107F110031946054800F04AFA22
:1008AC0000BF2037BD4680BD003001400010024023
:1008BC000008014080B400AFFEE780B400AFFEE753
:1008CC0080B400AFFEE780B400AFFEE780B400AFA9
:1008DC00FEE780B400AF00BFBD4680BC704780B45B
:1008EC0000AF00BFBD4680BC704780B400AF00BFF6
:1008FC00BD4680BC704780B500AF00F0F7F800BF74
:10090C0080BD80B586B000AFF860B9607A60002316
:10091C007B610AE0AFF300800146BB685A1CBA60E9
:10092C00CAB21A707B6901337B617A697B689A421F
:10093C00F0DB7B6818461837BD4680BD80B483B0A9
:10094C0000AF78604FF0FF3318460C37BD4680BCC3
:10095C00704780B483B000AF786039603B684FF467
:10096C0000525A60002318460C37BD4680BC7047B5
:10097C0080B483B000AF7860012318460C37BD46B5
:10098C0080BC704780B485B000AFF860B9607A6005
:10099C00002318461437BD4680BC704780B586B01E
:1009AC0000AF7860144A154BD31A7B617B693B61AD
:1009BC00134B1B68002B02D1114B124A1A60104BBF
:1009CC001A687B6813443A699A4207D201F026FCF4
:1009DC0003460C221A604FF0FF3309E0084B1B68EA
:1009EC00FB60074B1A687B681344054A1360FB686D
:1009FC0018461837BD4680BD00500020000400008A
:100A0C00300100208802002080B400AF00BFBD463A
:100A1C0080BC7047FFF7F8FF0B480C490C4A0023C9
:100A2C0002E0D458C4500433C4188C42F9D3094A98
:100A3C00094C002301E013600432A242FBD301F005
:100A4C00F3FBFFF7BFFB704700000020680000209D
:100A5C00D02E00086800002084020020FEE7000071
:100A6C0080B500AF084B1B68074A43F010031360B6
:100A7C00032000F02BF90F2000F008F8FFF75EFEC2
:100A8C000023184680BD00BF0020024080B582B014
:100A9C0000AF7860124B1A68124B1B7819464FF452
:100AAC007A73B3FBF1F3B2FBF3F3184600F035F9AC
:100ABC000346002B01D001230EE07B680F2B0AD8D4
:100ACC00002279684FF0FF3000F00BF9064A7B6882
:100ADC001360002300E0012318460837BD4680BD93
:100AEC0000000020080000200400002080B400AFAB
:100AFC00054B1B781A46054B1B681344034A1360BD
:100B0C0000BFBD4680BC70470800002034010020A7
:100B1C0080B400AF024B1B681846BD4680BC7047C2
:100B2C003401002080B584B000AF7860FFF7F0FF8F
:100B3C00B8607B68FB60FB68B3F1FF3F05D00A4BE4
:100B4C001B781A46FB681344FB6000BFFFF7E0FFFD
:100B5C000246BB68D31AFA689A42F7D800BF00BFA6
:100B6C001037BD4680BD00BF0800002080B485B0A2
:100B7C0000AF78607B6803F00703FB600C4BDB680D
:100B8C00BB60BA684FF6FF031340BB60FB681A02E8
:100B9C00BB68134343F0BF6343F40033BB60044AA8
:100BAC00BB68D36000BF1437BD4680BC704700BF24
:100BBC0000ED00E080B400AF044BDB681B0A03F0CF
:100BCC0007031846BD4680BC704700BF00ED00E02F
:100BDC0080B483B000AF03463960FB7197F90730DE
:100BEC00002B0ADB3B68DAB20C4997F9073012018B
:100BFC00D2B20B4483F800230AE03B68DAB208490E
:100C0C00FB7903F00F03043B1201D2B20B441A76AA
:100C1C0000BF0C37BD4680BC704700BF00E100E050
:100C2C0000ED00E080B489B000AFF860B9607A6084
:100C3C00FB6803F00703FB61FB69C3F10703042B9B
:100C4C0028BF0423BB61FB690433062B02D9FB6963
:100C5C00033B00E000237B614FF0FF32BB6902FADB
:100C6C0003F3DA43BB681A407B699A404FF0FF31BB
:100C7C007B6901FA03F3D9437B680B401343184695
:100C8C002437BD4680BC704780B582B000AF786019
:100C9C007B68013BB3F1807F01D301230FE00A4A4B
:100CAC007B68013B53600F214FF0FF30FFF790FF43
:100CBC00054B00229A60044B07221A600023184649
:100CCC000837BD4680BD00BF10E000E080B582B0A3
:100CDC0000AF78607868FFF749FF00BF0837BD4662
:100CEC0080BD80B586B000AF0346B9607A60FB73F7
:100CFC0000237B61FFF75EFF78617A68B9687869D9
:100D0C00FFF790FF024697F90F3011461846FFF790
:100D1C005FFF00BF1837BD4680BD80B582B000AF05
:100D2C0078607868FFF7B0FF034618460837BD4671
:100D3C0080BD000080B48BB000AF786039600023B8
:100D4C007B6200233B6269E101227B6A02FA03F3B6
:100D5C00FB613B681B68FA691340BB61BA69FB69AC
:100D6C009A4240F058813B685B689A4A93425ED045
:100D7C00984A934275D8984A934258D0964A9342CF
:100D8C006FD8964A934252D0944A934269D8944A67
:100D9C0093424CD0924A934263D8924A934246D0A3
:100DAC00904A93425DD8122B2AD8122B59D801A203
:100DBC0052F823F03B0E0008150E0008270E000811
:100DCC00690E00086F0E00086F0E00086F0E000809
:100DDC006F0E00086F0E00086F0E00086F0E0008F3
:100DEC006F0E00086F0E00086F0E00086F0E0008E3
:100DFC006F0E00086F0E00081D0E0008310E000863
:100E0C00794A934213D02CE03B68DB683B6229E0C3
:100E1C003B68DB6804333B6224E03B68DB680833E7
:100E2C003B621FE03B68DB680C333B621AE03B68BB
:100E3C009B68002B02D104233B6213E03B689B6848
:100E4C00012B05D108233B627B68FA691A6109E022
:100E5C0008233B627B68FA695A6103E000233B621A
:100E6C0000E000BFBB69FF2B01D87B6801E07B6809
:100E7C0004337B61BB69FF2B02D87B6A9B0002E0C9
:100E8C007B6A083B9B003B617B691A680F213B69BD
:100E9C0001FA03F3DB431A40396A3B6901FA03F3A5
:100EAC001A437B691A603B685B6803F08053002B24
:100EBC0000F0B1804D4B9B694C4A43F001039361A8
:100ECC004A4B9B6903F00103BB60BB68484A7B6AD1
:100EDC009B08023352F82330FB607B6A03F0030358
:100EEC009B000F2202FA03F3DB43FA681340FB600A
:100EFC007B68404A934213D07B683F4A93420DD0A3
:100F0C007B683E4A934207D07B683D4A934201D1AD
:100F1C00032306E0042304E0022302E0012300E0A3
:100F2C0000237A6A02F0030292009340FA6813439A
:100F3C00FB602F497B6A9B080233FA6841F8232037
:100F4C003B685B6803F48013002B06D02D4B9A682A
:100F5C002C49BB6913438B6006E02A4B9A68BB692A
:100F6C00DB43284913408B603B685B6803F4001338
:100F7C00002B06D0234BDA682249BB691343CB60A4
:100F8C0006E0204BDA68BB69DB431E491340CB609B
:100F9C003B685B6803F40033002B06D0194B5A688E
:100FAC001849BB6913434B6006E0164B5A68BB6982
:100FBC00DB43144913404B603B685B6803F480339C
:100FCC00002B21D00F4B1A680E49BB6913430B60E1
:100FDC0021E000BF00003210000031100000221090
:100FEC00000021100000121000001110001002402F
:100FFC000000014000080140000C014000100140BD
:10100C0000140140000401400B4B1A68BB69DB4320
:10101C00094913400B607B6A01337B623B681A6899
:10102C007B6A22FA03F3002B7FF48EAE00BF00BF65
:10103C002C37BD4680BC70470004014080B483B09F
:10104C0000AF78600B467B8013467B707B78002B5F
:10105C0003D07A887B681A6103E07B881A047B686A
:10106C001A6100BF0C37BD4680BC704780B485B098
:10107C0000AF78600B467B807B68DB68FB607A880E
:10108C00FB6813401A04FB68D9437B880B401A4356
:10109C007B681A6100BF1437BD4680BC70470000E6
:1010AC0080B584B000AF78607B68002B01D1012340
:1010BC002BE17B6893F83D30DBB2002B06D17B68CB
:1010CC00002283F83C207868FFF76AFB7B682422B7
:1010DC0083F83D207B681B681A687B681B6822F0CC
:1010EC0001021A607B681B681A687B681B6842F4F3
:1010FC0000421A607B681B681A687B681B6822F4C4
:10110C0000421A6000F0DAFCF8607B685B68814A88
:10111C00934207D8FB68804A934294BF0123002373
:10112C00DBB206E0FB687D4A934294BF01230023A7
:10113C00DBB2002B01D00123E7E0FB68784AA2FB6D
:10114C0003239B0CBB607B681B685B6823F03F012F
:10115C007B681B68BA680A435A607B681B681B6A09
:10116C0023F03F017B685B686A4A934202D8BB68F4
:10117C00013309E0BB684FF4967202FB03F3694A32
:10118C00A2FB03239B0901337A6812680B43136299
:10119C007B681B68DB6923F44F4222F0FF027B68FB
:1011AC005B685C498B4219D8FB68591E7B685B688D
:1011BC005B00B1FBF3F3591C40F6FC730B40002BA6
:1011CC000AD0FB68591E7B685B685B00B1FBF3F3CC
:1011DC000133C3F30B0351E004234FE07B689B689E
:1011EC00002B11D1FB68581E7B6859680B465B00BD
:1011FC000B44B0FBF3F30133C3F30B03002B0CBF15
:10120C0001230023DBB212E0FB68581E7B6859688F
:10121C000B469B000B4499000B44B0FBF3F30133DA
:10122C00C3F30B03002B0CBF01230023DBB2002BF9
:10123C0001D0012322E07B689B68002B0ED1FB6858
:10124C00581E7B6859680B465B000B44B0FBF3F3EC
:10125C000133C3F30B0343F400430FE0FB68581E48
:10126C007B6859680B469B000B4499000B44B0FB00
:10127C00F3F30133C3F30B0343F440437968096878
:10128C001343CB617B681B681B6823F0C0017B6830
:10129C00DA697B681B6A1A437B681B680A431A600D
:1012AC007B681B689B6823F4034323F0FF037A6875
:1012BC0011697A68D26811437A6812680B4393609B
:1012CC007B681B68DB6823F0FF017B685A697B68CD
:1012DC009B691A437B681B680A43DA607B681B684E
:1012EC001A687B681B6842F001021A607B68002256
:1012FC001A647B68202283F83D207B6800221A63E5
:10130C007B68002283F83E20002318461037BD4628
:10131C0080BD00BFA08601007F841E00FF083D0039
:10132C0083DE1B43D34D621080B586B000AF78606E
:10133C007B68002B01D1012372E27B681B6803F0F0
:10134C000103002B00F08780924B5B6803F00C03C9
:10135C00042B0CD08F4B5B6803F00C03082B12D1C1
:10136C008C4B5B6803F48033B3F5803F0BD1894B16
:10137C001B6803F40033002B6CD07B685B68002B7C
:10138C0068D101234CE27B685B68B3F5803F06D1E2
:10139C00804B1B687F4A43F4803313602EE07B68DC
:1013AC005B68002B0CD17B4B1B687A4A23F480338F
:1013BC001360784B1B68774A23F4802313601DE07D
:1013CC007B685B68B3F5A02F0CD1724B1B68714A1C
:1013DC0043F4802313606F4B1B686E4A43F48033D5
:1013EC0013600BE06B4B1B686A4A23F48033136069
:1013FC00684B1B68674A23F4802313607B685B6827
:10140C00002B13D0FFF784FB386108E0FFF780FB5B
:10141C0002463B69D31A642B01D9032300E25D4BCE
:10142C001B6803F40033002BF0D014E0FFF770FBC3
:10143C00386108E0FFF76CFB02463B69D31A642B5A
:10144C0001D90323ECE1534B1B6803F40033002B4D
:10145C00F0D100E000BF7B681B6803F00203002B97
:10146C0063D04C4B5B6803F00C03002B0BD0494B47
:10147C005B6803F00C03082B1CD1464B5B6803F430
:10148C008033002B16D1434B1B6803F00203002B57
:10149C0005D07B681B69012B01D00123C0E13D4BBA
:1014AC001B6823F0F8027B685B69DB003949134346
:1014BC000B603AE07B681B69002B20D0364B012275
:1014CC001A60FFF725FB386108E0FFF721FB0246A5
:1014DC003B69D31A022B01D90323A1E12D4B1B68C5
:1014EC0003F00203002BF0D02A4B1B6823F0F80208
:1014FC007B685B69DB00274913430B6015E0264BC7
:10150C0000221A60FFF704FB386108E0FFF700FBCC
:10151C0002463B69D31A022B01D9032380E11D4BF0
:10152C001B6803F00203002BF0D17B681B6803F0EF
:10153C000803002B3AD07B689B69002B19D0174B02
:10154C0001221A60FFF7E4FA386108E0FFF7E0FACD
:10155C0002463B69D31A022B01D9032360E10D4BE0
:10156C005B6A03F00203002BF0D0012000F0BAFA02
:10157C001CE00A4B00221A60FFF7CAFA38610FE030
:10158C00FFF7C6FA02463B69D31A022B08D903238C
:10159C0046E100BF0010024000004242800442427B
:1015AC00924B5B6A03F00203002BE9D17B681B684A
:1015BC0003F00403002B00F0A6800023FB758B4B7B
:1015CC00DB6903F08053002B0DD1884BDB69874A14
:1015DC0043F08053D361854BDB6903F08053BB60D0
:1015EC00BB680123FB75824B1B6803F48073002BD3
:1015FC0018D17F4B1B687E4A43F480731360FFF74E
:10160C0087FA386108E0FFF783FA02463B69D31A80
:10161C00642B01D9032303E1754B1B6803F480731E
:10162C00002BF0D07B68DB68012B06D16F4B1B6A5B
:10163C006E4A43F0010313622DE07B68DB68002BDC
:10164C000CD16A4B1B6A694A23F001031362674B86
:10165C001B6A664A23F0040313621CE07B68DB6898
:10166C00052B0CD1614B1B6A604A43F004031362D7
:10167C005E4B1B6A5D4A43F0010313620BE05B4B4C
:10168C001B6A5A4A23F001031362584B1B6A574AD0
:10169C0023F0040313627B68DB68002B15D0FFF783
:1016AC0037FA38610AE0FFF733FA02463B69D31A7E
:1016BC0041F28832934201D90323B1E04B4B1B6AB0
:1016CC0003F00203002BEED014E0FFF721FA38618F
:1016DC000AE0FFF71DFA02463B69D31A41F2883241
:1016EC00934201D903239BE0404B1B6A03F0020396
:1016FC00002BEED1FB7D012B05D13C4BDB693B4A2A
:10170C0023F08053D3617B68DB69002B00F087806A
:10171C00364B5B6803F00C03082B61D07B68DB69EC
:10172C00022B46D1334B00221A60FFF7F1F93861D6
:10173C0008E0FFF7EDF902463B69D31A022B01D9F9
:10174C0003236DE0294B1B6803F00073002BF0D1D1
:10175C007B681B6AB3F5803F08D1244B5B6823F48C
:10176C0000327B689B68214913434B601F4B5B68BD
:10177C0023F474127B68196A7B685B6A0B431B4900
:10178C0013434B601B4B01221A60FFF7C1F9386100
:10179C0008E0FFF7BDF902463B69D31A022B01D9C9
:1017AC0003233DE0114B1B6803F00073002BF0D0BA
:1017BC0035E0104B00221A60FFF7AAF9386108E0F7
:1017CC00FFF7A6F902463B69D31A022B01D9032372
:1017DC0026E0064B1B6803F00073002BF0D11EE0D3
:1017EC007B68DB69012B07D1012319E00010024053
:1017FC0000700040600042420B4B5B68FB60FB6872
:10180C0003F480327B681B6A9A4206D1FB6803F4AE
:10181C0070127B685B6A9A4201D0012300E00023BE
:10182C0018461837BD4680BD0010024080B584B004
:10183C0000AF786039607B68002B01D10123D0E0C8
:10184C006A4B1B6803F007033A689A4210D9674B3E
:10185C001B6823F0070265493B6813430B60634B1D
:10186C001B6803F007033A689A4201D00123B8E0E1
:10187C007B681B6803F00203002B20D07B681B687D
:10188C0003F00403002B05D0594B5B68584A43F412
:10189C00E06353607B681B6803F00803002B05D0E2
:1018AC00534B5B68524A43F460535360504B5B6834
:1018BC0023F0F0027B689B684D4913434B607B68B7
:1018CC001B6803F00103002B40D07B685B68012B85
:1018DC0007D1474B1B6803F40033002B15D10123B0
:1018EC007FE07B685B68022B07D1414B1B6803F0E0
:1018FC000073002B09D1012373E03D4B1B6803F0EF
:10190C000203002B01D101236BE0394B5B6823F000
:10191C0003027B685B68364913434B60FFF7F8F8AA
:10192C00F8600AE0FFF7F4F80246FB68D31A41F2BC
:10193C008832934201D9032353E02D4B5B6803F0AB
:10194C000C027B685B689B009A42EBD1274B1B68AF
:10195C0003F007033A689A4210D2244B1B6823F019
:10196C00070222493B6813430B60204B1B6803F0B2
:10197C0007033A689A4201D0012332E07B681B6866
:10198C0003F00403002B08D0194B5B6823F4E062CE
:10199C007B68DB68164913434B607B681B6803F05C
:1019AC000803002B09D0124B5B6823F460527B6850
:1019BC001B69DB000E4913434B6000F021F8024613
:1019CC000B4B5B681B0903F00F030A49CB5C22FA33
:1019DC0003F3094A1360094B1B681846FFF756F8C6
:1019EC00002318461037BD4680BD00BF00200240C2
:1019FC0000100240682E00080000002004000020A7
:101A0C0080B487B000AF0023FB600023BB600023D1
:101A1C007B6100237B6000233B611E4B5B68FB609A
:101A2C00FB6803F00C03042B02D0082B03D027E037
:101A3C00194B3B6127E0FB689B0C03F00F03174A23
:101A4C00D35C7B60FB6803F48033002B10D0114B0C
:101A5C005B685B0C03F00103114AD35CBB607B68D1
:101A6C000D4A03FB02F2BB68B2FBF3F37B6104E0AB
:101A7C007B680C4A02FB03F37B617B693B6102E0F0
:101A8C00054B3B6100BF3B6918461C37BD4680BC0B
:101A9C00704700BF0010024000127A00802E000830
:101AAC00902E000800093D0080B400AF024B1B686B
:101ABC001846BD4680BC70470000002080B500AFC2
:101ACC00FFF7F2FF0246054B5B681B0A03F00703A6
:101ADC000349CB5C22FA03F3184680BD0010024088
:101AEC00782E000880B485B000AF78600A4B1B6874
:101AFC000A4AA2FB03235B0A7A6802FB03F3FB602E
:101B0C0000BFFB685A1EFA60002BF9D100BF00BF62
:101B1C001437BD4680BC704700000020D34D6210C6
:101B2C0080B586B000AF786000233B610023FB607A
:101B3C007B681B6803F00103002B7DD00023FB7531
:101B4C004F4BDB6903F08053002B0DD14C4BDB6901
:101B5C004B4A43F08053D361494BDB6903F080530C
:101B6C00BB60BB680123FB75464B1B6803F4807399
:101B7C00002B18D1434B1B68424A43F4807313600B
:101B8C00FEF7C6FF386108E0FEF7C2FF02463B696C
:101B9C00D31A642B01D903236DE03A4B1B6803F471
:101BAC008073002BF0D0364B1B6A03F44073FB6040
:101BBC00FB68002B2ED07B685B6803F44073FA68DB
:101BCC009A4227D02E4B1B6A23F44073FB602E4B9A
:101BDC0001221A602C4B00221A60294AFB681362FE
:101BEC00FB6803F00103002B14D0FEF791FF386162
:101BFC000AE0FEF78DFF02463B69D31A41F28832A8
:101C0C00934201D9032336E01D4B1B6A03F00203F8
:101C1C00002BEED01A4B1B6A23F440727B685B6876
:101C2C00174913430B62FB7D012B05D1144BDB6968
:101C3C00134A23F08053D3617B681B6803F00203C3
:101C4C00002B08D00E4B5B6823F440427B689B68EA
:101C5C000B4913434B607B681B6803F01003002B8C
:101C6C0008D0074B5B6823F480027B68DB6804496F
:101C7C0013434B60002318461837BD4680BD00BF88
:101C8C0000100240007000404004424280B582B017
:101C9C0000AF78607B68002B01D1012376E07B6874
:101CAC005B6A002B08D17B685B68B3F5827F09D037
:101CBC007B680022DA6105E07B6800221A617B6890
:101CCC0000225A617B6800229A627B6893F851303B
:101CDC00DBB2002B06D17B68002283F85020786899
:101CEC00FEF79EFD7B68022283F851207B681B68FF
:101CFC001A687B681B6822F040021A607B685B687C
:101D0C0003F482727B689B6803F404431A437B6878
:101D1C00DB6803F400631A437B681B6903F002035E
:101D2C001A437B685B6903F001031A437B689B6968
:101D3C0003F400731A437B68DB6903F038031A431E
:101D4C007B681B6A03F0800342EA03017B689B6A91
:101D5C0003F400527B681B680A431A607B689B691A
:101D6C001A0C7B681B6802F004025A607B681B68C3
:101D7C00DA697B681B6822F40062DA617B680022F6
:101D8C005A657B68012283F85120002318460837D6
:101D9C00BD4680BD002310B50446C0E90033C0E940
:101DAC000433836081814366C281836119460822B2
:101DBC005C3000F0E5F9054B24626362044BA362CE
:101DCC00044BE362044B236310BD00BFDD1F00080E
:101DDC00FF1F0008372000085B200008024A034957
:101DEC00034800F069B800BF0C000020192B000854
:101DFC001800002041680C4B10B59942044601D0E4
:101E0C0000F084FEA168094B994202D0204600F0F4
:101E1C007DFEE168064B994204D02046BDE8104097
:101E2C0000F074BE10BD00BF38010020A0010020DE
:101E3C000802002010B50B4B0B4C0C4A20461A60C4
:101E4C0004210022FFF7A6FF04F1680001220921FA
:101E5C00FFF7A0FF04F1D0000222BDE810401221D0
:101E6C00FFF798BF7002002038010020E91D000820
:101E7C00014800F0FDB900BF79020020014800F0D4
:101E8C00F8B900BF7902002010B50446FFF7F0FF47
:101E9C00236A1BB1BDE81040FFF7F0BF044B23626F
:101EAC00044B1B68002BF5D1FFF7C4FFF2E700BF12
:101EBC00011E0008700200202DE9F84307468846F1
:101ECC0014460026D4E90195B9F1010905D5246819
:101EDC00002CF7D13046BDE8F883AB89012B07D92C
:101EEC00B5F90E30013303D029463846C0470643B6
:101EFC006835E9E70FB407B5064904AB086853F831
:101F0C00042B8168019300F0D1FA03B05DF804EB67
:101F1C0004B0704764000020036A70B505460E4695
:101F2C0084680BB9FFF7B0FF636EDB0705D4A38998
:101F3C00980502D4A06D00F09BF9A389190713D55D
:101F4C0023698BB1013EA36816F8011F013BA36006
:101F5C00E9B9002B2EDA22460A21284600F07BF83C
:101F6C00013007D00A2507E02146284600F0B0F8DA
:101F7C000028E7D04FF0FF35636EDA0705D4A3894C
:101F8C009B0502D4A06D00F074F9284670BD002B9F
:101F9C0004DAA2699A4206DC0A2904D023685A1C86
:101FAC0022601970CFE72246284600F054F8013021
:101FBC00C9D1DFE70A2523685A1C22601D70DBE7B4
:101FCC00024B01461868FFF7A7BF00BF6400002052
:101FDC0010B50C46B1F90E1000F0FCF80028ABBFA0
:101FEC00636DA3891B1823F48053ACBF6365A38175
:101FFC0010BD2DE9F0411F468B890546DB050C46CB
:10200C00164605D502230022B1F90E1000F0D0F8C7
:10201C00A389324623F48053A38128463B46B4F966
:10202C000E10BDE8F04100F0E7B810B50C46B1F960
:10203C000E1000F0BDF8431CA38915BF606523F496
:10204C00805343F48053A38118BFA38110BDB1F911
:10205C000E1000F09DB8F8B50E461446054618B1A2
:10206C00036A0BB9FFF710FFA369A360A3891A07D2
:10207C0025D523691BB323682269F6B2981A6369C4
:10208C003746834204DC2146284600F03FFDE0B988
:10209C00A368013BA36023685A1C22601E7062690E
:1020AC00431C9A4204D0A389DB0706D50A2E04D11F
:1020BC002146284600F02AFD38B93846F8BD21469D
:1020CC00284600F005F80028D5D04FF0FF37F4E78C
:1020DC0038B52A4B054618680C4618B1036A0BB97B
:1020EC00FFF7D2FEA389B4F90C20180722D4D90625
:1020FC0007D409232B6042F040034FF0FF30A3813B
:10210C0034E0580712D5616B41B104F14403994294
:10211C0002D0284600F0AEF800236363A38923F0B5
:10212C002403A3810023636023692360A38943F004
:10213C000803A38123694BB9A38903F42073B3F576
:10214C00007F03D02146284600F02DFDA089B4F96C
:10215C000C2010F001030AD00023A36063695B42DA
:10216C00A361236943B910F08000C4D138BD810745
:10217C0058BF6369A360F4E70020F7E76400002010
:10218C0003460244934200D1704703F8011BF9E760
:10219C0038B50023054D044608462B60FEF7CEFBF0
:1021AC00431C02D12B6803B1236038BD740200209C
:1021BC0038B50446084611460022054D2A601A46D9
:1021CC00FEF7E0FB431C02D12B6803B1236038BD42
:1021DC007402002038B50446084611460022054D0D
:1021EC002A601A46FEF78DFB431C02D12B6803B103
:1021FC00236038BD7402002038B5044608461146E9
:10220C000022054D2A601A46FDF7C0FF431C02D17F
:10221C002B6803B1236038BD74020020014B186891
:10222C00704700BF6400002070B500260C4D0D4CAB
:10223C00641BA410A64209D100F032FD00260A4D01
:10224C000A4C641BA410A64205D170BD55F8043B82
:10225C0098470136EEE755F8043B98470136F2E70C
:10226C00C82E0008C82E0008C82E0008CC2E000866
:10227C007047704738B50546002940D051F8043CEA
:10228C000C1F002BB8BFE41800F0DCF81C4A1368D4
:10229C0033B9636014602846BDE8384000F0D8B804
:1022AC00A34208D9206821188B4201BF19685B68CA
:1022BC0009182160EDE71A465B680BB1A342FAD905
:1022CC0011685018A0420BD1206801445018834269
:1022DC001160E0D118685B68084410605360DAE75D
:1022EC0002D90C232B60D6E7206821188B4201BF42
:1022FC0019685B680918216063605460CBE738BDCE
:10230C007C02002070B50E4E0C463168054611B9A2
:10231C0000F0A8FC30602146284600F0A3FC431CCA
:10232C000AD0C41C24F00304A04207D0211A28466A
:10233C0000F098FC013001D14FF0FF34204670BD05
:10234C00800200202DE9F843CD1C25F0030508354B
:10235C000C2D38BF0C25002D074601DBA94205D9F1
:10236C000C2300263B603046BDE8F883DFF8D080B4
:10237C0000F068F8D8F800301C465CBB294638469B
:10238C00FFF7C0FF431C044655D1D8F80040264641
:10239C00002E45D1002C48D023683146384604EB3A
:1023AC00030900F05FFC81453FD1216838466D1A66
:1023BC002946FFF7A7FF013037D023682B44236051
:1023CC00D8F80030002B38D05A68A2422BD100220A
:1023DC005A600FE02268521B1FD40B2A17D96119BF
:1023EC00A342256018BF5960636808BFC8F8001085
:1023FC0062514B60384604F10B0600F029F826F0C8
:10240C000706231DF21AAED09B1BA350ABE7A342C9
:10241C006268DDD1C8F80020ECE723466468ACE7BD
:10242C0034467668B4E71346CCE70C2338463B6059
:10243C0000F00EF897E72560DCE75B60FFDE00BF7D
:10244C007C0200200148FFF713BF00BF7802002078
:10245C000148FFF70EBF00BF78020020936810B44C
:10246C00013B002B936007DA9469A34201DB0A2934
:10247C0002D110BCFFF7EFBD1368581C1060197027
:10248C00084610BC7047F8B506460F461446D518DA
:10249C00AC4201D1002007E03A46304614F8011B4B
:1024AC00FFF7DCFF431CF3D1F8BD00002DE9F04F22
:1024BC000D461446984606469DB018B1036A0BB9F2
:1024CC00FFF7E2FC6B6ED90705D4AB899A0502D4F1
:1024DC00A86DFFF7CDFEAB891B0701D52B699BB906
:1024EC0029463046FFF7F4FD70B16B6EDC0704D55E
:1024FC004FF0FF301DB0BDE8F08FAB899805F7D4D5
:10250C00A86DFFF7B6FEF3E70023099320238DF89F
:10251C00293030234FF00109CDF80C80DFF8AC8165
:10252C008DF82A3023469A4613F8012B0AB1252A36
:10253C00F9D1BAEB040B0BD05B4622462946304648
:10254C00FFF7A1FF013000F0A980099A5A440992C3
:10255C009AF80030002B00F0A18000234FF0FF32DE
:10256C00CDE905230AF1010A049307938DF8533042
:10257C001A935446052214F8011B544800F082FBB0
:10258C00049AD8B9D10644BF20238DF853301307D1
:10259C0044BF2B238DF853309AF800302A2B15D0DA
:1025AC00544600204FF00A0C079A214611F8013BC3
:1025BC00303B092B4DD9B0B1079214E0A0EB0803C6
:1025CC0009FA03F31343A2460493D2E7039B191DA4
:1025DC001B680391002BBBBF5B4242F002020793C6
:1025EC000793B8BF049223782E2B0CD163782A2B37
:1025FC0034D1039B02341A1D1B680392002BB8BF05
:10260C004FF0FF330593DFF8C8A003225046217822
:10261C0000F038FB38B14022049BA0EB0A0082404A
:10262C0013430134049314F8011B062229488DF836
:10263C00281000F027FB00283FD0274B1BBB039B27
:10264C00073323F0070308330393099B3B44099397
:10265C0068E70C4601200CFB0232A6E700234FF082
:10266C000A0C194601340593204610F8012B303A18
:10267C00092A03D9002BC6D00591C4E704460123CF
:10268C000CFB0121F0E703AB00932A463046134BB9
:10269C0004A9AFF300800746781CD6D16B6ED9071E
:1026AC0005D4AB899A0502D4A86DFFF7E2FDAB897E
:1026BC005B063FF51DAF09981CE703AB00932A4658
:1026CC003046064B04A900F07DF8E4E7922E000892
:1026DC00982E00089C2E000800000000932400088F
:1026EC002DE9F047164699468A680B6907469342CE
:1026FC00B8BF1346336091F843200C46DDF82080B8
:10270C000AB1013333602368990642BF3368023340
:10271C003360256815F0060506D104F1190AE36843
:10272C0032689B1AAB422BDC94F84320131E2268B0
:10273C0018BF0123920630D44946384604F14302AF
:10274C00C047013023D02368226903F00603042B11
:10275C0014BF002533684FF0000608BFE56804F18C
:10276C001A0408BFED1A54F8123C08BF25EAE575A7
:10277C009342C4BF9B1AED18B5421AD1002008E051
:10278C000123524649463846C047013003D14FF029
:10279C00FF30BDE8F0870135C1E73020E11881F842
:1027AC0043005A1C94F845102244023382F843101B
:1027BC00C2E70123224649463846C0470130E6D0DD
:1027CC000136D9E72DE9FF470F7E9146782F8046D9
:1027DC000C469A460C9D01F1430207D8622F0AD889
:1027EC00002F00F0D580582F00F0C18004F1420575
:1027FC0084F842703AE0A7F16303152BF6D801A1D7
:10280C0051F823F0692800087D280008F9270008F2
:10281C00F9270008F9270008F92700087D28000887
:10282C00F9270008F9270008F9270008F9270008FC
:10283C0083290008A92800083D290008F927000869
:10284C00F9270008A5290008F9270008A92800087D
:10285C00F9270008F9270008452900082B681A1DDC
:10286C001B682A6004F1420584F842300123A0E081
:10287C0020682B68070603F10401296001D51E6846
:10288C0003E04606FBD5B3F90060002E03DA2D23D6
:10289C00764284F843300A23594812E02B682068AA
:1028AC00191D2960050601D51E6802E04106FBD5FD
:1028BC001E886F2F0CBF08230A235148002184F86F
:1028CC0043106568002DA8BF2168A560A4BF21F046
:1028DC00040121600EB9002D4BD01546B6FBF3F167
:1028EC0003FB1167C75D05F8017D3746BB420E46F9
:1028FC00F4D9082B0BD12368DE0708D5236961684E
:10290C009942DEBF302305F8013C05F1FF35521B1F
:10291C0022614B4621464046CDF800A003AAFFF7A2
:10292C00DFFE01304AD14FF0FF3004B0BDE8F08734
:10293C00236843F0200323607827324884F84570DD
:10294C00236829681F0651F8046B02D45F0648BF40
:10295C00B6B2DF0748BF43F02003296048BF2360AD
:10296C001EB9236823F0200323601023A6E7244814
:10297C00E4E71546BDE72B682668181D61692860D9
:10298C0035061B6801D5196002E07006FBD519806D
:10299C00002315462361BCE72B6800211A1D2A6011
:1029AC001D686268284600F06DF908B1401B606034
:1029BC0063682361002384F84330AAE72A4649461A
:1029CC0040462369D0470130ADD023689B0713D410
:1029DC00E068039B9842B8BF1846A6E7012332462D
:1029EC0049464046D04701309DD00135E3680399F4
:1029FC005B1AAB42F2DCEBE7002504F11906F5E7B4
:102A0C00A32E0008B42E00088A89F8B505461007D5
:102A1C000C4657D44B68002B04DC0B6C002B01DCF0
:102A2C000020F8BDE66A002EFAD0002312F4805282
:102A3C002F68216A2B6032D0606DA3895A0705D5A7
:102A4C006368C01A636B0BB1236CC01A0023024677
:102A5C00E66A2846216AB047431CA38906D1296837
:102A6C001D292BD8284A0A41D60727D40022626098
:102A7C002269D904226004D5421C01D12B6803B908
:102A8C006065616B2F600029CAD004F14403994240
:102A9C0002D02846FFF7EEFB00206063C1E701235C
:102AAC002846B047411CC8D12B68002BC5D01D2B24
:102ABC0001D0162B01D12F60B2E7A38943F040035C
:102ACC00A381AEE70F69002FAAD0930718BF00238C
:102ADC000E6808BF4B69F61B0F608B60002E9FDDE4
:102AEC0033463A462846216AD4F828C0E0470028E5
:102AFC0006DCA3894FF0FF3043F04003A38190E73D
:102B0C000744361AEAE700BFFEFFBFDF38B50B6992
:102B1C0005460C4613B90025284638BD18B1036A82
:102B2C000BB9FFF7B1F9B4F90C30002BF3D0626E8E
:102B3C00D00704D4990502D4A06DFFF799FB284661
:102B4C002146FFF761FF636E0546DA07E4D4A389DB
:102B5C009B05E1D4A06DFFF78CFBDDE770B50C464F
:102B6C00B1F90E10154600291E4696B00CDAA38951
:102B7C00002113F0800F0CBF4FF480634023002022
:102B8C0031602B6016B070BD6A4600F049F8002821
:102B9C00EDDB019901F47041A1F500535942594103
:102BAC004FF48063EBE78B8973B59D0706460C46A3
:102BBC0007D504F14703236023610123636102B04D
:102BCC0070BD6A4601ABFFF7C9FF00990546304658
:102BDC00FFF7B8FB48B9B4F90C309A05EFD423F0E1
:102BEC00030343F00203A381E3E7A389206043F0CE
:102BFC008003A381009B20616361019B5BB1304624
:102C0C00B4F90E1000F01EF828B1A38923F00303C9
:102C1C0043F00103A381A3891D43A581CFE70000E5
:102C2C0038B50023064D0446084611462B60FDF7C7
:102C3C0090FE431C02D12B6803B1236038BD00BF4A
:102C4C007402002038B50023054D044608462B605D
:102C5C00FDF78EFE431C02D12B6803B1236038BDF7
:102C6C007402002038B50023054D044608462B603D
:102C7C00FDF794FE431C02D12B6803B1236038BDD1
:102C8C0074020020034610B5C9B2024493421846A0
:102C9C0001D1002003E0047801338C42F6D110BD41
:102CAC00F8B500BFF8BC08BC9E467047F8B500BF2D
:082CBC00F8BC08BC9E467047FD
:102CC4004D41494E3D3D3E52554E4E494700000050
:102CD400434845434B205254435F43524C5F414C5D
:102CE40052472025640A00004348454B4320525470
:102CF400435F20444956482025642C20616E64209B
:102D04004449564C3A2025640A2000004348454B68
:102D140043205254435F20434E5448202025642CC2
:102D240020616E6420434E544C3A2025640A00000E
:102D34004348454B43205254435F20414E524C3A42
:102D44002025642C20616E6420414E52483A20258F
:102D5400640A0000416C74657220616C726D00003D
:102D64004348454B4320504F494E54202D313A207F
:102D740025640A004861766520612070726F626C78
:102D8400656D20666F7220636F6E6E656374696E25
:102D940067207468652045787465726E616C2043A1
:102DA40072797374616C20436C6F636B2100000053
:102DB4004348454B4320504F494E5420303A202538
:102DC400640A000048414C5F4C315F436865636BA3
:102DD4002052544F464600004348454B4320504F31
:102DE400494E5420313A2025640A00004348454B9B
:102DF4004320504F494E5420323A2025640A0000A3
:102E04004348454B4320504F494E5420333A2025E4
:102E1400640A00004348454B4320504F494E542018
:102E2400343A2025640A000048414C5F4C325F4F1D
:102E34006E676F696E6720696E206F7468657220B3
:102E4400636F6D6D616E640A20256400446F6E6566
:102E540020636F6E66696775726174696F6E205264
:102E640054430000000000000000000001020304BD
:102E74000607080900000000010203040203040518
:102E8400060708090A0B0C0D0E0F10100102232D62
:102E9400302B2000686C4C0065666745464700305F
:102EA40031323334353637383941424344454600AC
:102EB40030313233343536373839616263646566AC
:042EC400000000000A
:042EC80031010008CC
:042ECC000D010008EC
:102ED0000024F400100000000100000000000000C9
:102EE000030000003801002000000000380100202D
:102EF000A0010020080200200000000000000000E7
:102F000000000000000000000000000000000000C1
:102F100000000000000000000000000000000000B1
:102F200000000000000000000000000000000000A1
:082F3000000000001800002061
:0400000508000A21C4
:00000001FF
