S01A000042494E5F53797374656D5F4C6F526157414E2E737265639A
S31508000000005000209D0D00082D0C0008330C000838
S31508000010390C00083F0C0008450C000800000000D9
S315080000200000000000000000000000004B0C000863
S31508000030570C000800000000630C00086F0C00084D
S31508000040E50D0008E50D0008E50D0008E50D0008BA
S31508000050E50D0008E50D0008E50D00087B0C000815
S31508000060E50D0008E50D0008E50D0008E50D00089A
S31508000070E50D0008E50D0008E50D0008E50D00088A
S31508000080E50D0008E50D0008E50D0008E50D00087A
S31508000090E50D0008E50D0008E50D0008E50D00086A
S315080000A0E50D0008E50D0008E50D0008E50D00085A
S315080000B0E50D0008E50D0008E50D0008E50D00084A
S315080000C0E50D0008E50D0008E50D0008E50D00083A
S315080000D0E50D0008E50D0008E50D0008E50D00082A
S315080000E0E50D0008E50D0008E50D00080000000014
S315080000F000000000000000000000000000000000F2
S3110800010000000000000000005FF808F195
S3150800010C10B5054C237833B9044B13B10448AFF337
S3150800011C00800123237010BD680000200000000039
S3150800012C2447000808B5034B1BB103490348AFF332
S3150800013C008008BD000000006C0000202447000861
S3150800014C80B483B000AF78604FF06043D3F8803E3C
S3150800015C03F00103002B13D04FF06043D3F8003E95
S3150800016C03F00103002B0BD000E000BF4FF06043F7
S3150800017C1B68002BF9D04FF060437A68D2B21A701C
S3150800018C7B6818460C37BD4680BC704780B586B070
S3150800019C00AFF860B9607A6000237B6109E0BB6840
S315080001AC5A1CBA601B781846FFF7CAFF7B690133DD
S315080001BC7B617A697B689A42F1DB7B68184618374B
S315080001CCBD4680BDB0B590B000AFAA4803F000FCA0
S315080001DC00F004FE00F078F900F054FA00F0D2F9B9
S315080001EC00F0FEF900F018FA00F0E2FAA24C3B46D1
S315080001FC184602F0F3FE25463C460FCC0FC50FCC2D
S3150800020C0FC594E8070085E807009B4B9B4A9A6143
S3150800021C994B9B4A1A60984B10229A80964B994A8E
S3150800022C9A60954B01229A81934B954A1A61924B87
S3150800023C02229A82904B40F2B1121A628E4B072216
S3150800024C83F824208C4B072283F825208A4B01221D
S3150800025C83F82620884BF62283F82A20864B7822A8
S3150800026C83F82B20844B08221A85834802F0DFFE7C
S3150800027C814803F0E6F90346FB86002387F83F30EE
S3150800028C12E097F83F4097F83F3019467A4803F042
S3150800029C93F803461A4621467B4803F02BFB97F83E
S315080002AC3F30013387F83F3097F93F30002BE8DAB7
S315080002BCFB8EC82B0DD101222021724801F0A6F81D
S315080002CC642000F0EDFD002220216E4801F09EF816
S315080002DC1CE0002387F83E3014E0012220216948EF
S315080002EC01F094F8642000F0DBFD0022202165481B
S315080002FC01F08CF8642000F0D3FD97F83E300133FA
S3150800030C87F83E3097F83E300A2BE6D95F4803F05B
S3150800031C5FFB5F4803F05CFB5E4B1B685D4A43F072
S3150800032C040313605C4B30221A700023BB630AE08B
S3150800033CBB6BDAB2BB6B01333032D1B2564AD154ED
S3150800034CBB6B0133BB63BB6B192BF1DD4FF47A73B3
S3150800035C04225149484803F0B7F8034687F8353064
S3150800036C97F83530002B0FD001222021454801F093
S3150800037C4DF8642000F094FD00222021414801F03C
S3150800038C45F8642000F08CFD4FF4FA6000F088FD07
S3150800039C80224249384803F0F4F8414803F018FB28
S315080003AC3E4B1B78002B17D03E4803F011FB3B4BFA
S315080003BC1B7819463C4803F09DFA384B1B781846AF
S315080003CC03F0AAFA354B5B78184603F0A5FA802297
S315080003DC0021324803F0DCFB00F012FB642000F02D
S315080003EC5FFD324B5B6803F002031946304803F095
S315080003FC81FA2E4B1B692D4A526919462D4803F072
S3150800040C79FA2A4B9B69294AD26919462A4803F074
S3150800041C71FA264B1B6A254A526A1946274803F075
S3150800042C69FA224B5B6803F00203002B19D02448A7
S3150800043C03F060FA1D4B5B681C4A23F002035360F9
S3150800044C00F0A0FA01224FF480710E4800F0DEFF8E
S3150800045C642000F025FD00224FF48071094800F055
S3150800046CD5FF00F08FFA174803F0B2FA00F0D4FA69
S3150800047C4FE700BF3C47000844010020EC00002071
S3150800048C00080140000C01404C470008544700087E
S3150800049C6447000800700040F0010020700100203D
S315080004AC7C47000884470008944700080028004049
S315080004BC98470008B0470008D4470008F8470008D2
S315080004CC1C4800082848000880B594B000AF07F10E
S315080004DC280328220021184603F05AFB07F11403B7
S315080004EC00221A605A609A60DA601A613B1D002273
S315080004FC1A605A609A60DA600923BB624FF480333B
S3150800050CFB6200233B630123BB6301233B64022389
S3150800051C7B644FF48033BB644FF4E013FB6407F140
S3150800052C2803184601F040F90346002B01D000F0C9
S3150800053C91FA0F237B610223BB610023FB614FF405
S3150800054C80633B6200237B6207F114030221184681
S3150800055C01F0ACFB0346002B01D000F07BFA01231B
S3150800056C7B604FF40073BB603B1D184601F02CFDF5
S3150800057C0346002B01D000F06DFA00BF5037BD467C
S3150800058C80BD000080B500AF124B134A1A60114BA0
S3150800059C124A5A600F4B00229A600E4B0022DA6000
S315080005AC0C4B4FF480421A610A4B00225A61094BD4
S315080005BC00229A61074B0022DA61064B00221A6266
S315080005CC044800F06DFF0346002B01D000F042FAF8
S315080005DC00BF80BD8400002000580040A0860100A2
S315080005EC80B500AF0A4B0B4A1A60094B4FF0FF3225
S315080005FC5A60074B4FF480729A60054801F050FE1A
S3150800060C0346002B01D000F025FA00BF80BD00BFC1
S3150800061CD80000200028004080B500AF174B184AB8
S3150800062C1A60164B4FF482725A60144B00229A6069
S3150800063C124B0022DA60114B00221A610F4B002272
S3150800064C5A610E4B4FF400729A610C4B1022DA6108
S3150800065C0A4B00221A62094B00225A62074B0022E7
S3150800066C9A62064B0A22DA62044801F022FF034614
S3150800067C002B01D000F0EEF900BF80BDEC00002085
S3150800068C0030014080B588B000AF07F11003002296
S3150800069C1A605A609A60DA60414B9B69404A43F08B
S315080006AC100393613E4B9B6903F01003FB60FB68D8
S315080006BC3B4B9B693A4A43F020039361384B9B6941
S315080006CC03F02003BB60BB68354B9B69344A43F087
S315080006DC04039361324B9B6903F004037B607B68CC
S315080006EC2F4B9B692E4A43F0080393612C4B9B694D
S315080006FC03F008033B603B6800221021294800F0F0
S3150800070C85FE00220121284800F080FE01224FF4C4
S3150800071C7871254800F07AFE02233B61234B7B61F6
S3150800072C0023BB6107F1100319461E4800F0EAFCCA
S3150800073C10233B6101237B610023BB610223FB6110
S3150800074C07F110031946174800F0DCFC01233B613E
S3150800075C01237B610023BB610223FB6107F11003B4
S3150800076C1946114800F0CEFC4FF478733B6101230F
S3150800077C7B610223BB610223FB6107F11003194657
S3150800078C094800F0BFFC00220121072000F083FC79
S3150800079C072000F09CFC00BF2037BD4680BD00BF7B
S315080007AC0010024000080140000C01400000111026
S315080007BC80B582B000AF284BDB69274A43F08053DB
S315080007CCD361254BDB69244A43F00063D361234B81
S315080007DC1B68224A43F4807313601F4B1B6A03F091
S315080007EC020319461E4803F085F81B4B1B6A1A4A66
S315080007FC43F0010313620023FB7109E0FB79013313
S3150800080CFB71FB79642B03D9164803F073F805E0E2
S3150800081C114B1B6A03F00203002BEFD00E4B1B6A1D
S3150800082C0D4A43F0090313620B4B1B6A0A4A23F061
S3150800083C08031362084B1B6A074A43F40043136206
S3150800084C054B1B6A1946064803F054F800F00CF8D9
S3150800085C00BF0837BD4680BD00100240007000403E
S3150800086C404800085448000880B500AF3B4B1B6A4B
S3150800087C03F0020319463A4803F03CF802E03948FB
S3150800088C03F0A6F8384B5B6803F02003002BF6D070
S3150800089C354B5B68344A43F010035360324B5B6844
S315080008AC03F020031946314803F024F82E4B002296
S315080008BC9A602D4B47F6FF72DA602B4B5B6803F098
S315080008CC200319462A4803F015F8274B00221A610B
S315080008DC254B4FF400425A61234B5B6803F0200307
S315080008EC1946244803F006F81F4B00229A611E4B42
S315080008FC0022DA611C4B00221A621B4B0F225A6229
S3150800090C194B1B68184A43F002031360164B1B68F5
S3150800091C154A43F004031360134B5B68124A23F021
S3150800092C10035360104B5B6803F0200319461248FA
S3150800093C02F0E0FF07E00C4B5B6803F02003194656
S3150800094C0E4802F0D7FF084B5B6803F02003002B18
S3150800095CF1D00B4803F03CF800BF80BD00100240F4
S3150800096C90480008A448000800280040B848000829
S3150800097CCC480008E0480008F44800080849000874
S3150800098C2C49000880B500AF02E01A4803F020F89D
S3150800099C194B5B6803F02003002BF6D0164B5B68EB
S315080009AC154A43F010035360134B00221A61124B7D
S315080009BC4FF400425A61104B00229A610E4B0022EA
S315080009CCDA610D4B5B680C4A23F01003536007E0A1
S315080009DC094B5B6803F020031946084802F08AFFA6
S315080009EC054B5B6803F02003002BF1D000BF00BF5A
S315080009FC80BD00BFA448000800280040084900082C
S31508000A0C80B500AF4FF40071024800F017FD00BF27
S31508000A1C80BD00BF000C014080B500AF054802F050
S31508000A2C69FF4FF4807000F08BFE00F0A5FE00BF46
S31508000A3C80BD00BF4449000880B582B000AF0346AC
S31508000A4CFB80034802F056FF00BF0837BD4680BD41
S31508000A5C5849000880B400AF72B600BFFEE7000024
S31508000A6C80B485B000AF154B9B69144A43F001035B
S31508000A7C9361124B9B6903F00103BB60BB680F4B78
S31508000A8CDB690E4A43F08053D3610C4BDB6903F0E8
S31508000A9C80537B607B680A4B5B68FB60FB6823F0C2
S31508000AACE063FB60FB6843F00073FB60044AFB6879
S31508000ABC536000BF1437BD4680BC70470010024017
S31508000ACC0000014080B588B000AF786007F11003CC
S31508000ADC00221A605A609A60DA607B681B68164AAC
S31508000AEC934224D1154B9B69144A43F0080393612E
S31508000AFC124B9B6903F00803FB60FB684FF44063D9
S31508000B0C3B6112237B610323FB6107F11003194632
S31508000B1C0B4800F0F7FA094BDB69084A43F48003E3
S31508000B2CD361064BDB6903F48003BB60BB6800BF6B
S31508000B3C2037BD4680BD00BF00580040001002405B
S31508000B4C000C014080B584B000AF78607B681B68E8
S31508000B5C0B4A934210D100F0E7FD0A4BDB69094AB0
S31508000B6C43F00063D361074BDB6903F00063FB605A
S31508000B7CFB68054B01221A6000BF1037BD4680BDC5
S31508000B8C00280040001002403C04424280B588B060
S31508000B9C00AF786007F1100300221A605A609A6059
S31508000BACDA607B681B681B4A93422FD11A4B9B69E8
S31508000BBC194A43F480539361174B9B6903F480538A
S31508000BCCFB60FB68144B9B69134A43F0040393615F
S31508000BDC114B9B6903F00403BB60BB68A0233B6104
S31508000BEC02237B610323FB6107F1100319460B48AB
S31508000BFC00F088FA40233B6100237B610023BB612C
S31508000C0C07F110031946054800F07CFA00BF203797
S31508000C1CBD4680BD0030014000100240000801406E
S31508000C2C80B400AFFEE780B400AFFEE780B400AF37
S31508000C3CFEE780B400AFFEE780B400AFFEE780B4F1
S31508000C4C00AF00BFBD4680BC704780B400AF00BF84
S31508000C5CBD4680BC704780B400AF00BFBD4680BCA3
S31508000C6C704780B500AF00F0FFF800BF80BD80B5B7
S31508000C7C00AF022000F0FCFB00BF80BD80B586B03B
S31508000C8C00AFF860B9607A6000237B610AE0AFF3C5
S31508000C9C00800146BB685A1CBA60CAB21A707B69D6
S31508000CAC01337B617A697B689A42F0DB7B6818466C
S31508000CBC1837BD4680BD80B483B000AF78604FF05E
S31508000CCCFF3318460C37BD4680BC704780B483B0DA
S31508000CDC00AF786039603B684FF400525A600023C5
S31508000CEC18460C37BD4680BC704780B483B000AF3D
S31508000CFC7860012318460C37BD4680BC704780B413
S31508000D0C85B000AFF860B9607A60002318461437CE
S31508000D1CBD4680BC7047000080B586B000AF7860D1
S31508000D2C144A154BD31A7B617B693B61134B1B68C1
S31508000D3C002B02D1114B124A1A60104B1A687B68A9
S31508000D4C13443A699A4207D202F070FF03460C2202
S31508000D5C1A604FF0FF3309E0084B1B68FB60074B22
S31508000D6C1A687B681344054A1360FB6818461837DB
S31508000D7CBD4680BD00500020000400007002002013
S31508000D8CC803002080B400AF00BFBD4680BC7047C6
S31508000D9CFFF7F8FF0B480C490C4A002302E0D4581D
S31508000DACC4500433C4188C42F9D3094A094C00239D
S31508000DBC01E013600432A242FBD302F03DFFFFF7B9
S31508000DCC01FA70470000002068000020E44900087A
S31508000DDC68000020C4030020FEE7000080B500AFC1
S31508000DEC084B1B68074A43F010031360032000F0F6
S31508000DFC47F90F2000F008F8FFF732FE00231846D3
S31508000E0C80BD00BF0020024080B582B000AF78607C
S31508000E1C124B1A68124B1B7819464FF47A73B3FBAC
S31508000E2CF1F3B2FBF3F3184600F05FF90346002B17
S31508000E3C01D001230EE07B680F2B0AD800227968B3
S31508000E4C4FF0FF3000F027F9064A7B681360002341
S31508000E5C00E0012318460837BD4680BD0000002077
S31508000E6C080000200400002080B400AF054B1B7856
S31508000E7C1A46054B1B681344034A136000BFBD464C
S31508000E8C80BC7047080000207402002080B400AFB4
S31508000E9C024B1B681846BD4680BC7047740200207E
S31508000EAC80B584B000AF7860FFF7F0FFB8607B6858
S31508000EBCFB60FB68B3F1FF3F05D00A4B1B781A465B
S31508000ECCFB681344FB6000BFFFF7E0FF0246BB68F4
S31508000EDCD31AFA689A42F7D800BF00BF1037BD4636
S31508000EEC80BD00BF0800002080B485B000AF7860D4
S31508000EFC7B6803F00703FB600C4BDB68BB60BA68C6
S31508000F0C4FF6FF031340BB60FB681A02BB6813431A
S31508000F1C43F0BF6343F40033BB60044ABB68D36039
S31508000F2C00BF1437BD4680BC704700BF00ED00E01B
S31508000F3C80B400AF044BDB681B0A03F007031846A2
S31508000F4CBD4680BC704700BF00ED00E080B483B09E
S31508000F5C00AF0346FB7197F90730002B0BDBFB79C7
S31508000F6C03F01F02064997F907305B09012000FABE
S31508000F7C02F241F8232000BF0C37BD4680BC7047EF
S31508000F8C00E100E080B483B000AF03463960FB7122
S31508000F9C97F90730002B0ADB3B68DAB20C4997F94C
S31508000FAC07301201D2B20B4483F800230AE03B68DF
S31508000FBCDAB20849FB7903F00F03043B1201D2B2EB
S31508000FCC0B441A7600BF0C37BD4680BC704700BF71
S31508000FDC00E100E000ED00E080B489B000AFF860F5
S31508000FECB9607A60FB6803F00703FB61FB69C3F120
S31508000FFC0703042B28BF0423BB61FB690433062BA8
S3150800100C02D9FB69033B00E000237B614FF0FF32FA
S3150800101CBB6902FA03F3DA43BB681A407B699A4048
S3150800102C4FF0FF317B6901FA03F3D9437B680B4018
S3150800103C134318462437BD4680BC704780B582B02A
S3150800104C00AF78607B68013BB3F1807F01D3012345
S3150800105C0FE00A4A7B68013B53600F214FF0FF30C3
S3150800106CFFF790FF054B00229A60044B07221A6083
S3150800107C002318460837BD4680BD00BF10E000E0C7
S3150800108C80B582B000AF78607868FFF72DFF00BF97
S3150800109C0837BD4680BD80B586B000AF0346B9603B
S315080010AC7A60FB7300237B61FFF742FF78617A68ED
S315080010BCB9687869FFF790FF024697F90F30114621
S315080010CC1846FFF75FFF00BF1837BD4680BD80B5D1
S315080010DC82B000AF0346FB7197F907301846FFF745
S315080010EC35FF00BF0837BD4680BD80B582B000AF5E
S315080010FC78607868FFF7A2FF034618460837BD469E
S3150800110C80BD000080B48BB000AF786039600023D6
S3150800111C7B6200233B6269E101227B6A02FA03F3D4
S3150800112CFB613B681B68FA691340BB61BA69FB69CA
S3150800113C9A4240F058813B685B689A4A93425ED063
S3150800114C984A934275D8984A934258D0964A9342ED
S3150800115C6FD8964A934252D0944A934269D8944A85
S3150800116C93424CD0924A934263D8924A934246D0C1
S3150800117C904A93425DD8122B2AD8122B59D801A221
S3150800118C52F823F00B120008E5110008F7110008B5
S3150800119C391200083F1200083F1200083F120008D7
S315080011AC3F1200083F1200083F1200083F120008C1
S315080011BC3F1200083F1200083F1200083F120008B1
S315080011CC3F1200083F120008ED1100080112000832
S315080011DC794A934213D02CE03B68DB683B6229E0E2
S315080011EC3B68DB6804333B6224E03B68DB68083306
S315080011FC3B621FE03B68DB680C333B621AE03B68DA
S3150800120C9B68002B02D104233B6213E03B689B6866
S3150800121C012B05D108233B627B68FA691A6109E040
S3150800122C08233B627B68FA695A6103E000233B6238
S3150800123C00E000BFBB69FF2B01D87B6801E07B6827
S3150800124C04337B61BB69FF2B02D87B6A9B0002E0E7
S3150800125C7B6A083B9B003B617B691A680F213B69DB
S3150800126C01FA03F3DB431A40396A3B6901FA03F3C3
S3150800127C1A437B691A603B685B6803F08053002B42
S3150800128C00F0B1804D4B9B694C4A43F001039361C6
S3150800129C4A4B9B6903F00103BB60BB68484A7B6AEF
S315080012AC9B08023352F82330FB607B6A03F0030376
S315080012BC9B000F2202FA03F3DB43FA681340FB6028
S315080012CC7B68404A934213D07B683F4A93420DD0C1
S315080012DC7B683E4A934207D07B683D4A934201D1CC
S315080012EC032306E0042304E0022302E0012300E0C2
S315080012FC00237A6A02F0030292009340FA681343B9
S3150800130CFB602F497B6A9B080233FA6841F8232055
S3150800131C3B685B6803F48013002B06D02D4B9A6848
S3150800132C2C49BB6913438B6006E02A4B9A68BB6948
S3150800133CDB43284913408B603B685B6803F4001356
S3150800134C002B06D0234BDA682249BB691343CB60C2
S3150800135C06E0204BDA68BB69DB431E491340CB60B9
S3150800136C3B685B6803F40033002B06D0194B5A68AC
S3150800137C1849BB6913434B6006E0164B5A68BB69A0
S3150800138CDB43144913404B603B685B6803F48033BA
S3150800139C002B21D00F4B1A680E49BB6913430B60FF
S315080013AC21E000BF000032100000311000002210AE
S315080013BC000021100000121000001110001002404D
S315080013CC0000014000080140000C014000100140DB
S315080013DC00140140000401400B4B1A68BB69DB433F
S315080013EC094913400B607B6A01337B623B681A68B8
S315080013FC7B6A22FA03F3002B7FF48EAE00BF00BF84
S3150800140C2C37BD4680BC70470004014080B483B0BD
S3150800141C00AF78600B467B8013467B707B78002B7D
S3150800142C03D07A887B681A6103E07B881A047B6888
S3150800143C1A6100BF0C37BD4680BC704780B485B0B6
S3150800144C00AF78600B467B807B68DB68FB607A882C
S3150800145CFB6813401A04FB68D9437B880B401A4374
S3150800146C7B681A6100BF1437BD4680BC7047000004
S3150800147C80B582B000AF0346FB80084B5A69FB88DF
S3150800148C1340002B06D0054AFB885361FB88184687
S3150800149CFFF7D2FA00BF0837BD4680BD00040140ED
S315080014AC80B584B000AF78607B68002B01D101232E
S315080014BC2BE17B6893F83D30DBB2002B06D17B68B9
S315080014CC002283F83C207868FFF7FCFA7B68242214
S315080014DC83F83D207B681B681A687B681B6822F0BA
S315080014EC01021A607B681B681A687B681B6842F4E1
S315080014FC00421A607B681B681A687B681B6822F4B2
S3150800150C00421A6000F01AFDF8607B685B68814A35
S3150800151C934207D8FB68804A934294BF0123002361
S3150800152CDBB206E0FB687D4A934294BF0123002395
S3150800153CDBB2002B01D00123E7E0FB68784AA2FB5B
S3150800154C03239B0CBB607B681B685B6823F03F011D
S3150800155C7B681B68BA680A435A607B681B681B6AF7
S3150800156C23F03F017B685B686A4A934202D8BB68E2
S3150800157C013309E0BB684FF4967202FB03F3694A20
S3150800158CA2FB03239B0901337A6812680B43136287
S3150800159C7B681B68DB6923F44F4222F0FF027B68E9
S315080015AC5B685C498B4219D8FB68591E7B685B687B
S315080015BC5B00B1FBF3F3591C40F6FC730B40002B94
S315080015CC0AD0FB68591E7B685B685B00B1FBF3F3BA
S315080015DC0133C3F30B0351E004234FE07B689B688C
S315080015EC002B11D1FB68581E7B6859680B465B00AB
S315080015FC0B44B0FBF3F30133C3F30B03002B0CBF03
S3150800160C01230023DBB212E0FB68581E7B6859687D
S3150800161C0B469B000B4499000B44B0FBF3F30133C8
S3150800162CC3F30B03002B0CBF01230023DBB2002BE7
S3150800163C01D0012322E07B689B68002B0ED1FB6846
S3150800164C581E7B6859680B465B000B44B0FBF3F3DA
S3150800165C0133C3F30B0343F400430FE0FB68581E36
S3150800166C7B6859680B469B000B4499000B44B0FBEE
S3150800167CF3F30133C3F30B0343F440437968096866
S3150800168C1343CB617B681B681B6823F0C0017B681E
S3150800169CDA697B681B6A1A437B681B680A431A60FB
S315080016AC7B681B689B6823F4034323F0FF037A6863
S315080016BC11697A68D26811437A6812680B43936089
S315080016CC7B681B68DB6823F0FF017B685A697B68BB
S315080016DC9B691A437B681B680A43DA607B681B683C
S315080016EC1A687B681B6842F001021A607B68002244
S315080016FC1A647B68202283F83D207B6800221A63D3
S3150800170C7B68002283F83E20002318461037BD4616
S3150800171C80BD00BFA08601007F841E00FF083D0027
S3150800172C83DE1B43D34D621080B400AF034B0122FA
S3150800173C1A6000BFBD4680BC704700BF20000E4231
S3150800174C80B485B000AF78607B68FB60FB6893FA61
S3150800175CA3F3BB60BB68B3FA83F3DBB21A46054B3B
S3150800176C13449B001A460123136000BF1437BD4669
S3150800177C80BC70472080831080B400AF084B1B6870
S3150800178C074A43F002031360064B1B69054A43F0EC
S3150800179C0403136130BF00BFBD4680BC704700BF51
S315080017AC0070004000ED00E080B586B000AF7860B0
S315080017BC7B68002B01D1012372E27B681B6803F05E
S315080017CC0103002B00F08780924B5B6803F00C0337
S315080017DC042B0CD08F4B5B6803F00C03082B12D12F
S315080017EC8C4B5B6803F48033B3F5803F0BD1894B84
S315080017FC1B6803F40033002B6CD07B685B68002BEA
S3150800180C68D101234CE27B685B68B3F5803F06D14F
S3150800181C804B1B687F4A43F4803313602EE07B6849
S3150800182C5B68002B0CD17B4B1B687A4A23F48033FC
S3150800183C1360784B1B68774A23F4802313601DE0EA
S3150800184C7B685B68B3F5A02F0CD1724B1B68714A89
S3150800185C43F4802313606F4B1B686E4A43F4803342
S3150800186C13600BE06B4B1B686A4A23F480331360D6
S3150800187C684B1B68674A23F4802313607B685B6894
S3150800188C002B13D0FFF702FB386108E0FFF7FEFACE
S3150800189C02463B69D31A642B01D9032300E25D4B3C
S315080018AC1B6803F40033002BF0D014E0FFF7EEFAB4
S315080018BC386108E0FFF7EAFA02463B69D31A642B4B
S315080018CC01D90323ECE1534B1B6803F40033002BBB
S315080018DCF0D100E000BF7B681B6803F00203002B05
S315080018EC63D04C4B5B6803F00C03002B0BD0494BB5
S315080018FC5B6803F00C03082B1CD1464B5B6803F49E
S3150800190C8033002B16D1434B1B6803F00203002BC4
S3150800191C05D07B681B69012B01D00123C0E13D4B27
S3150800192C1B6823F0F8027B685B69DB0039491343B3
S3150800193C0B603AE07B681B69002B20D0364B0122E2
S3150800194C1A60FFF7A3FA386108E0FFF79FFA024618
S3150800195C3B69D31A022B01D90323A1E12D4B1B6832
S3150800196C03F00203002BF0D02A4B1B6823F0F80275
S3150800197C7B685B69DB00274913430B6015E0264B34
S3150800198C00221A60FFF782FA386108E0FFF77EFA40
S3150800199C02463B69D31A022B01D9032380E11D4B5E
S315080019AC1B6803F00203002BF0D17B681B6803F05D
S315080019BC0803002B3AD07B689B69002B19D0174B70
S315080019CC01221A60FFF762FA386108E0FFF75EFA3F
S315080019DC02463B69D31A022B01D9032360E10D4B4E
S315080019EC5B6A03F00203002BF0D0012000F0CEFA5C
S315080019FC1CE00A4B00221A60FFF748FA38610FE020
S31508001A0CFFF744FA02463B69D31A022B08D903237B
S31508001A1C46E100BF001002400000424280044242E8
S31508001A2C924B5B6A03F00203002BE9D17B681B68B7
S31508001A3C03F00403002B00F0A6800023FB758B4BE8
S31508001A4CDB6903F08053002B0DD1884BDB69874A81
S31508001A5C43F08053D361854BDB6903F08053BB603D
S31508001A6CBB680123FB75824B1B6803F48073002B40
S31508001A7C18D17F4B1B687E4A43F480731360FFF7BB
S31508001A8C05FA386108E0FFF701FA02463B69D31AF2
S31508001A9C642B01D9032303E1754B1B6803F480738C
S31508001AAC002BF0D07B68DB68012B06D16F4B1B6AC9
S31508001ABC6E4A43F0010313622DE07B68DB68002B4A
S31508001ACC0CD16A4B1B6A694A23F001031362674BF4
S31508001ADC1B6A664A23F0040313621CE07B68DB6806
S31508001AEC052B0CD1614B1B6A604A43F00403136245
S31508001AFC5E4B1B6A5D4A43F0010313620BE05B4BBA
S31508001B0C1B6A5A4A23F001031362584B1B6A574A3D
S31508001B1C23F0040313627B68DB68002B15D0FFF7F0
S31508001B2CB5F938610AE0FFF7B1F902463B69D31AF1
S31508001B3C41F28832934201D90323B1E04B4B1B6A1D
S31508001B4C03F00203002BEED014E0FFF79FF938617F
S31508001B5C0AE0FFF79BF902463B69D31A41F2883231
S31508001B6C934201D903239BE0404B1B6A03F0020303
S31508001B7C002BEED1FB7D012B05D13C4BDB693B4A97
S31508001B8C23F08053D3617B68DB69002B00F08780D8
S31508001B9C364B5B6803F00C03082B61D07B68DB695A
S31508001BAC022B46D1334B00221A60FFF76FF93861C6
S31508001BBC08E0FFF76BF902463B69D31A022B01D9E9
S31508001BCC03236DE0294B1B6803F00073002BF0D13F
S31508001BDC7B681B6AB3F5803F08D1244B5B6823F4FA
S31508001BEC00327B689B68214913434B601F4B5B682B
S31508001BFC23F474127B68196A7B685B6A0B431B496E
S31508001C0C13434B601B4B01221A60FFF73FF93861EF
S31508001C1C08E0FFF73BF902463B69D31A022B01D9B8
S31508001C2C03233DE0114B1B6803F00073002BF0D027
S31508001C3C35E0104B00221A60FFF728F9386108E0E6
S31508001C4CFFF724F902463B69D31A022B01D9032361
S31508001C5C26E0064B1B6803F00073002BF0D11EE040
S31508001C6C7B68DB69012B07D1012319E000100240C0
S31508001C7C00700040600042420B4B5B68FB60FB68DF
S31508001C8C03F480327B681B6A9A4206D1FB6803F41C
S31508001C9C70127B685B6A9A4201D0012300E000232C
S31508001CAC18461837BD4680BD0010024080B584B072
S31508001CBC00AF786039607B68002B01D10123D0E036
S31508001CCC6A4B1B6803F007033A689A4210D9674BAC
S31508001CDC1B6823F0070265493B6813430B60634B8B
S31508001CEC1B6803F007033A689A4201D00123B8E04F
S31508001CFC7B681B6803F00203002B20D07B681B68EB
S31508001D0C03F00403002B05D0594B5B68584A43F47F
S31508001D1CE06353607B681B6803F00803002B05D04F
S31508001D2C534B5B68524A43F460535360504B5B68A1
S31508001D3C23F0F0027B689B684D4913434B607B6824
S31508001D4C1B6803F00103002B40D07B685B68012BF2
S31508001D5C07D1474B1B6803F40033002B15D101231D
S31508001D6C7FE07B685B68022B07D1414B1B6803F04D
S31508001D7C0073002B09D1012373E03D4B1B6803F05C
S31508001D8C0203002B01D101236BE0394B5B6823F06E
S31508001D9C03027B685B68364913434B60FFF776F89A
S31508001DACF8600AE0FFF772F80246FB68D31A41F2AC
S31508001DBC8832934201D9032353E02D4B5B6803F019
S31508001DCC0C027B685B689B009A42EBD1274B1B681D
S31508001DDC03F007033A689A4210D2244B1B6823F087
S31508001DEC070222493B6813430B60204B1B6803F020
S31508001DFC07033A689A4201D0012332E07B681B68D4
S31508001E0C03F00403002B08D0194B5B6823F4E0623B
S31508001E1C7B68DB68164913434B607B681B6803F0C9
S31508001E2C0803002B09D0124B5B6823F460527B68BD
S31508001E3C1B69DB000E4913434B6000F021F8024680
S31508001E4C0B4B5B681B0903F00F030A49CB5C22FAA0
S31508001E5C03F3094A1360094B1B681846FEF7D4FFAF
S31508001E6C002318461037BD4680BD00BF002002402F
S31508001E7C00100240684900080000002004000020F9
S31508001E8C80B487B000AF0023FB600023BB6000233F
S31508001E9C7B6100237B6000233B611E4B5B68FB6008
S31508001EACFB6803F00C03042B02D0082B03D027E0A5
S31508001EBC194B3B6127E0FB689B0C03F00F03174A91
S31508001ECCD35C7B60FB6803F48033002B10D0114B7A
S31508001EDC5B685B0C03F00103114AD35CBB607B683F
S31508001EEC0D4A03FB02F2BB68B2FBF3F37B6104E019
S31508001EFC7B680C4A02FB03F37B617B693B6102E05E
S31508001F0C054B3B6100BF3B6918461C37BD4680BC78
S31508001F1C704700BF0010024000127A008049000882
S31508001F2C9049000800093D0080B400AF024B1B68BD
S31508001F3C1846BD4680BC70470000002080B500AF2F
S31508001F4CFFF7F2FF0246054B5B681B0A03F0070313
S31508001F5C0349CB5C22FA03F3184680BD00100240F5
S31508001F6C7849000880B500AFFFF7DEFF0246054B3F
S31508001F7C5B68DB0A03F007030349CB5C22FA03F31D
S31508001F8C184680BD001002407849000880B485B018
S31508001F9C00AF78600A4B1B680A4AA2FB03235B0A4C
S31508001FAC7A6802FB03F3FB6000BFFB685A1EFA60F3
S31508001FBC002BF9D100BF00BF1437BD4680BC704753
S31508001FCC00000020D34D621080B586B000AF786053
S31508001FDC00233B610023FB607B681B6803F001034D
S31508001FEC002B7DD00023FB754F4BDB6903F0805328
S31508001FFC002B0DD14C4BDB694B4A43F08053D36114
S3150800200C494BDB6903F08053BB60BB680123FB7546
S3150800201C464B1B6803F48073002B18D1434B1B6883
S3150800202C424A43F480731360FEF730FF386108E0C8
S3150800203CFEF72CFF02463B69D31A642B01D90323FE
S3150800204C6DE03A4B1B6803F48073002BF0D0364BCB
S3150800205C1B6A03F44073FB60FB68002B2ED07B686D
S3150800206C5B6803F44073FA689A4227D02E4B1B6AB6
S3150800207C23F44073FB602E4B01221A602C4B002272
S3150800208C1A60294AFB681362FB6803F00103002BEC
S3150800209C14D0FEF7FBFE38610AE0FEF7F7FE02469F
S315080020AC3B69D31A41F28832934201D9032336E0AD
S315080020BC1D4B1B6A03F00203002BEED01A4B1B6A4E
S315080020CC23F440727B685B68174913430B62FB7DEC
S315080020DC012B05D1144BDB69134A23F08053D361CA
S315080020EC7B681B6803F00203002B08D00E4B5B6859
S315080020FC23F440427B689B680B4913434B607B680F
S3150800210C1B6803F01003002B08D0074B5B6823F4FD
S3150800211C80027B68DB68044913434B60002318462E
S3150800212C1837BD4680BD00BF001002400070004045
S3150800213C4004424280B588B000AF786000237B61CA
S3150800214C0023FB6100233B610023FB600023BB617A
S3150800215C7B68102B0AD07B68102B00F28A807B6870
S3150800216C012B45D07B68022B75D082E0464B5B6809
S3150800217CFB60454B1B6803F08073002B7BD0FB6818
S3150800218C9B0C03F00F03414AD35C3B61FB6803F4D9
S3150800219C8033002B15D03C4B5B685B0C03F00103BA
S315080021AC3B4AD35C7B61FB6803F48033002B0DD070
S315080021BC384A7B69B2FBF3F23B6902FB03F3FB611A
S315080021CC04E03B69344A02FB03F3FB612E4B5B6864
S315080021DC03F48003B3F5800F02D1FB69BB614AE0B7
S315080021ECFB695B002D4AA2FB03235B08BB6142E03B
S315080021FC254B1B6AFB60FB6803F44073B3F5807FC1
S3150800220C08D1FB6803F00203002B03D04FF40043FC
S3150800221CBB611FE0FB6803F44073B3F5007F09D17B
S3150800222C194B5B6A03F00203002B03D049F64043B3
S3150800223CBB610FE0FB6803F44073B3F5407F1CD118
S3150800224C114B1B6803F40033002B16D04FF22443B2
S3150800225CBB6112E011E0FFF785FE02460A4B5B688C
S3150800226C9B0B03F0030301335B00B2FBF3F3BB6177
S3150800227C04E000BF02E000BF00E000BFBB691846DF
S3150800228C2037BD4680BD00BF0010024094490008A7
S3150800229CA449000800127A0000093D00ABAAAAAAB4
S315080022AC80B584B000AF78600023FB607B68002B98
S315080022BC01D101237AE07B685B7CDBB2002B05D16C
S315080022CC7B6800221A747868FEF73CFC7B6802224D
S315080022DC5A74786800F070F80346002B04D07B68B3
S315080022EC04225A74012361E0786800F092F80346D8
S315080022FC002B04D07B6804225A74012356E07B68B1
S3150800230C1B685A687B681B6822F007025A607B6850
S3150800231C9B68002B05D0274B1B6B264A23F0010321
S3150800232C1363244BDB6A23F460727B689B68214930
S3150800233C1343CB627B685B68B3F1FF3F03D07B68C2
S3150800234C5B68FB600EE00120FFF7F4FEF860FB68A3
S3150800235C002B04D17B6804225A74012326E0FB68FF
S3150800236C013BFB60FB681A0C7B681B6802F00F02CA
S3150800237C9A607B681B68FA6892B2DA60786800F033
S3150800238C70F80346002B04D07B6804225A74012388
S3150800239C0CE07B680022DA737B6801225A737B682F
S315080023AC01229A737B6801225A7400231846103747
S315080023BCBD4680BD006C004080B584B000AF786027
S315080023CC0023FB607B68002B01D101231DE07B6891
S315080023DC1B685A687B681B6822F008025A60FEF76D
S315080023EC55FDF86009E0FEF751FD0246FB68D31A65
S315080023FCB3F57A7F01D9032307E07B681B685B6812
S3150800240C03F00803002BEED0002318461037BD4600
S3150800241C80BD80B584B000AF78600023FB60FEF702
S3150800242C35FDF86009E0FEF731FD0246FB68D31A64
S3150800243CB3F57A7F01D903230FE07B681B685B68C9
S3150800244C03F02003002BEED07B681B685A687B6868
S3150800245C1B6842F010025A60002318461037BD4616
S3150800246C80BD80B584B000AF78600023FB607B68C4
S3150800247C1B685A687B681B6822F010025A60FEF7C4
S3150800248C05FDF86009E0FEF701FD0246FB68D31A64
S3150800249CB3F57A7F01D9032307E07B681B685B6871
S315080024AC03F02003002BEED0002318461037BD4648
S315080024BC80BD80B582B000AF78607B68002B01D1F7
S315080024CC012376E07B685B6A002B08D17B685B6826
S315080024DCB3F5827F09D07B680022DA6105E07B6858
S315080024EC00221A617B6800225A617B6800229A6274
S315080024FC7B6893F85130DBB2002B06D17B6800223F
S3150800250C83F850207868FEF741FB7B68022283F833
S3150800251C51207B681B681A687B681B6822F040028E
S3150800252C1A607B685B6803F482727B689B6803F4A9
S3150800253C04431A437B68DB6803F400631A437B681D
S3150800254C1B6903F002031A437B685B6903F00103FA
S3150800255C1A437B689B6903F400731A437B68DB692F
S3150800256C03F038031A437B681B6A03F0800342EABC
S3150800257C03017B689B6A03F400527B681B680A4359
S3150800258C1A607B689B691A0C7B681B6802F004024C
S3150800259C5A607B681B68DA697B681B6822F40062E0
S315080025ACDA617B6800225A657B68012283F8512020
S315080025BC002318460837BD4680BD80B588B000AFE5
S315080025CCF860B9603B601346FB800023FB77FB6819
S315080025DC93F85030012B01D102232DE1FB6801221F
S315080025EC83F85020FEF752FCB861FB88FB82FB6827
S315080025FC93F85130DBB2012B02D00223FB7716E19C
S3150800260CBB68002B02D0FB88002B02D10123FB7779
S3150800261C0DE1FB68032283F85120FB6800225A65FA
S3150800262CFB68BA681A63FB68FA889A86FB68FA88A4
S3150800263CDA86FB6800229A63FB6800229A87FB6895
S3150800264C0022DA87FB6800225A64FB6800221A64A7
S3150800265CFB689B68B3F5004F0FD1FB681B681A68BB
S3150800266CFB681B6822F040021A60FB681B681A6834
S3150800267CFB681B6842F480421A60FB681B681B687F
S3150800268C03F04003402B07D0FB681B681A68FB68ED
S3150800269C1B6842F040021A60FB68DB68B3F5006FF2
S315080026AC4FD1FB685B68002B02D0FB8A012B42D109
S315080026BCFB681B6B1A88FB681B68DA60FB681B6B6C
S315080026CC9A1CFB681A63FB68DB8E9BB2013B9AB2B9
S315080026DCFB68DA862FE0FB681B689B6803F002032D
S315080026EC022B12D1FB681B6B1A88FB681B68DA6015
S315080026FCFB681B6B9A1CFB681A63FB68DB8E9BB228
S3150800270C013B9AB2FB68DA8615E0FEF7BFFB024678
S3150800271CBB69D31A3A689A4203D83B68B3F1FF3FB0
S3150800272C02D13B68002B06D10323FB77FB680122F9
S3150800273C83F851207BE0FB68DB8E9BB2002BCAD159
S3150800274C50E0FB685B68002B02D0FB8A012B44D156
S3150800275CFB681A6BFB681B680C3312781A70FB68DB
S3150800276C1B6B5A1CFB681A63FB68DB8E9BB2013B1E
S3150800277C9AB2FB68DA8630E0FB681B689B6803F044
S3150800278C0203022B13D1FB681A6BFB681B680C330C
S3150800279C12781A70FB681B6B5A1CFB681A63FB6869
S315080027ACDB8E9BB2013B9AB2FB68DA8615E0FEF724
S315080027BC6DFB0246BB69D31A3A689A4203D83B6842
S315080027CCB3F1FF3F02D13B68002B06D10323FB77FD
S315080027DCFB68012283F8512029E0FB68DB8E9BB24B
S315080027EC002BC9D1BA693968F86800F0D9FB0346D9
S315080027FC002B02D0FB6820225A65FB689B68002BCD
S3150800280C0AD100233B61FB681B68DB683B61FB68EC
S3150800281C1B689B683B613B69FB685B6D002B02D0B0
S3150800282C0123FB7703E0FB68012283F85120FB6840
S3150800283C002283F85020FB7F18462037BD4680BD02
S3150800284C80B588B002AFF860B9603B601346FB8070
S3150800285C0023FB75FB6893F85130DBB2012B02D0D1
S3150800286C0223FB75FBE0FB685B68B3F5827F12D12C
S3150800287CFB689B68002B0ED1FB68042283F8512059
S3150800288CFA883B6800931346BA68B968F86800F08A
S3150800289CEFF80346E8E0FB6893F85030012B01D1BA
S315080028AC0223E1E0FB68012283F85020FEF7EEFADA
S315080028BC3861BB68002B02D0FB88002B02D10123A0
S315080028CCFB75CCE0FB68042283F85120FB680022D8
S315080028DC5A65FB68BA689A63FB68FA889A87FB6834
S315080028ECFA88DA87FB6800221A63FB6800229A8644
S315080028FCFB680022DA86FB6800221A64FB68002251
S3150800290C5A64FB689B68B3F5004F0FD1FB681B68CC
S3150800291C1A68FB681B6822F040021A60FB681B6881
S3150800292C1A68FB681B6822F480421A60FB681B68ED
S3150800293C1B6803F04003402B07D0FB681B681A681A
S3150800294CFB681B6842F040021A60FB68DB68002BC8
S3150800295C6AD132E0FB681B689B6803F00103012B04
S3150800296C15D1FB681B6803F10C02FB689B6B12788C
S3150800297CD2B21A70FB689B6B5A1CFB689A63FB688D
S3150800298CDB8F9BB2013B9AB2FB68DA8715E0FEF740
S3150800299C7DFA02463B69D31A3A689A4203D83B68D1
S315080029ACB3F1FF3F02D13B68002B06D10323FB751D
S315080029BCFB68012283F8512051E0FB68DB8F9BB240
S315080029CC002BC7D135E0FB681B689B6803F0010335
S315080029DC012B13D1FB681B68DA68FB689B6B92B2F8
S315080029EC1A80FB689B6B9A1CFB689A63FB68DB8FE7
S315080029FC9BB2013B9AB2FB68DA8715E0FEF746FAFA
S31508002A0C02463B69D31A3A689A4203D83B68B3F133
S31508002A1CFF3F02D13B68002B06D10323FB75FB68ED
S31508002A2C012283F851201AE0FB68DB8F9BB2002B3E
S31508002A3CC9D13A693968F86800F060FA0346002B80
S31508002A4C02D0FB6820225A65FB685B6D002B02D00E
S31508002A5C0123FB7503E0FB68012283F85120FB6810
S31508002A6C002283F85020FB7D18461837BD4680BDDA
S31508002A7C80B58CB000AFF860B9607A607B800123B2
S31508002A8CFB62002387F82B30FB6893F85030012B38
S31508002A9C01D1022398E1FB68012283F85020FEF746
S31508002AACF5F97862FB6893F8513087F82330FB68A0
S31508002ABC5B68FB617B887B8397F82330012B0FD0EF
S31508002ACCFB69B3F5827F07D1FB689B68002B03D1A2
S31508002ADC97F82330042B03D0022387F82B306DE1AB
S31508002AECBB68002B05D07B68002B02D07B88002B9B
S31508002AFC03D1012387F82B3060E1FB6893F851303A
S31508002B0CDBB2042B03D0FB68052283F85120FB6843
S31508002B1C00225A65FB687A689A63FB687A88DA87B2
S31508002B2CFB687A889A87FB68BA681A63FB687A889E
S31508002B3CDA86FB687A889A86FB6800221A64FB6830
S31508002B4C00225A64FB681B681B6803F04003402B81
S31508002B5C07D0FB681B681A68FB681B6842F04002C2
S31508002B6C1A60FB68DB68B3F5006F7CD1FB685B68A1
S31508002B7C002B02D07B8B012B6AD1FB681B6B1A8846
S31508002B8CFB681B68DA60FB681B6B9A1CFB681A638C
S31508002B9CFB68DB8E9BB2013B9AB2FB68DA8657E080
S31508002BACFB681B689B6803F00203022B1BD1FB68AE
S31508002BBCDB8E9BB2002B16D0FB6A012B13D1FB685C
S31508002BCC1B6B1A88FB681B68DA60FB681B6B9A1C04
S31508002BDCFB681A63FB68DB8E9BB2013B9AB2FB68F7
S31508002BECDA860023FB62FB681B689B6803F001030B
S31508002BFC012B19D1FB68DB8F9BB2002B14D0FB6819
S31508002C0C1B68DA68FB689B6B92B21A80FB689B6B35
S31508002C1C9A1CFB689A63FB68DB8F9BB2013B9AB2E2
S31508002C2CFB68DA870123FB62FEF730F902467B6AFA
S31508002C3CD31ABA6B9A420BD8BB6BB3F1FF3F07D0CA
S31508002C4C032387F82B30FB68012283F85120B5E063
S31508002C5CFB68DB8E9BB2002BA2D1FB68DB8F9BB289
S31508002C6C002B9DD180E0FB685B68002B02D07B8B28
S31508002C7C012B6FD1FB681A6BFB681B680C33127837
S31508002C8C1A70FB681B6B5A1CFB681A63FB68DB8E95
S31508002C9C9BB2013B9AB2FB68DA865BE0FB681B6861
S31508002CAC9B6803F00203022B1CD1FB68DB8E9BB2DC
S31508002CBC002B17D0FB6A012B14D1FB681A6BFB6827
S31508002CCC1B680C3312781A70FB681B6B5A1CFB6852
S31508002CDC1A63FB68DB8E9BB2013B9AB2FB68DA86F9
S31508002CEC0023FB62FB681B689B6803F00103012B3E
S31508002CFC19D1FB68DB8F9BB2002B14D0FB681B68C1
S31508002D0CDA68FB689B6BD2B21A70FB689B6B5A1C11
S31508002D1CFB689A63FB68DB8F9BB2013B9AB2FB6834
S31508002D2CDA870123FB62FEF7B1F802467B6AD31AEF
S31508002D3CBA6B9A4203D8BB6BB3F1FF3F02D1BB6B9C
S31508002D4C002B07D1032387F82B30FB68012283F865
S31508002D5C512033E0FB68DB8E9BB2002B9ED1FB68BF
S31508002D6CDB8F9BB2002B99D17A6AB96BF86800F0A5
S31508002D7C17F90346002B06D0012387F82B30FB687E
S31508002D8C20225A651AE0FB689B68002B0AD100239F
S31508002D9C7B61FB681B68DB687B61FB681B689B684F
S31508002DAC7B617B69FB685B6D002B03D0012387F87D
S31508002DBC2B3003E0FB68012283F85120FB680022C4
S31508002DCC83F8502097F82B3018463037BD4680BD0F
S31508002DDC80B483B000AF78607B6893F85130DBB26F
S31508002DEC18460C37BD4680BC7047000080B588B0C5
S31508002DFC00AFF860B9603B601346FB71FEF746F806
S31508002E0C0246BB6A9B1A3A681344FB61FEF73EF806
S31508002E1CB861394B1B685B011B0DFA6902FB03F39E
S31508002E2C7B6154E03B68B3F1FF3F50D0FEF72EF8B8
S31508002E3C0246BB69D31AFA699A4202D9FB69002B76
S31508002E4C3DD1FB681B685A68FB681B6822F0E002D8
S31508002E5C5A60FB685B68B3F5827F11D1FB689B6887
S31508002E6CB3F5004F04D0FB689B68B3F5806F07D1A8
S31508002E7CFB681B681A68FB681B6822F040021A601C
S31508002E8CFB689B6AB3F5005F0FD1FB681B681A6871
S31508002E9CFB681B6822F400521A60FB681B681A68E8
S31508002EACFB681B6842F400521A60FB68012283F81F
S31508002EBC5120FB68002283F85020032317E07B6916
S31508002ECC002B01D10023FB617B69013B7B61FB680D
S31508002EDC1B689A68BB681340BA689A420CBF0123F0
S31508002EEC0023DBB21A46FB799A429BD1002318467B
S31508002EFC2037BD4680BD00BF0000002080B586B0D7
S31508002F0C02AFF860B9607A60FB685B68B3F5827FDC
S31508002F1C11D1FB689B68B3F5004F04D0FB689B681E
S31508002F2CB3F5806F07D1FB681B681A68FB681B68CA
S31508002F3C22F040021A60FB685B68B3F5827F17D1F2
S31508002F4CFB689B68B3F5806F12D17B680093BB68EE
S31508002F5C00220121F868FFF749FF0346002B1AD017
S31508002F6CFB685B6D43F02002FB685A65032313E08C
S31508002F7C7B680093BB6800228021F868FFF736FF50
S31508002F8C0346002B07D0FB685B6D43F02002FB68F9
S31508002F9C5A65032300E0002318461037BD4680BD4A
S31508002FAC80B586B002AFF860B9607A607B6800932A
S31508002FBCBB6800228021F868FFF718FF0346002B30
S31508002FCC07D0FB685B6D43F02002FB685A65032348
S31508002FDC00E0002318461037BD4680BDB0B48FB04C
S31508002FEC00AF786040F2B113FB62072387F83030E4
S31508002FFC072387F83130012387F83230FF2387F807
S3150800300C3630642387F837300823BB867B681D4621
S3150800301C07F10C040FCC0FC50FCC0FC594E80700AD
S3150800302C85E8070078683C37BD46B0BC704780B564
S3150800303C82B000AF78607B6898687B689B890022B1
S3150800304C1946FEF7E3F90120FDF72AFF7B68986815
S3150800305C7B689B8901221946FEF7D8F96420FDF78F
S3150800306C1FFF00BF0837BD4680BD80B584B000AFD2
S3150800307C786039600121786800F09EF90346BB73C5
S3150800308CBB7BFB733B68002B07D1BB7B23F00F0381
S3150800309CFB737B680022DA613EE03B68012B0CD19E
S315080030AC97F90E3023F00F035BB243F001035BB2C2
S315080030BCFB737B680122DA612EE03B68032B0CD18B
S315080030CC97F90E3023F00F035BB243F003035BB2A0
S315080030DCFB737B680322DA611EE03B68052B0CD177
S315080030EC97F90E3023F00F035BB243F005035BB27E
S315080030FCFB737B680522DA610EE03B68062B0BD165
S3150800310C97F90E3023F00F035BB243F006035BB25C
S3150800311CFB737B680622DA61FB7B1A460121786809
S3150800312C00F064F900BF1037BD4680BD80B584B089
S3150800313C00AFF860B9603B601346FB80FB68186803
S3150800314CFB689B8800221946FEF760F9FB689869AC
S3150800315CFA884FF4FA63B968FFF72FFA00BFFB68D1
S3150800316C9B691846FFF734FE0346012BF7D1FB681B
S3150800317C98693A8B4FF4FA633968FFF761FB00BF1D
S3150800318CFB689B691846FFF723FE0346012BF7D10C
S3150800319CFB681868FB689B8801221946FEF736F906
S315080031AC00BF1037BD4680BD80B584B000AFF8604F
S315080031BCB9603B601346FB80FB681868FB689B8804
S315080031CC00221946FEF722F9FB689869FA884FF42B
S315080031DCFA63B968FFF7F1F900BFFB689B691846F3
S315080031ECFFF7F6FD0346012BF7D1FB6898693A8B76
S315080031FC4FF4FA633968FFF7E0F900BFFB689B697F
S3150800320C1846FFF7E5FD0346012BF7D1FB6818684E
S3150800321CFB689B8801221946FEF7F8F800BF1037A1
S3150800322CBD4680BD80B584B000AF786039603B6818
S3150800323CDB045B11FB60FB681B0CFB72FB7A1A4602
S3150800324C0621786800F0D2F80520FDF729FEFB6800
S3150800325C1B0AFB72FB7A1A460721786800F0C6F837
S3150800326C0520FDF71DFEFB68FB72FB7A1A46082142
S3150800327C786800F0BBF80520FDF712FE00BF103782
S3150800328CBD4680BD80B584B000AF786039603B68B8
S3150800329C0C2B01DD0C233B603B68062B01DC07235A
S315080032AC3B601E21786800F087F80346FB730A20FA
S315080032BCFDF7F6FD3B68DBB21B01DAB2FB7B03F0CC
S315080032CC0F03DBB21344BB73BB7B1A461E2178680B
S315080032DC00F08CF80A20FDF7E3FD00BF1037BD4659
S315080032EC80BD80B582B000AF78600B46FB70FB786A
S315080032FC1A460921786800F079F80A20FDF7D0FDFE
S3150800330C00BF0837BD4680BD80B584B000AF786075
S3150800331C0B46FB700023FB73FB782C2B01D82D2353
S3150800332CFB70FB78F02B01D9F023FB70FB78782B1C
S3150800333C09D8FB782D3B124A82FB03125210DB1775
S3150800334CD31AFB730BE0FB78F02B08D8FB781E33EB
S3150800335C0B4A82FB03129210DB17D31AFB73FB7B07
S3150800336C2033FB73FB7B1A460B21786800F03EF87A
S3150800337C0A20FDF795FD00BF1037BD4680BD00BF7E
S3150800338C6766666680B584B000AF78601E2178687B
S3150800339C00F012F80346FB73FB7B43F00703BB7381
S315080033AC70221E21786800F021F80A20FDF778FDB6
S315080033BC00BF1037BD4680BD80B586B002AF7860B9
S315080033CC0B46FB70FB7803F07F03DBB2BB7307F18C
S315080033DC0F0307F10E010122009201227868FFF70C
S315080033ECA5FEFB7B18461037BD4680BD80B586B05A
S315080033FC02AF78600B46FB701346BB70FB7863F024
S3150800340C7F03DBB2BB73BB78FB7307F10F0307F1C2
S3150800341C0E010122009201227868FFF7C5FE00BF53
S3150800342C1037BD4680BD80B586B000AFF8607A60AF
S3150800343C1A460B46FB721346BB72FB7A63F07F0384
S3150800344CDBB2FB75FB681868FB689B88002219467B
S3150800345CFDF7DCFFFB68986907F117014FF4FA636F
S3150800346C0122FFF7AAF800BFFB689B691846FFF70D
S3150800347CAFFC0346012BF7D1FB689869BB7A9AB265
S3150800348C4FF4FA637968FFF798F800BFFB689B69F5
S3150800349C1846FFF79DFC0346012BF7D1FB68186805
S315080034ACFB689B8801221946FDF7B0FF00BF183749
S315080034BCBD4680BD80B483B000AF78600123184642
S315080034CC0C37BD4680BC704780B586B000AFF86037
S315080034DCB96011461A460B46FB711346BB80FB684E
S315080034ECDB697B610121F868FFF7BFFD0E21F868DF
S315080034FCFFF762FF0346FB7400220E21F868FFF7FC
S3150800350C75FFFB7C1A460D21F868FFF76FFFFB79F0
S3150800351C1A462221F868FFF769FFFB79BA68002179
S3150800352CF868FFF780FF0321F868FFF79EFD122164
S3150800353CF868FFF741FF0346FB74FB7C03F00803AE
S3150800354C002B0AD0FF221221F868FFF74FFF796982
S3150800355CF868FFF78AFD01230FE0BB88013BBB80A7
S3150800356CBB88002B05D17969F868FFF77EFD002327
S3150800357C03E00120FDF794FCD9E718461837BD4639
S3150800358C80BD90B589B000AFF860B9601346FB7181
S3150800359C0023FB770023BB6107E0BB69BA681344B9
S315080035AC00221A70BB690133BB61FB79BA699A426E
S315080035BCF3DB0121F868FFF758FD1221F868FFF7CD
S315080035CCFBFE0346FB74FB7C03F04003002B2FD059
S315080035DCFF221221F868FFF709FF1321F868FFF795
S315080035ECEBFE0346BB741021F868FFF7E5FE0346AD
S315080035FCFB74FB7C1A460D21F868FFF7F7FEBA7CBC
S3150800360CFB79934228BF1346FB7700237B610BE0BB
S3150800361C7B69BA68D4180021F868FFF7CDFE034613
S3150800362C23707B6901337B61FB7F7A699A42EFDBF6
S3150800363C0521F868FFF719FDFB7F18462437BD46A8
S3150800364C90BD80B584B000AF78607868FFF732FF1C
S3150800365C0346002B00F0988000217868FFF705FDDB
S3150800366C0A20FDF71DFC01217868FFF7A5FE034625
S3150800367CFB730A20FDF714FCFB7B63F07F03BB731B
S3150800368CBB7B1A4601217868FFF7B0FE6420FDF76C
S3150800369C07FC7B681B6A19467868FFF7C3FD7B68CD
S315080036AC93F82A3019467868FFF71BFE7B6893F85F
S315080036BC2B3019467868FFF727FE23220C217868E9
S315080036CCFFF794FE7868FFF75DFE7B6893F8243065
S315080036DC19467868FFF7D6FDFF221F217868FFF791
S315080036EC85FE0023BB737B6893F825301B01DAB281
S315080036FC7B6893F826305B00DBB21344BB73BB7B49
S3150800370C1A461D217868FFF771FE7B681B8D1B0A0C
S3150800371C9BB2DBB21A4620217868FFF767FE7B68F6
S3150800372C1B8DDBB21A4621217868FFF75FFE402114
S3150800373C7868FFF741FE0346FB73FB7B43F03F03B8
S3150800374CBB73BB7B1A4640217868FFF74FFE0121F5
S3150800375C7868FFF78AFC7B680122DA610A20FDF794
S3150800376C9FFB00220E217868FFF740FE42217868FD
S3150800377CFFF722FE0346FB73FB7B122B01D1C823F2
S3150800378C04E04FF4CA7301E040F2F71318461037F9
S3150800379CBD4680BD002310B50446C0E90033C0E918
S315080037AC0433836081814366C2818361194608228A
S315080037BC5C3000F0EDF9054B24626362044BA3629E
S315080037CC044BE362044B236310BD00BFED390008BC
S315080037DC0F3A0008473A00086B3A0008024A0349B0
S315080037EC034800F069B800BF0C0000202945000802
S315080037FC1800002041680C4B10B59942044601D0BC
S3150800380C00F08CFEA168094B994202D0204600F0C4
S3150800381C85FEE168064B994204D02046BDE8104067
S3150800382C00F07CBE10BD00BF78020020E00200202C
S3150800383C4803002010B50B4B0B4C0C4A20461A605B
S3150800384C04210022FFF7A6FF04F1680001220921D2
S3150800385CFFF7A0FF04F1D0000222BDE810401221A8
S3150800386CFFF798BFB003002078020020E93700085C
S3150800387C014800F005BA00BFB9030020014800F062
S3150800388C00BA00BFB903002010B50446FFF7F0FFD5
S3150800389C236A1BB1BDE81040FFF7F0BF044B236247
S315080038AC044B1B68002BF5D1FFF7C4FFF2E700BFEA
S315080038BC01380008B00300202DE9F843074688466E
S315080038CC14460026D4E90195B9F1010905D52468F1
S315080038DC002CF7D13046BDE8F883AB89012B07D904
S315080038ECB5F90E30013303D029463846C04706438E
S315080038FC6835E9E70FB407B5064904AB086853F809
S3150800390C042B8168019300F0D9FA03B05DF804EB37
S3150800391C04B0704764000020024B014618688268A0
S3150800392C00F085BE64000020036A70B505460E4695
S3150800393C84680BB9FFF7A8FF636EDB0705D4A38968
S3150800394C980502D4A06D00F09BF9A389190713D525
S3150800395C23698BB1013EA36816F8011F013BA360CE
S3150800396CE9B9002B2EDA22460A21284600F07BF804
S3150800397C013007D00A2507E02146284600F0B0F8A2
S3150800398C0028E7D04FF0FF35636EDA0705D4A38914
S3150800399C9B0502D4A06D00F074F9284670BD002B67
S315080039AC04DAA2699A4206DC0A2904D023685A1C4E
S315080039BC22601970CFE72246284600F054F80130E9
S315080039CCC9D1DFE70A2523685A1C22601D70DBE77C
S315080039DC024B01461868FFF7A7BF00BF640000201A
S315080039EC10B50C46B1F90E1000F0FCF80028ABBF68
S315080039FC636DA3891B1823F48053ACBF6365A3813D
S31508003A0C10BD2DE9F0411F468B890546DB050C4692
S31508003A1C164605D502230022B1F90E1000F0D0F88F
S31508003A2CA389324623F48053A38128463B46B4F92E
S31508003A3C0E10BDE8F04100F0E7B810B50C46B1F928
S31508003A4C0E1000F0BDF8431CA38915BF606523F45E
S31508003A5C805343F48053A38118BFA38110BDB1F9D9
S31508003A6C0E1000F09DB8F8B50E461446054618B16A
S31508003A7C036A0BB9FFF708FFA369A360A3891A07A2
S31508003A8C25D523691BB323682269F6B2981A63698C
S31508003A9C3746834204DC2146284600F03FFDE0B950
S31508003AACA368013BA36023685A1C22601E706269D6
S31508003ABC431C9A4204D0A389DB0706D50A2E04D1E7
S31508003ACC2146284600F02AFD38B93846F8BD214665
S31508003ADC284600F005F80028D5D04FF0FF37F4E754
S31508003AEC38B52A4B054618680C4618B1036A0BB943
S31508003AFCFFF7CAFEA389B4F90C20180722D4D906F5
S31508003B0C07D409232B6042F040034FF0FF30A38102
S31508003B1C34E0580712D5616B41B104F1440399425C
S31508003B2C02D0284600F0AEF800236363A38923F07D
S31508003B3C2403A3810023636023692360A38943F0CC
S31508003B4C0803A38123694BB9A38903F42073B3F53E
S31508003B5C007F03D02146284600F02DFDA089B4F934
S31508003B6C0C2010F001030AD00023A36063695B42A2
S31508003B7CA361236943B910F08000C4D138BD81070D
S31508003B8C58BF6369A360F4E70020F7E764000020D8
S31508003B9C03460244934200D1704703F8011BF9E728
S31508003BAC38B50023054D044608462B60FDF783F807
S31508003BBC431C02D12B6803B1236038BDB403002023
S31508003BCC38B50446084611460022054D2A601A46A1
S31508003BDCFDF795F8431C02D12B6803B1236038BD59
S31508003BECB403002038B50446084611460022054D94
S31508003BFC2A601A46FDF742F8431C02D12B6803B11A
S31508003C0C236038BDB403002038B50446084611466F
S31508003C1C0022054D2A601A46FCF7B8FA431C02D155
S31508003C2C2B6803B1236038BDB4030020014B186818
S31508003C3C704700BF6400002070B500260C4D0D4C73
S31508003C4C641BA410A64209D100F066FD00260A4D95
S31508003C5C0A4C641BA410A64205D170BD55F8043B4A
S31508003C6C98470136EEE755F8043B98470136F2E7D4
S31508003C7CDC490008DC490008DC490008E049000872
S31508003C8C7047704738B50546002940D051F8043CB2
S31508003C9C0C1F002BB8BFE41800F0DCF81C4A13689C
S31508003CAC33B9636014602846BDE8384000F0D8B8CC
S31508003CBCA34208D9206821188B4201BF19685B6892
S31508003CCC09182160EDE71A465B680BB1A342FAD9CD
S31508003CDC11685018A0420BD1206801445018834231
S31508003CEC1160E0D118685B68084410605360DAE725
S31508003CFC02D90C232B60D6E7206821188B4201BF0A
S31508003D0C19685B680918216063605460CBE738BD95
S31508003D1CBC03002070B50E4E0C463168054611B929
S31508003D2C00F0DCFC30602146284600F0D7FC431C2A
S31508003D3C0AD0C41C24F00304A04207D0211A284632
S31508003D4C00F0CCFC013001D14FF0FF34204670BD99
S31508003D5CC00300202DE9F843CD1C25F003050835D2
S31508003D6C0C2D38BF0C25002D074601DBA94205D9B9
S31508003D7C0C2300263B603046BDE8F883DFF8D0807C
S31508003D8C00F068F8D8F800301C465CBB2946384663
S31508003D9CFFF7C0FF431C044655D1D8F80040264609
S31508003DAC002E45D1002C48D023683146384604EB02
S31508003DBC030900F093FC81453FD1216838466D1AFA
S31508003DCC2946FFF7A7FF013037D023682B44236019
S31508003DDCD8F80030002B38D05A68A2422BD10022D2
S31508003DEC5A600FE02268521B1FD40B2A17D9611987
S31508003DFCA342256018BF5960636808BFC8F800104D
S31508003E0C62514B60384604F10B0600F029F826F08F
S31508003E1C0706231DF21AAED09B1BA350ABE7A34291
S31508003E2C6268DDD1C8F80020ECE723466468ACE785
S31508003E3C34467668B4E71346CCE70C2338463B6021
S31508003E4C00F00EF897E72560DCE75B60FFDE00BF45
S31508003E5CBC0300200148FFF713BF00BFB8030020BE
S31508003E6C0148FFF70EBF00BFB8030020936810B4D3
S31508003E7C013B002B936007DA9469A34201DB0A29FC
S31508003E8C02D110BCFFF7EFBD1368581C10601970EF
S31508003E9C084610BC7047F8B506460F461446D518A2
S31508003EACAC4201D1002007E03A46304614F8011B13
S31508003EBCFFF7DCFF431CF3D1F8BD00002DE9F04FEA
S31508003ECC0D461446984606469DB018B1036A0BB9BA
S31508003EDCFFF7DAFC6B6ED90705D4AB899A0502D4C1
S31508003EECA86DFFF7CDFEAB891B0701D52B699BB9CE
S31508003EFC29463046FFF7F4FD70B16B6EDC0704D526
S31508003F0C4FF0FF301DB0BDE8F08FAB899805F7D49C
S31508003F1CA86DFFF7B6FEF3E70023099320238DF867
S31508003F2C293030234FF00109CDF80C80DFF8AC812D
S31508003F3C8DF82A3023469A4613F8012B0AB1252AFE
S31508003F4CF9D1BAEB040B0BD05B4622462946304610
S31508003F5CFFF7A1FF013000F0A980099A5A4409928B
S31508003F6C9AF80030002B00F0A18000234FF0FF32A6
S31508003F7CCDE905230AF1010A049307938DF853300A
S31508003F8C1A935446052214F8011B544800F0B6FB44
S31508003F9C049AD8B9D10644BF20238DF85330130799
S31508003FAC44BF2B238DF853309AF800302A2B15D0A2
S31508003FBC544600204FF00A0C079A214611F8013B8B
S31508003FCC303B092B4DD9B0B1079214E0A0EB08038E
S31508003FDC09FA03F31343A2460493D2E7039B191D6C
S31508003FEC1B680391002BBBBF5B4242F0020207938E
S31508003FFC0793B8BF049223782E2B0CD163782A2BFF
S3150800400C34D1039B02341A1D1B680392002BB8BFCC
S3150800401C4FF0FF330593DFF8C8A0032250462178EA
S3150800402C00F06CFB38B14022049BA0EB0A008240DE
S3150800403C13430134049314F8011B062229488DF8FE
S3150800404C281000F05BFB00283FD0274B1BBB039BBB
S3150800405C073323F0070308330393099B3B4409935F
S3150800406C68E70C4601200CFB0232A6E700234FF04A
S3150800407C0A0C194601340593204610F8012B303AE0
S3150800408C092A03D9002BC6D00591C4E70446012397
S3150800409C0CFB0121F0E703AB00932A463046134B81
S315080040AC04A9AFF300800746781CD6D16B6ED907E6
S315080040BC05D4AB899A0502D4A86DFFF7E2FDAB8946
S315080040CC5B063FF51DAF09981CE703AB00932A4620
S315080040DC3046064B04A900F07DF8E4E7A64900082B
S315080040ECAC490008B049000800000000A33E0008CF
S315080040FC2DE9F047164699468A680B690746934296
S3150800410CB8BF1346336091F843200C46DDF820807F
S3150800411C0AB1013333602368990642BF3368023308
S3150800412C3360256815F0060506D104F1190AE3680B
S3150800413C32689B1AAB422BDC94F84320131E226878
S3150800414C18BF0123920630D44946384604F1430277
S3150800415CC047013023D02368226903F00603042BD9
S3150800416C14BF002533684FF0000608BFE56804F154
S3150800417C1A0408BFED1A54F8123C08BF25EAE5756F
S3150800418C9342C4BF9B1AED18B5421AD1002008E019
S3150800419C0123524649463846C047013003D14FF0F1
S315080041ACFF30BDE8F0870135C1E73020E11881F80A
S315080041BC43005A1C94F845102244023382F84310E3
S315080041CCC2E70123224649463846C0470130E6D0A5
S315080041DC0136D9E72DE9FF470F7E9146782F8046A1
S315080041EC0C469A460C9D01F1430207D8622F0AD851
S315080041FC002F00F0D580582F00F0C18004F142053D
S3150800420C84F842703AE0A7F16303152BF6D801A19E
S3150800421C51F823F0794200088D420008094200083B
S3150800422C0942000809420008094200088D420008A4
S3150800423C0942000809420008094200080942000818
S3150800424C93430008B94200084D4300080942000888
S3150800425C09420008B543000809420008B94200089B
S3150800426C0942000809420008554300082B681A1D24
S3150800427C1B682A6004F1420584F842300123A0E049
S3150800428C20682B68070603F10401296001D51E680E
S3150800429C03E04606FBD5B3F90060002E03DA2D239E
S315080042AC764284F843300A23594812E02B68206872
S315080042BC191D2960050601D51E6802E04106FBD5C5
S315080042CC1E886F2F0CBF08230A235148002184F837
S315080042DC43106568002DA8BF2168A560A4BF21F00E
S315080042EC040121600EB9002D4BD01546B6FBF3F12F
S315080042FC03FB1167C75D05F8017D3746BB420E46C1
S3150800430CF4D9082B0BD12368DE0708D52369616815
S3150800431C9942DEBF302305F8013C05F1FF35521BE7
S3150800432C22614B4621464046CDF800A003AAFFF76A
S3150800433CDFFE01304AD14FF0FF3004B0BDE8F087FC
S3150800434C236843F0200323607827324884F84570A5
S3150800435C236829681F0651F8046B02D45F0648BF08
S3150800436CB6B2DF0748BF43F02003296048BF236075
S3150800437C1EB9236823F0200323601023A6E72448DC
S3150800438CE4E71546BDE72B682668181D61692860A1
S3150800439C35061B6801D5196002E07006FBD5198035
S315080043AC002315462361BCE72B6800211A1D2A60D9
S315080043BC1D686268284600F0A1F908B1401B6060C8
S315080043CC63682361002384F84330AAE72A464946E2
S315080043DC40462369D0470130ADD023689B0713D4D8
S315080043ECE068039B9842B8BF1846A6E701233246F5
S315080043FC49464046D04701309DD00135E3680399BC
S3150800440C5B1AAB42F2DCEBE7002504F11906F5E77B
S3150800441CB7490008C84900088A89F8B5054610073F
S3150800442C0C4657D44B68002B04DC0B6C002B01DCB8
S3150800443C0020F8BDE66A002EFAD0002312F480524A
S3150800444C2F68216A2B6032D0606DA3895A0705D56F
S3150800445C6368C01A636B0BB1236CC01A002302463F
S3150800446CE66A2846216AB047431CA38906D12968FF
S3150800447C1D292BD8284A0A41D60727D40022626060
S3150800448C2269D904226004D5421C01D12B6803B9D0
S3150800449C6065616B2F600029CAD004F14403994208
S315080044AC02D02846FFF7EEFB00206063C1E7012324
S315080044BC2846B047411CC8D12B68002BC5D01D2BEC
S315080044CC01D0162B01D12F60B2E7A38943F0400324
S315080044DCA381AEE70F69002FAAD0930718BF002354
S315080044EC0E6808BF4B69F61B0F608B60002E9FDDAC
S315080044FC33463A462846216AD4F828C0E0470028AD
S3150800450C06DCA3894FF0FF3043F04003A38190E704
S3150800451C0744361AEAE700BFFEFFBFDF38B50B695A
S3150800452C05460C4613B90025284638BD18B1036A4A
S3150800453C0BB9FFF7A9F9B4F90C30002BF3D0626E5E
S3150800454CD00704D4990502D4A06DFFF799FB284629
S3150800455C2146FFF761FF636E0546DA07E4D4A389A3
S3150800456C9B05E1D4A06DFFF78CFBDDE770B50C4617
S3150800457CB1F90E10154600291E4696B00CDAA38919
S3150800458C002113F0800F0CBF4FF4806340230020EA
S3150800459C31602B6016B070BD6A4600F07DF80028B5
S315080045ACEDDB019901F47041A1F5005359425941CB
S315080045BC4FF48063EBE78B8973B59D0706460C466B
S315080045CC07D504F14703236023610123636102B015
S315080045DC70BD6A4601ABFFF7C9FF00990546304620
S315080045ECFFF7B8FB48B9B4F90C309A05EFD423F0A9
S315080045FC030343F00203A381E3E7A389206043F096
S3150800460C8003A381009B20616361019B5BB13046EB
S3150800461CB4F90E1000F052F828B1A38923F003035D
S3150800462C43F00103A381A3891D43A581CFE770B588
S3150800463C0D461446064618B1036A0BB9FFF724F95A
S3150800464C636ED80705D4A389990502D4A06DFFF724
S3150800465C17FBA368013B002BA36005DAA2699342FA
S3150800466C12DBEBB20A2B0FD023685A1C22601D7082
S3150800467CEDB2636EDA0705D4A3899B0502D4A06D47
S3150800468CFFF7FFFA284670BD294622463046FFF743
S3150800469CEAF90546EDE7000038B50023064D044651
S315080046AC084611462B60FCF711FB431C02D12B68FC
S315080046BC03B1236038BD00BFB403002038B500230E
S315080046CC054D044608462B60FCF70FFB431C02D12C
S315080046DC2B6803B1236038BDB403002038B500231A
S315080046EC054D044608462B60FCF716FB431C02D105
S315080046FC2B6803B1236038BDB4030020034610B5FC
S3150800470CC9B202449342184601D1002003E004784A
S3150800471C01338C42F6D110BDF8B500BFF8BC08BC05
S3150800472C9E467047F8B500BFF8BC08BC9E46704755
S3150800473C4D41494E3D3D3E52554E4E4947000000AF
S3150800474C25692D2D25640A00434845434B20504FB7
S3150800475C494E542035000000234F52472320492048
S3150800476C414D2052554E4E494E47212D21000000F1
S3150800477C5245434549564500526563656976652039
S3150800478C446174610000000025756C00434845437C
S3150800479C4B205254435F43524C5F414C52472025A1
S315080047AC640A00004348454B43205254435F204457
S315080047BC4956482025642C20616E64204449564C81
S315080047CC3A2025640A2000004348454B432052549E
S315080047DC435F20434E5448202025642C20616E6488
S315080047EC20434E544C3A2025640A00004348454B56
S315080047FC43205254435F20414E524C3A2025642C98
S3150800480C20616E6420414E52483A2025640A000005
S3150800481C416C74657220616C726D00002347524EB0
S3150800482C23474F20544F205354414E44204259217C
S3150800483C2D2100004348454B4320504F494E5420E8
S3150800484C2D313A2025640A0048617665206120706E
S3150800485C726F626C656D20666F7220636F6E6E6523
S3150800486C6374696E67207468652045787465726E22
S3150800487C616C204372797374616C20436C6F636B43
S3150800488C210000004348454B4320504F494E5420C5
S3150800489C303A2025640A000048414C5F4C315F438E
S315080048AC6865636B2052544F464600004348454B97
S315080048BC4320504F494E5420313A2025640A0000B3
S315080048CC4348454B4320504F494E5420323A2025F5
S315080048DC640A00004348454B4320504F494E542028
S315080048EC333A2025640A00004348454B4320504F71
S315080048FC494E5420343A2025640A000048414C5F3E
S3150800490C4C325F4F6E676F696E6720696E206F74E5
S3150800491C68657220636F6D6D616E640A202564008C
S3150800492C446F6E6520636F6E66696775726174692C
S3150800493C6F6E205254430000456E746572696E673B
S3150800494C205374616E64427900000000235245447A
S3150800495C232043616C6C6261636B000000000000ED
S3150800496C0000000001020304060708090000000005
S3150800497C0102030402030405060708090A0B0C0DB9
S3150800498C0E0F1010010200000203040506070809A1
S3150800499C0A0B0C0D0E0F10100102232D302B2000C4
S315080049AC686C4C00656667454647003031323334CF
S315080049BC353637383941424344454600303132336F
S315080049CC3435363738396162636465660000000031
S309080049DC310100088F
S309080049E00D010008AF
S315080049E40024F4001000000001000000000000008C
S315080049F4030000007802002000000000780200206E
S31508004A04E002002048030020000000000000000027
S31508004A140000000000000000000000000000000084
S31508004A240000000000000000000000000000000074
S31508004A340000000000000000000000000000000064
S30D08004A44000000001800002024
S70508000D9D48
