S01A000042494E5F53797374656D5F4C6F526157414E2E737265639A
S31508000000005000209D1900082D1800083318000814
S31508000010391800083F1800084518000800000000B5
S315080000200000000000000000000000004B18000857
S315080000305718000800000000631800086F18000829
S31508000040E5190008E5190008E5190008E51900088A
S31508000050E5190008E5190008E51900087B180008E5
S31508000060E5190008E5190008E5190008E51900086A
S31508000070E5190008E5190008E5190008E51900085A
S31508000080E5190008E5190008E5190008E51900084A
S31508000090E5190008E5190008E5190008E51900083A
S315080000A0E5190008E5190008E5190008E51900082A
S315080000B0E5190008E5190008E5190008E51900081A
S315080000C0E5190008E5190008E5190008E51900080A
S315080000D0E5190008E5190008E5190008E5190008FA
S315080000E0E5190008E5190008E519000800000000F0
S315080000F000000000000000000000000000000000F2
S3110800010000000000000000005FF808F195
S3150800011010B5054C237833B9044B13B10448AFF333
S3150800012000800123237010BD680000200000000035
S31508000130C070000808B5034B1BB103490348AFF369
S31508000140008008BD000000006C000020C070000898
S3150800015081F0004102E000BF83F0004330B54FEA6A
S3150800016041044FEA430594EA050F08BF90EA020FD7
S315080001701FBF54EA000C55EA020C7FEA645C7FEA6A
S31508000180655C00F0E2804FEA5454D4EB5555B8BF8D
S315080001906D420CDD2C4480EA020281EA030382EAFE
S315080001A0000083EA010180EA020281EA0303362D90
S315080001B088BF30BD11F0004F4FEA01314FF4801C63
S315080001C04CEA113102D0404261EB410113F0004F75
S315080001D04FEA03334CEA133302D0524263EB43032C
S315080001E094EA050F00F0A780A4F10104D5F1200ECA
S315080001F00DDB02FA0EFC22FA05F2801841F1000125
S3150800020003FA0EF2801843FA05F359410EE0A5F1F8
S3150800021020050EF1200E012A03FA0EFC28BF4CF029
S31508000220020C43FA05F3C01851EBE37101F00045DF
S3150800023007D54FF0000EDCF1000C7EEB00006EEBEC
S315080002400101B1F5801F1BD3B1F5001F0CD3490876
S315080002505FEA30004FEA3C0C04F101044FEA4452CD
S3150800026012F5800F80F09A80BCF1004F08BF5FEA54
S31508000270500C50F1000041EB045141EA050130BD34
S315080002805FEA4C0C404141EB0101013C28BFB1F546
S31508000290801FE9D291F0000F04BF01460020B1FA91
S315080002A081F308BF2033A3F10B03B3F120020CDA64
S315080002B00C3208DD02F1140CC2F10C0201FA0CF042
S315080002C021FA02F10CE002F11402D8BFC2F1200CA7
S315080002D001FA02F120FA0CFCDCBF41EA0C0190405D
S315080002E0E41AA2BF01EB0451294330BD6FEA0404A6
S315080002F01F3C1CDA0C340EDC04F11404C4F1200291
S3150800030020FA04F001FA02F340EA030021FA04F3A2
S3150800031045EA030130BDC4F10C04C4F1200220FAF9
S3150800032002F001FA04F340EA0300294630BD21FA37
S3150800033004F0294630BD94F0000F83F4801306BFFD
S3150800034081F480110134013D4EE77FEA645C18BFF1
S315080003507FEA655C29D094EA050F08BF90EA020F88
S3150800036005D054EA000C04BF1946104630BD91EA80
S31508000370030F1EBF0021002030BD5FEA545C05D183
S315080003804000494128BF41F0004130BD14F58004C2
S315080003903CBF01F5801130BD01F0004545F0FE4136
S315080003A041F470014FF0000030BD7FEA645C1ABF6B
S315080003B0194610467FEA655C1CBF0B46024650EAA2
S315080003C0013406BF52EA033591EA030F41F40021CE
S315080003D030BD00BF90F0000F04BF0021704730B554
S315080003E04FF4806404F132044FF000054FF0000129
S315080003F050E700BF90F0000F04BF0021704730B5EA
S315080004004FF4806404F1320410F0004548BF4042BE
S315080004104FF000013EE700BF42004FEAE2014FEA13
S3150800042031014FEA02701FBF12F07F4393F07F4FEE
S3150800043081F06051704732F07F4208BF704793F0F1
S315080004407F4F04BF41F40021704730B54FF4607404
S3150800045001F0004521F000411CE700BF50EA010207
S3150800046008BF704730B54FF000050AE050EA0102B0
S3150800047008BF704730B511F0004502D5404261EB20
S3150800048041014FF4806404F132045FEA915C3FF461
S31508000490D8AE4FF003025FEADC0C18BF03325FEAFE
S315080004A0DC0C18BF033202EBDC02C2F1200300FAAF
S315080004B003FC20FA02F001FA03FE40EA0E0021FAD4
S315080004C002F11444BDE600BF4FF0FF3C06E000BF52
S315080004D04FF0010C02E000BF4FF0010C4DF804CDBF
S315080004E04FEA410C7FEA6C5C4FEA430C18BF7FEA7F
S315080004F06C5C1BD001B050EA410C0CBF52EA430CAD
S3150800050091EA030F02BF90EA020F0020704710F12C
S31508000510000F91EA030F58BF994208BF90422CBFBB
S31508000520D8176FEAE37040F0010070474FEA410CB4
S315080005307FEA6C5C02D150EA013C07D14FEA430CD2
S315080005407FEA6C5CD6D152EA033CD3D05DF8040B43
S31508000550704700BF8446104662468C461946634675
S3150800056000E000BF01B5FFF7B7FF002848BF10F14C
S31508000570000F01BD4DF808EDFFF7F4FF0CBF012091
S3150800058000205DF808FB00BF4DF808EDFFF7EAFF0D
S3150800059034BF012000205DF808FB00BF4DF808EDC8
S315080005A0FFF7E0FF94BF012000205DF808FB00BFBD
S315080005B04DF808EDFFF7CEFF94BF012000205DF847
S315080005C008FB00BF4DF808EDFFF7C4FF34BF012054
S315080005D000205DF808FB00BF4FF0FF0C1CEAD05264
S315080005E01EBF1CEAD15392EA0C0F93EA0C0F6FD088
S315080005F01A4480EA010C400218BF5FEA41211ED066
S315080006004FF0006343EA501043EA5111A0FB013151
S315080006100CF00040B1F5000F3EBF490041EAD37126
S315080006205B0040EA010062F17F02FD2A1DD8B3F1A2
S31508000630004F40EBC25008BF20F00100704790F011
S31508000640000F0CF0004C08BF49024CEA502040EA63
S3150800065051207F3AC2BFD2F1FF0340EAC250704729
S3150800066040F400004FF00003013A5DDC12F1190F67
S31508000670DCBF00F000407047C2F10002410021FAD9
S3150800068002F1C2F1200200FA02FC5FEA310040F1F1
S31508000690000053EA4C0308BF20EADC70704792F06A
S315080006A0000F00F0004C02BF400010F4000F013AA2
S315080006B0F9D040EA0C0093F0000F01F0004C02BF9D
S315080006C0490011F4000F013BF9D041EA0C018FE70C
S315080006D00CEAD15392EA0C0F18BF93EA0C0F0AD012
S315080006E030F0004C18BF31F0004CD8D180EA010038
S315080006F000F00040704790F0000F17BF90F0004FD1
S31508000700084691F0000F91F0004F14D092EA0C0FB2
S3150800071001D142020FD193EA0C0F03D14B0218BF45
S31508000720084608D180EA010000F0004040F0FE408B
S3150800073040F40000704740F0FE4040F44000704727
S315080007404FF0FF0C1CEAD0521EBF1CEAD15392EAA6
S315080007500C0F93EA0C0F69D0A2EB030280EA010C96
S3150800076049024FEA402037D04FF0805343EA11112F
S3150800077043EA10130CF000408B4238BF5B0042F18D
S315080007807D024FF4000C8B4224BF5B1A40EA0C0032
S31508000790B3EB510F24BFA3EB510340EA5C00B3EB64
S315080007A0910F24BFA3EB910340EA9C00B3EBD10F52
S315080007B024BFA3EBD10340EADC001B0118BF5FEAA4
S315080007C01C1CE0D1FD2A3FF650AF8B4240EBC250CD
S315080007D008BF20F0010070470CF0004C4CEA50208E
S315080007E07F32C2BFD2F1FF0340EAC250704740F4DD
S315080007F000004FF00003013A37E792F0000F00F0CF
S31508000800004C02BF400010F4000F013AF9D040EA4C
S315080008100C0093F0000F01F0004C02BF490011F4E0
S31508000820000F013BF9D041EA0C0195E70CEAD153D8
S3150800083092EA0C0F08D142027FF47DAF93EA0C0FBF
S315080008407FF470AF084676E793EA0C0F04D14B02A3
S315080008503FF44CAF08466EE730F0004C18BF31F055
S31508000860004CCAD130F000427FF45CAF31F000434F
S315080008707FF43CAF5FE700BF4FF0FF3C06E000BFE8
S315080008804FF0010C02E000BF4FF0010C4DF804CD0B
S315080008904FEA40024FEA41037FEA226C18BF7FEA1B
S315080008A0236C11D001B052EA530C18BF90EA010F1D
S315080008B058BFB2EB030088BFC81738BF6FEAE170AC
S315080008C018BF40F0010070477FEA226C02D15FEA48
S315080008D0402C05D17FEA236CE4D15FEA412CE1D0B4
S315080008E05DF8040B704700BF844608466146FFE77B
S315080008F00FB5FFF7C9FF002848BF10F1000F0FBD5D
S315080009004DF808EDFFF7F4FF0CBF012000205DF855
S3150800091008FB00BF4DF808EDFFF7EAFF34BF0120DA
S3150800092000205DF808FB00BF4DF808EDFFF7E0FF73
S3150800093094BF012000205DF808FB00BF4DF808EDC4
S31508000940FFF7D2FF94BF012000205DF808FB00BF27
S315080009504DF808EDFFF7C8FF34BF012000205DF809
S3150800096008FB00BF42000ED2B2F1FE4F0BD34FF088
S315080009709E03B3EB126209D44FEA002343F0004307
S3150800098023FA02F070474FF00000704712F1610F2A
S3150800099001D1420202D14FF0FF3070474FF00000FC
S315080009A0704700BF80B483B000AF78604FF06043F3
S315080009B0D3F8803E03F00103002B13D04FF06043B9
S315080009C0D3F8003E03F00103002B0BD000E000BF74
S315080009D04FF060431B68002BF9D04FF060437A68EC
S315080009E0D2B21A707B6818460C37BD4680BC704771
S315080009F080B586B000AFF860B9607A6000237B6185
S31508000A0009E0BB685A1CBA601B781846FFF7CAFF8C
S31508000A107B6901337B617A697B689A42F1DB7B6883
S31508000A2018461837BD4680BDB0B590B000AF9E4891
S31508000A3005F094FC00F0D8FF00F0F2F900F00AFB8C
S31508000A4000F07AFA00F0A6FA00F0DAFA00F046FAB0
S31508000A50964800F0FFFC00F093FB954C3B46184681
S31508000A6003F0B6FE25463C460FCC0FC50FCC0FC586
S31508000A7094E8070085E807008D4B8E4A9A618C4BEF
S31508000A808D4A1A608A4B10229A80894B8B4A9A6043
S31508000A90874B01229A81864B874A1A61844B022228
S31508000AA09A82834B40F2B1121A62814B072283F86D
S31508000AB024207F4B072283F825207D4B012283F8CB
S31508000AC026207B4BF62283F82A20794B782283F856
S31508000AD02B20774B08221A85754803F0A2FE744826
S31508000AE004F0A9F903467B87002387F83F3012E014
S31508000AF097F83F4097F83F3019466D4804F056F886
S31508000B0003461A4621466E4805F0BAFB97F83F3069
S31508000B10013387F83F3097F93F30002BE8DA7B8FAF
S31508000B20C82B0DD101222021644801F075FA6420F2
S31508000B3000F0BCFF00222021604801F06DFA1CE09D
S31508000B40002387F83E3014E0012220215B4801F09B
S31508000B5063FA642000F0AAFF00222021574801F01A
S31508000B605BFA642000F0A2FF97F83E30013387F85D
S31508000B703E3097F83E300A2BE6D9524805F0EEFB90
S31508000B80514805F0EBFB514B1B68504A43F00403F0
S31508000B90136000F07DFC03463B873B8F19464C48A3
S31508000BA005F06EFB00F020FC00F024FC00F028FCA9
S31508000BB0484B00221A713A8F474BA3FB0213D908F8
S31508000BC00B469B000B445B00D31A9BB2DBB2303357
S31508000BD0DAB2404BDA703B8F3F4AA2FB0323DB08AD
S31508000BE09AB23D4BA3FB0213D9080B469B000B4454
S31508000BF05B00D31A9BB2DBB23033DAB2354B9A704C
S31508000C003B8F364AA2FB03235B099AB2324BA3FBFE
S31508000C100213D9080B469B000B445B00D31A9BB200
S31508000C20DBB23033DAB22B4B5A703B8F2C4AA2FB1D
S31508000C3003239B099AB2284BA3FB0213D9080B4638
S31508000C409B000B445B00D31A9BB2DBB23033DAB29B
S31508000C50204B1A70234805F081FB002387F83D30A6
S31508000C6050E04FF47A7305221A49114804F026F821
S31508000C70034687F8373097F83730002B36D01A48AE
S31508000C8005F0FEFA012220210C4801F0C5F964207E
S31508000C9000F00CFF00222021084801F0BDF964206D
S31508000CA000F004FF25E000BFD8700008840000208B
S31508000CB0CC0100202C01002000080140000C014056
S31508000CC0E8700008F0700008007100080070004025
S31508000CD01871000878020020CDCCCCCC1F85EB51CA
S31508000CE0D34D621038710008447100083F4805F07A
S31508000CF035FB4FF47A7000F0D9FE97F83D30013392
S31508000D0087F83D3097F83D30022BAAD94FF4FA60A0
S31508000D1000F0CCFE80223649364804F02CF83648D6
S31508000D2005F01CFB324B1B78002B17D0334805F017
S31508000D3015FB2F4B1B781946314805F0A1FA2C4BA9
S31508000D401B78184605F0AEFA294B5B78184605F06D
S31508000D50A9FA80220021264805F0E0FB00F038FBBE
S31508000D60642000F0A3FE274B5B6803F002031946D4
S31508000D70254805F085FA234B1B69224A526919460C
S31508000D80224805F07DFA1F4B9B691E4AD26919460F
S31508000D901F4805F075FA1B4B1B6A1A4A526A194610
S31508000DA01C4805F06DFA174B5B6803F00203002B2D
S31508000DB03FF4E6AE184805F063FA124B5B68114A31
S31508000DC023F00203536000F0C5FA01224FF4807144
S31508000DD0124801F021F9642000F068FE00224FF461
S31508000DE080710E4801F018F9CAE600BF587100086C
S31508000DF0F8010020CC010020707100087871000805
S31508000E0088710008002800408C710008A471000849
S31508000E10C8710008EC71000810720008000C014047
S31508000E2080B594B000AF07F12803282200211846A0
S31508000E3005F074FB07F1140300221A605A609A60E1
S31508000E40DA601A613B1D00221A605A609A60DA60FD
S31508000E500923BB624FF48033FB6200233B63012303
S31508000E60BB6301233B6402237B644FF48033BB647A
S31508000E704FF4E013FB6407F12803184602F070F9F3
S31508000E800346002B01D000F097FB0F237B6102235A
S31508000E90BB610023FB614FF480633B6200237B62E6
S31508000EA007F114030221184602F0DCFB0346002B67
S31508000EB001D000F081FB01237B604FF40073BB6017
S31508000EC03B1D184602F05CFD0346002B01D000F0DE
S31508000ED073FB00BF5037BD4680BD000080B500AF2C
S31508000EE0124B134A1A60114B124A5A600F4B0022D2
S31508000EF09A600E4B0022DA600C4B4FF480421A615E
S31508000F000A4B00225A61094B00229A61074B0022BC
S31508000F10DA61064B00221A62044801F0C7F8034654
S31508000F20002B01D000F048FB00BF80BD84000020E4
S31508000F3000540040A086010080B500AF124B134A4A
S31508000F401A60114B124A5A600F4B00229A600E4BD8
S31508000F500022DA600C4B4FF480421A610A4B0022D9
S31508000F605A61094B00229A61074B0022DA61064B47
S31508000F7000221A62044801F099F80346002B01D0B2
S31508000F8000F01AFB00BF80BDD800002000580040C2
S31508000F90A086010080B500AF174B184A1A60164B99
S31508000FA04FF482725A60144B00229A60124B002248
S31508000FB0DA60114B00221A610F4B00225A610E4B60
S31508000FC04FF400729A610C4B1022DA610A4B002228
S31508000FD01A62094B00225A62074B00229A62064B94
S31508000FE00A22DA62044802F081FD0346002B01D08A
S31508000FF000F0E2FA00BF80BD2C010020003001405D
S3150800100080B500AF114B124A1A60104B4FF4E1320B
S315080010105A600E4B00229A600C4B0022DA600B4B8A
S3150800102000221A61094B0C225A61084B00229A6168
S31508001030064B0022DA61054803F0ECFA0346002B5A
S3150800104001D000F0B9FA00BF80BD00BF84010020BE
S315080010500038014080B588B000AF07F110030022C0
S315080010601A605A609A60DA60414B9B69404A43F0BD
S31508001070100393613E4B9B6903F01003FB60FB680A
S315080010803B4B9B693A4A43F020039361384B9B6973
S3150800109003F02003BB60BB68354B9B69344A43F0B9
S315080010A004039361324B9B6903F004037B607B68FE
S315080010B02F4B9B692E4A43F0080393612C4B9B697F
S315080010C003F008033B603B6800221021294800F022
S315080010D0A3FF00220121284800F09EFF01224FF4B9
S315080010E04871254800F098FF02233B61234B7B613A
S315080010F00023BB6107F1100319461E4800F008FEDD
S3150800110010233B6101237B610023BB610223FB6142
S3150800111007F110031946174800F0FAFD01233B6151
S3150800112001237B610023BB610223FB6107F11003E6
S315080011301946114800F0ECFD4FF448733B61012352
S315080011407B610223BB610223FB6107F11003194689
S31508001150094800F0DDFD00220121072000F0A1FD6D
S31508001160072000F0BAFD00BF2037BD4680BD00BF8E
S315080011700010024000080140000C01400000111058
S3150800118080B582B000AF284BDB69274A43F080530D
S31508001190D361254BDB69244A43F00063D361234BB3
S315080011A01B68224A43F4807313601F4B1B6A03F0C3
S315080011B0020319461E4805F063F81B4B1B6A1A4AB8
S315080011C043F0010313620023FB7109E0FB79013345
S315080011D0FB71FB79642B03D9164805F051F805E035
S315080011E0114B1B6A03F00203002BEFD00E4B1B6A50
S315080011F00D4A43F0090313620B4B1B6A0A4A23F094
S3150800120008031362084B1B6A074A43F40043136238
S31508001210054B1B6A1946064805F032F800F00CF82B
S3150800122000BF0837BD4680BD001002400070004070
S315080012301C7200083072000880B500AF3B4B1B6A71
S3150800124003F0020319463A4805F01AF802E039484D
S3150800125005F084F8384B5B6803F02003002BF6D0C2
S31508001260354B5B68344A43F010035360324B5B6876
S3150800127003F020031946314805F002F82E4B0022E8
S315080012809A602D4B47F6FF72DA602B4B5B6803F0CA
S31508001290200319462A4804F0F3FF274B00221A6157
S315080012A0254B4FF400425A61234B5B6803F0200339
S315080012B01946244804F0E4FF1F4B00229A611E4B8E
S315080012C00022DA611C4B00221A621B4B0F225A625B
S315080012D0194B1B68184A43F002031360164B1B6828
S315080012E0154A43F004031360134B5B68124A23F054
S315080012F010035360104B5B6803F02003194612482D
S3150800130004F0BEFF07E00C4B5B6803F020031946A8
S315080013100E4804F0B5FF084B5B6803F02003002B6A
S31508001320F1D00B4805F01AF800BF80BD0010024046
S315080013306C72000880720008002800409472000849
S31508001340A8720008BC720008D0720008E47200088F
S315080013500873000880B500AF02E01A4804F0FEFFE3
S31508001360194B5B6803F02003002BF6D0164B5B681D
S31508001370154A43F010035360134B00221A61124BAF
S315080013804FF400425A61104B00229A610E4B00221C
S31508001390DA610D4B5B680C4A23F01003536007E0D3
S315080013A0094B5B6803F020031946084804F068FFF8
S315080013B0054B5B6803F02003002BF1D000BF00BF8C
S315080013C080BD00BF8072000800280040E472000853
S315080013D080B500AF4FF40071024800F035FE00BF3B
S315080013E080BD00BF000C014080B400AF00BFBD4601
S315080013F080BC704780B400AF00BFBD4680BC704754
S3150800140080B400AF00BFBD4680BC704780B582B0CF
S3150800141000AF0346FB80034804F032FF00BF0837DD
S31508001420BD4680BD3473000880B485B000AFF8604F
S31508001430B9607A60FA687B689A4205DCFA68BB6824
S315080014409342B8BF134600E07B6818461437BD467A
S3150800145080BC704780B582B000AF7860796801209B
S3150800146003F096FE084804F0F3F80A21002004F079
S315080014701DFA0E21012004F019FA044804F01CF99B
S3150800148000BF0837BD4680BD00004843E09304000E
S3150800149080B592B000AF00237B64002387F8433001
S315080014A02FE007F12C03184604F0E6FB03464FF439
S315080014B0FA6200211846FFF7B7FF024697F843304D
S315080014C092B25B0048333B4423F8442C97F84330E8
S315080014D05B0048333B4433F8443C1A467B6C134460
S315080014E07B6497F843305B0048333B4433F8443C0D
S315080014F019462E4804F0C4FE97F84330013387F89E
S31508001500433097F84330132BCBD97B6C284AA2FB80
S3150800151003231B093B873B8F1946264804F0B0FE78
S315080015200023FB63002387F83B30002387F83A3013
S315080015302DE097F83A305B0048333B4433F8443C97
S315080015401A463B8FD31A13F1630F1BDB97F83A3011
S315080015505B0048333B4433F8443C1A463B8FD31A66
S31508001560632B0FDC97F83B30013387F83B3097F84D
S315080015703A305B0048333B4433F8443C1A46FB6B2D
S315080015801344FB6397F83A30013387F83A3097F8F3
S315080015903A30132BCDD997F83B30FA6BB2FBF3F3FD
S315080015A03B873B8F18464837BD4680BD44730008C5
S315080015B0CDCCCCCC7473000880B400AF72B600BF33
S315080015C0FEE7000080B485B000AF154B9B69144A4E
S315080015D043F001039361124B9B6903F00103BB605F
S315080015E0BB680F4BDB690E4A43F08053D3610C4B43
S315080015F0DB6903F080537B607B680A4B5B68FB60A2
S31508001600FB6823F0E063FB60FB6843F00073FB6054
S31508001610044AFB68536000BF1437BD4680BC704758
S31508001620001002400000014080B58AB000AF786023
S3150800163007F1180300221A605A609A60DA607B681C
S315080016401B682B4A934224D12A4B9B69294A43F0AB
S3150800165008039361274B9B6903F008037B617B6949
S31508001660C023BB611223FB6103237B6207F11803C6
S315080016701946214800F04CFB1E4BDB691D4A43F412
S315080016800013D3611B4BDB6903F400133B613B6911
S3150800169029E07B681B68194A934224D1154B9B693C
S315080016A0144A43F008039361124B9B6903F008033D
S315080016B0FB60FB684FF44063BB611223FB610323A5
S315080016C07B6207F1180319460B4800F021FB094B0A
S315080016D0DB69084A43F48003D361064BDB6903F4EC
S315080016E08003BB60BB6800BF2837BD4680BD00BF0E
S315080016F00054004000100240000C01400058004011
S3150800170080B588B000AF786007F1100300221A6030
S315080017105A609A60DA607B681B681B4A93422FD12D
S315080017201A4B9B69194A43F480539361174B9B697B
S3150800173003F48053FB60FB68144B9B69134A43F020
S3150800174004039361114B9B6903F00403BB60BB68F8
S31508001750A0233B6102237B610323FB6107F110038E
S3150800176019460B4800F0D4FA40233B6100237B61FD
S315080017700023BB6107F110031946054800F0C8FAB3
S3150800178000BF2037BD4680BD003001400010024032
S315080017900008014080B588B000AF786007F11003F3
S315080017A000221A605A609A60DA607B681B681C4AD5
S315080017B0934231D11B4B9B691A4A43F48043936188
S315080017C0184B9B6903F48043FB60FB68154B9B69C8
S315080017D0144A43F004039361124B9B6903F0040314
S315080017E0BB60BB684FF400733B6102237B61032334
S315080017F0FB6107F1100319460B4800F089FA4FF40C
S3150800180080633B6100237B610023BB6107F1100302
S315080018101946054800F07CFA00BF2037BD4680BD52
S3150800182000380140001002400008014080B400AFB3
S31508001830FEE780B400AFFEE780B400AFFEE780B4F1
S3150800184000AFFEE780B400AFFEE780B400AF00BF8C
S31508001850BD4680BC704780B400AF00BFBD4680BCA3
S31508001860704780B400AF00BFBD4680BC704780B5E6
S3150800187000AF00F0FFF800BF80BD80B500AF0220C2
S3150800188000F0FCFB00BF80BD80B586B000AFF860F5
S31508001890B9607A6000237B610AE0AFF300800146F5
S315080018A0BB685A1CBA60CAB21A707B6901337B617D
S315080018B07A697B689A42F0DB7B6818461837BD461A
S315080018C080BD80B483B000AF78604FF0FF33184610
S315080018D00C37BD4680BC704780B483B000AF7860D3
S315080018E039603B684FF400525A60002318460C379B
S315080018F0BD4680BC704780B483B000AF78600123D2
S3150800190018460C37BD4680BC704780B485B000AF1A
S31508001910F860B9607A60002318461437BD4680BC63
S315080019207047000080B586B000AF7860144A154B42
S31508001930D31A7B617B693B61134B1B68002B02D171
S31508001940114B124A1A60104B1A687B6813443A699D
S315080019509A4207D204F030FE03460C221A604FF072
S31508001960FF3309E0084B1B68FB60074B1A687B6866
S315080019701344054A1360FB6818461837BD4680BDF0
S315080019800050002000040000F8020020B8040020DF
S3150800199080B400AF00BFBD4680BC7047FFF7F8FFB4
S315080019A00B480C490C4A002302E0D458C4500433AF
S315080019B0C4188C42F9D3094A094C002301E0136084
S315080019C00432A242FBD304F0FDFDFFF72DF8704761
S315080019D00000002068000020F4730008680000205A
S315080019E0B4040020FEE7000080B500AF084B1B6872
S315080019F0074A43F010031360032000F047F90F204D
S31508001A0000F008F8FFF7DEFD0023184680BD00BF8A
S31508001A100020024080B582B000AF7860124B1A6889
S31508001A20124B1B7819464FF47A73B3FBF1F3B2FBEA
S31508001A30F3F3184600F05FF90346002B01D00123A3
S31508001A400EE07B680F2B0AD8002279684FF0FF302A
S31508001A5000F027F9064A7B681360002300E001239B
S31508001A6018460837BD4680BD000000200800002043
S31508001A700400002080B400AF054B1B781A46054BBE
S31508001A801B681344034A136000BFBD4680BC7047F9
S31508001A9008000020FC02002080B400AF024B1B683F
S31508001AA01846BD4680BC7047FC02002080B584B04D
S31508001AB000AF7860FFF7F0FFB8607B68FB60FB68F3
S31508001AC0B3F1FF3F05D00A4B1B781A46FB6813444F
S31508001AD0FB6000BFFFF7E0FF0246BB68D31AFA684F
S31508001AE09A42F7D800BF00BF1037BD4680BD00BF79
S31508001AF00800002080B485B000AF78607B6803F0EA
S31508001B000703FB600C4BDB68BB60BA684FF6FF0344
S31508001B101340BB60FB681A02BB68134343F0BF63FC
S31508001B2043F40033BB60044ABB68D36000BF143774
S31508001B30BD4680BC704700BF00ED00E080B400AF32
S31508001B40044BDB681B0A03F007031846BD4680BC36
S31508001B50704700BF00ED00E080B483B000AF0346D5
S31508001B60FB7197F90730002B0BDBFB7903F01F029B
S31508001B70064997F907305B09012000FA02F241F895
S31508001B80232000BF0C37BD4680BC704700E100E04B
S31508001B9080B483B000AF03463960FB7197F907300C
S31508001BA0002B0ADB3B68DAB20C4997F907301201B9
S31508001BB0D2B20B4483F800230AE03B68DAB208493C
S31508001BC0FB7903F00F03043B1201D2B20B441A76D9
S31508001BD000BF0C37BD4680BC704700BF00E100E07F
S31508001BE000ED00E080B489B000AFF860B9607A60B3
S31508001BF0FB6803F00703FB61FB69C3F10703042BCA
S31508001C0028BF0423BB61FB690433062B02D9FB6991
S31508001C10033B00E000237B614FF0FF32BB6902FA09
S31508001C2003F3DA43BB681A407B699A404FF0FF31E9
S31508001C307B6901FA03F3D9437B680B4013431846C3
S31508001C402437BD4680BC704780B582B000AF786047
S31508001C507B68013BB3F1807F01D301230FE00A4A79
S31508001C607B68013B53600F214FF0FF30FFF790FF71
S31508001C70054B00229A60044B07221A600023184677
S31508001C800837BD4680BD00BF10E000E080B582B0D1
S31508001C9000AF78607868FFF72DFF00BF0837BD46AC
S31508001CA080BD80B586B000AF0346B9607A60FB7325
S31508001CB000237B61FFF742FF78617A68B968786923
S31508001CC0FFF790FF024697F90F3011461846FFF7BF
S31508001CD05FFF00BF1837BD4680BD80B582B000AF34
S31508001CE00346FB7197F907301846FFF735FF00BF23
S31508001CF00837BD4680BD80B582B000AF7860786889
S31508001D00FFF7A2FF034618460837BD4680BD000008
S31508001D1080B48BB000AF7860396000237B62002303
S31508001D203B6269E101227B6A02FA03F3FB613B68C5
S31508001D301B68FA691340BB61BA69FB699A4240F0AD
S31508001D4058813B685B689A4A93425ED0984A9342A8
S31508001D5075D8984A934258D0964A93426FD8964A6D
S31508001D60934252D0944A934269D8944A93424CD0AB
S31508001D70924A934263D8924A934246D0904A9342F3
S31508001D805DD8122B2AD8122B59D801A252F823F063
S31508001D900B1E0008E51D0008F71D0008391E00087F
S31508001DA03F1E00083F1E00083F1E00083F1E000891
S31508001DB03F1E00083F1E00083F1E00083F1E000881
S31508001DC03F1E00083F1E00083F1E00083F1E000871
S31508001DD03F1E0008ED1D0008011E0008794A9342BF
S31508001DE013D02CE03B68DB683B6229E03B68DB6884
S31508001DF004333B6224E03B68DB6808333B621FE040
S31508001E003B68DB680C333B621AE03B689B68002B37
S31508001E1002D104233B6213E03B689B68012B05D182
S31508001E2008233B627B68FA691A6109E008233B626A
S31508001E307B68FA695A6103E000233B6200E000BF51
S31508001E40BB69FF2B01D87B6801E07B6804337B61A3
S31508001E50BB69FF2B02D87B6A9B0002E07B6A083BC2
S31508001E609B003B617B691A680F213B6901FA03F302
S31508001E70DB431A40396A3B6901FA03F31A437B6963
S31508001E801A603B685B6803F08053002B00F0B18052
S31508001E904D4B9B694C4A43F0010393614A4B9B693E
S31508001EA003F00103BB60BB68484A7B6A9B080233A0
S31508001EB052F82330FB607B6A03F003039B000F2272
S31508001EC002FA03F3DB43FA681340FB607B68404A77
S31508001ED0934213D07B683F4A93420DD07B683E4AB3
S31508001EE0934207D07B683D4A934201D1032306E01B
S31508001EF0042304E0022302E0012300E000237A6AB7
S31508001F0002F0030292009340FA681343FB602F49DC
S31508001F107B6A9B080233FA6841F823203B685B68B2
S31508001F2003F48013002B06D02D4B9A682C49BB6905
S31508001F3013438B6006E02A4B9A68BB69DB43284942
S31508001F4013408B603B685B6803F40013002B06D0D4
S31508001F50234BDA682249BB691343CB6006E0204B62
S31508001F60DA68BB69DB431E491340CB603B685B6894
S31508001F7003F40033002B06D0194B5A681849BB697D
S31508001F8013434B6006E0164B5A68BB69DB4314499A
S31508001F9013404B603B685B6803F48033002B21D009
S31508001FA00F4B1A680E49BB6913430B6021E000BF4B
S31508001FB0000032100000311000002210000021102D
S31508001FC0000012100000111000100240000001402D
S31508001FD000080140000C01400010014000140140B7
S31508001FE0000401400B4B1A68BB69DB4309491340DF
S31508001FF00B607B6A01337B623B681A687B6A22FA4C
S3150800200003F3002B7FF48EAE00BF00BF2C37BD460E
S3150800201080BC70470004014080B483B000AF78608C
S315080020200B467B8013467B707B78002B03D07A881F
S315080020307B681A6103E07B881A047B681A6100BF13
S315080020400C37BD4680BC704780B485B000AF786059
S315080020500B467B807B68DB68FB607A88FB681340ED
S315080020601A04FB68D9437B880B401A437B681A61BC
S3150800207000BF1437BD4680BC7047000080B582B0EB
S3150800208000AF0346FB80084B5A69FB881340002BB8
S3150800209006D0054AFB885361FB881846FFF7B6F950
S315080020A000BF0837BD4680BD0004014080B584B036
S315080020B000AF78607B68002B01D101232BE17B6898
S315080020C093F83D30DBB2002B06D17B68002283F8FB
S315080020D03C207868FFF7A8FA7B68242283F83D201D
S315080020E07B681B681A687B681B6822F001021A6005
S315080020F07B681B681A687B681B6842F400421A6092
S315080021007B681B681A687B681B6822F400421A60A1
S3150800211001F0F0FBF8607B685B68814A934207D858
S31508002120FB68804A934294BF01230023DBB206E092
S31508002130FB687D4A934294BF01230023DBB2002B40
S3150800214001D00123E7E0FB68784AA2FB03239B0C36
S31508002150BB607B681B685B6823F03F017B681B6874
S31508002160BA680A435A607B681B681B6A23F03F01FA
S315080021707B685B686A4A934202D8BB68013309E008
S31508002180BB684FF4967202FB03F3694AA2FB03236A
S315080021909B0901337A6812680B4313627B681B68D4
S315080021A0DB6923F44F4222F0FF027B685B685C49D7
S315080021B08B4219D8FB68591E7B685B685B00B1FBCC
S315080021C0F3F3591C40F6FC730B40002B0AD0FB684E
S315080021D0591E7B685B685B00B1FBF3F30133C3F3FD
S315080021E00B0351E004234FE07B689B68002B11D159
S315080021F0FB68581E7B6859680B465B000B44B0FBAE
S31508002200F3F30133C3F30B03002B0CBF01230023A5
S31508002210DBB212E0FB68581E7B6859680B469B00C8
S315080022200B4499000B44B0FBF3F30133C3F30B03E0
S31508002230002B0CBF01230023DBB2002B01D00123A6
S3150800224022E07B689B68002B0ED1FB68581E7B68D2
S3150800225059680B465B000B44B0FBF3F30133C3F339
S315080022600B0343F400430FE0FB68581E7B6859686C
S315080022700B469B000B4499000B44B0FBF3F3013368
S31508002280C3F30B0343F44043796809681343CB61EE
S315080022907B681B681B6823F0C0017B68DA697B686A
S315080022A01B6A1A437B681B680A431A607B681B68AB
S315080022B09B6823F4034323F0FF037A6811697A685D
S315080022C0D26811437A6812680B4393607B681B686F
S315080022D0DB6823F0FF017B685A697B689B691A43B0
S315080022E07B681B680A43DA607B681B681A687B6828
S315080022F01B6842F001021A607B6800221A647B6838
S31508002300202283F83D207B6800221A637B6800221E
S3150800231083F83E20002318461037BD4680BD00BF0F
S31508002320A08601007F841E00FF083D0083DE1B4354
S31508002330D34D621080B588B002AFF86008461146E2
S315080023401A4603467B810B463B811346FB80FFF703
S31508002350A3FB7861FB6893F83D30DBB2202B40F095
S31508002360D9807B690093192301226D49F86800F02A
S31508002370C1FC0346002B01D00223CCE0FB6893F88E
S315080023803C30012B01D10223C5E0FB68012283F80A
S315080023903C20FB681B681B6803F00103012B07D070
S315080023A0FB681B681A68FB681B6842F001021A6022
S315080023B0FB681B681A68FB681B6822F400621A60CF
S315080023C0FB68212283F83D20FB68402283F83E20E3
S315080023D0FB6800221A64FB683A6A5A62FB68BA8C80
S315080023E05A85FB685B8D9AB2FB681A85FB684D4A6D
S315080023F0DA62F8883A8979897B690193BB6A00931E
S315080024000346F86800F0F8FA0346002B52D0012379
S3150800241081E07A69B96AF86800F086FD0346002B00
S315080024200DD0FB681B6C042B07D1FB681B681A6868
S31508002430FB681B6842F400721A6001236BE0FB68B4
S315080024405B6A1A78FB681B681A61FB685B6A5A1C28
S31508002450FB685A62FB681B8D013B9AB2FB681A85BA
S31508002460FB685B8D9BB2013B9AB2FB685A85FB6899
S315080024701B685B6903F00403042B1BD1FB681B8DE7
S31508002480002B17D0FB685B6A1A78FB681B681A6111
S31508002490FB685B6A5A1CFB685A62FB681B8D013B2A
S315080024A09AB2FB681A85FB685B8D9BB2013B9AB2B0
S315080024B0FB685A85FB681B8D002BAAD17A69B96A15
S315080024C0F86800F079FD0346002B0DD0FB681B6CFD
S315080024D0042B07D1FB681B681A68FB681B6842F463
S315080024E000721A60012316E0FB681B681A68FB680D
S315080024F01B6842F400721A60FB68202283F83D20AC
S31508002500FB68002283F83E20FB68002283F83C2003
S31508002510002300E0022318461837BD4680BD00BFD9
S31508002520020010000000FFFF80B58CB002AFF86013
S31508002530084611461A4603467B810B463B811346DD
S31508002540FB8000233B62FFF7A7FA7862FB6893F8E3
S315080025503D30DBB2202B40F044827B6A009319237E
S3150800256001228249F86800F0C5FB0346002B01D01A
S31508002570022337E2FB6893F83C30012B01D1022392
S3150800258030E2FB68012283F83C20FB681B681B6865
S3150800259003F00103012B07D0FB681B681A68FB6868
S315080025A01B6842F001021A60FB681B681A68FB6820
S315080025B01B6822F400621A60FB68222283F83D2019
S315080025C0FB68402283F83E20FB6800221A64FB68F9
S315080025D03A6B5A62FB68BA8E5A85FB685B8D9AB26B
S315080025E0FB681A85FB68624ADA62F8883A8979894B
S315080025F07B6A0193BB6B00930346F86800F092FA76
S315080026000346002B01D00123ECE1FB681B8D002B50
S3150800261013D10023FB61FB681B685B69FB61FB68E0
S315080026201B689B69FB61FB69FB681B681A68FB688A
S315080026301B6842F400721A60C0E1FB681B8D012B0F
S315080026401ED1FB681B681A68FB681B6822F4806247
S315080026501A6072B600BF0023BB61FB681B685B6922
S31508002660BB61FB681B689B69BB61BB69FB681B6830
S315080026701A68FB681B6842F400721A6062B635E095
S31508002680FB681B8D022B1ED1FB681B681A68FB684A
S315080026901B6842F400621A6072B600BF00237B61B1
S315080026A0FB681B685B697B61FB681B689B697B61D0
S315080026B07B69FB681B681A68FB681B6822F48062E2
S315080026C01A6062B612E0FB681B681A68FB681B682A
S315080026D042F480621A6000233B61FB681B685B69F1
S315080026E03B61FB681B689B693B613B6966E1FB686C
S315080026F01B8D032B00F21F81FB681B8D012B23D139
S315080027007A6AB96BF86800F09FFC0346002B01D083
S31508002710012367E1FB681B681A69FB685B6AD2B22A
S315080027201A70FB685B6A5A1CFB685A62FB681B8D49
S31508002730013B9AB2FB681A85FB685B8D9BB2013B2D
S315080027409AB2FB685A8539E1FB681B8D022B52D178
S315080027507B6A0093BB6B00220649F86800F0CAFA48
S315080027600346002B08D001233CE100BF02001000FD
S315080027700000FFFF0400010072B600BFFB681B687B
S315080027801A68FB681B6842F400721A60FB681B68CB
S315080027901A69FB685B6AD2B21A70FB685B6A5A1CD4
S315080027A0FB685A62FB681B8D013B9AB2FB681A8567
S315080027B0FB685B8D9BB2013B9AB2FB685A8562B691
S315080027C000BFFB681B681A69FB685B6AD2B21A709D
S315080027D0FB685B6A5A1CFB685A62FB681B8D013BE7
S315080027E09AB2FB681A85FB685B8D9BB2013B9AB26D
S315080027F0FB685A85E2E07B6A0093BB6B00227B4943
S31508002800F86800F077FA0346002B01D00123E9E0C7
S31508002810FB681B681A68FB681B6822F480621A60EA
S3150800282072B600BFFB681B681A69FB685B6AD2B29E
S315080028301A70FB685B6A5A1CFB685A62FB681B8D38
S31508002840013B9AB2FB681A85FB685B8D9BB2013B1C
S315080028509AB2FB685A85664B1B68DB08654AA2FB79
S3150800286003231A0A13469B001344DA00D31A3B6261
S315080028703B6A013B3B623B6A002B18D1FB6800228E
S315080028801A63FB68202283F83D20FB68002283F840
S315080028903E20FB681B6C43F02002FB681A6462B694
S315080028A000BFFB68002283F83C2001239AE0FB68FE
S315080028B01B685B6903F00403042BD9D1FB681B680A
S315080028C01A68FB681B6842F400721A60FB681B688A
S315080028D01A69FB685B6AD2B21A70FB685B6A5A1C93
S315080028E0FB685A62FB681B8D013B9AB2FB681A8526
S315080028F0FB685B8D9BB2013B9AB2FB685A8562B650
S3150800290000BFFB681B681A69FB685B6AD2B21A705B
S31508002910FB685B6A5A1CFB685A62FB681B8D013BA5
S315080029209AB2FB681A85FB685B8D9BB2013B9AB22B
S31508002930FB685A8542E07A6AB96BF86800F084FB4E
S315080029400346002B01D001234CE0FB681B681A697B
S31508002950FB685B6AD2B21A70FB685B6A5A1CFB6832
S315080029605A62FB681B8D013B9AB2FB681A85FB68A5
S315080029705B8D9BB2013B9AB2FB685A85FB681B6864
S315080029805B6903F00403042B18D1FB681B681A69FA
S31508002990FB685B6AD2B21A70FB685B6A5A1CFB68F2
S315080029A05A62FB681B8D013B9AB2FB681A85FB6865
S315080029B05B8D9BB2013B9AB2FB685A85FB681B8DFF
S315080029C0002B7FF494AEFB68202283F83D20FB6839
S315080029D0002283F83E20FB68002283F83C2000236F
S315080029E000E0022318462837BD4680BD04000100D2
S315080029F00000002089B5F81480B588B002AFF860E9
S31508002A00084611461A4603467B810B463B81134608
S31508002A10FB80FB681B681A68FB681B6842F48072B7
S31508002A201A607B6A00933B6A00224FF00111F8682E
S31508002A3000F060F90346002B0DD0FB681B681B6885
S31508002A4003F48073B3F5807F03D1FB684FF40072FB
S31508002A501A6403235FE07B89DBB21A46FB681B68AE
S31508002A6002F0FE021A617B6A3A6A2D49F86800F09C
S31508002A70BBF90346002B01D001234CE000237B6100
S31508002A80FB681B685B697B61FB681B689B697B61EC
S31508002A907B697A6A396AF86800F046FA0346002BB9
S31508002AA00DD0FB681B6C042B07D1FB681B681A68E2
S31508002AB0FB681B6842F400721A6001232BE0FB884E
S31508002AC0012B05D13B89DAB2FB681B681A6121E044
S31508002AD03B891B0A9BB2DAB2FB681B681A617A6AE1
S31508002AE0396AF86800F020FA0346002B0DD0FB6817
S31508002AF01B6C042B07D1FB681B681A68FB681B68EC
S31508002B0042F400721A60012305E03B89DAB2FB68D9
S31508002B101B681A61002318461837BD4680BD00BFDA
S31508002B200200010080B588B002AFF8600846114679
S31508002B301A4603467B810B463B811346FB80FB689E
S31508002B401B681A68FB681B6842F480621A60FB6897
S31508002B501B681A68FB681B6842F480721A607B6AF5
S31508002B6000933B6A00224FF00111F86800F0C2F8A2
S31508002B700346002B0DD0FB681B681B6803F48073A3
S31508002B80B3F5807F03D1FB684FF400721A64032300
S31508002B90AAE07B89DBB21A46FB681B6802F0FE02D4
S31508002BA01A617B6A3A6A5249F86800F01DF90346C9
S31508002BB0002B01D0012397E000237B61FB681B688B
S31508002BC05B697B61FB681B689B697B617B697A6AC9
S31508002BD0396AF86800F0A8F90346002B0DD0FB689F
S31508002BE01B6C042B07D1FB681B681A68FB681B68FB
S31508002BF042F400721A60012376E0FB88012B05D1A6
S31508002C003B89DAB2FB681B681A6121E03B891B0A1B
S31508002C109BB2DAB2FB681B681A617A6A396AF86885
S31508002C2000F082F90346002B0DD0FB681B6C042BC1
S31508002C3007D1FB681B681A68FB681B6842F40072B8
S31508002C401A60012350E03B89DAB2FB681B681A61F7
S31508002C507A6A396AF86800F067F90346002B0DD0DE
S31508002C60FB681B6C042B07D1FB681B681A68FB689A
S31508002C701B6842F400721A60012335E0FB681B6882
S31508002C801A68FB681B6842F480721A607B6A0093B4
S31508002C903B6A00224FF00111F86800F02BF8034652
S31508002CA0002B0DD0FB681B681B6803F48073B3F513
S31508002CB0807F03D1FB684FF400721A64032313E084
S31508002CC07B89DBB243F00103DAB2FB681B681A6141
S31508002CD07B6A3A6A0649F86800F086F80346002BCC
S31508002CE001D0012300E0002318461837BD4680BDF1
S31508002CF00200010080B584B000AFF860B9603B609F
S31508002D001346FB7148E03B68B3F1FF3F44D0FEF73A
S31508002D10C3FE0246BB69D31A3A689A4202D33B6895
S31508002D20002B39D1BB681B0CDBB2012B0DD1FB681C
S31508002D301B685B69DA43BB6813409BB2002B0CBF68
S31508002D4001230023DBB21A460CE0FB681B689B696B
S31508002D50DA43BB6813409BB2002B0CBF0123002348
S31508002D60DBB21A46FB799A4216D1FB6800221A632F
S31508002D70FB68202283F83D20FB68002283F83E206A
S31508002D80FB681B6C43F02002FB681A64FB68002290
S31508002D9083F83C20012323E0BB681B0CDBB2012B24
S31508002DA00DD1FB681B685B69DA43BB6813409BB2AD
S31508002DB0002B0CBF01230023DBB21A460CE0FB688C
S31508002DC01B689B69DA43BB6813409BB2002B0CBF98
S31508002DD001230023DBB21A46FB799A4293D00023DB
S31508002DE018461037BD4680BD80B584B000AFF86080
S31508002DF0B9607A603B6071E0FB681B685B6903F445
S31508002E008063B3F5806F23D1FB681B681A68FB687B
S31508002E101B6842F400721A60FB681B686FF48062D4
S31508002E205A61FB6800221A63FB68202283F83D205A
S31508002E30FB68002283F83E20FB681B6C43F0040203
S31508002E40FB681A64FB68002283F83C20012367E0CC
S31508002E507B68B3F1FF3F41D0FEF71EFE02463B6892
S31508002E60D31A7A689A4202D37B68002B36D1BB689C
S31508002E701B0CDBB2012B0CD1FB681B685B69DA43C0
S31508002E80BB6813409BB2002B14BF01230023DBB29F
S31508002E900BE0FB681B689B69DA43BB6813409BB26F
S31508002EA0002B14BF01230023DBB2002B16D0FB68CE
S31508002EB000221A63FB68202283F83D20FB68002263
S31508002EC083F83E20FB681B6C43F02002FB681A64FB
S31508002ED0FB68002283F83C20012321E0BB681B0C19
S31508002EE0DBB2012B0CD1FB681B685B69DA43BB6854
S31508002EF013409BB2002B14BF01230023DBB20BE067
S31508002F00FB681B689B69DA43BB6813409BB2002BBE
S31508002F1014BF01230023DBB2002B7FF46DAF00231F
S31508002F2018461037BD4680BD80B584B000AFF8603E
S31508002F30B9607A6034E0F86800F0E3F80346002BDD
S31508002F4001D0012334E0BB68B3F1FF3F28D0FEF778
S31508002F50A3FD02467B68D31ABA689A4202D3BB68B5
S31508002F60002B1DD1FB681B685B6903F08003802B6F
S31508002F7016D0FB6800221A63FB68202283F83D20DE
S31508002F80FB68002283F83E20FB681B6C43F0200296
S31508002F90FB681A64FB68002283F83C20012307E0DB
S31508002FA0FB681B685B6903F08003802BC3D1002391
S31508002FB018461037BD4680BD80B584B000AFF860AE
S31508002FC0B9607A6034E0F86800F09BF80346002B95
S31508002FD001D0012334E0BB68B3F1FF3F28D0FEF7E8
S31508002FE05BFD02467B68D31ABA689A4202D3BB686D
S31508002FF0002B1DD1FB681B685B6903F00403042BD7
S3150800300016D0FB6800221A63FB68202283F83D204D
S31508003010FB68002283F83E20FB681B6C43F0200205
S31508003020FB681A64FB68002283F83C20012307E04A
S31508003030FB681B685B6903F00403042BC3D10023F8
S3150800304018461037BD4680BD80B584B000AFF8601D
S31508003050B9607A6049E0FB681B685B6903F0100396
S31508003060102B19D1FB681B686FF010025A61FB68B8
S3150800307000221A63FB68202283F83D20FB680022A1
S3150800308083F83E20FB681A6CFB681A64FB6800220A
S3150800309083F83C20012330E0FEF7FEFC02467B68FD
S315080030A0D31ABA689A4202D3BB68002B1DD1FB68B3
S315080030B01B685B6903F04003402B16D0FB680022AF
S315080030C01A63FB68202283F83D20FB68002283F8F8
S315080030D03E20FB681B6C43F02002FB681A64FB6801
S315080030E0002283F83C20012307E0FB681B685B6924
S315080030F003F04003402BAED1002318461037BD46D7
S3150800310080BD80B483B000AF78607B681B685B695C
S3150800311003F48063B3F5806F1BD17B681B686FF47B
S3150800312080625A617B6800221A637B68202283F8D2
S315080031303D207B68002283F83E207B681B6C43F0A9
S3150800314004027B681A647B68002283F83C2001230A
S3150800315000E0002318460C37BD4680BC70470000C7
S3150800316080B586B000AF78607B68002B01D101235B
S3150800317072E27B681B6803F00103002B00F087806E
S31508003180924B5B6803F00C03042B0CD08F4B5B68E7
S3150800319003F00C03082B12D18C4B5B6803F48033C5
S315080031A0B3F5803F0BD1894B1B6803F40033002B22
S315080031B06CD07B685B68002B68D101234CE27B6886
S315080031C05B68B3F5803F06D1804B1B687F4A43F4A2
S315080031D0803313602EE07B685B68002B0CD17B4B39
S315080031E01B687A4A23F480331360784B1B68774A46
S315080031F023F4802313601DE07B685B68B3F5A02F7A
S315080032000CD1724B1B68714A43F4802313606F4BD1
S315080032101B686E4A43F4803313600BE06B4B1B68E4
S315080032206A4A23F480331360684B1B68674A23F4A1
S31508003230802313607B685B68002B13D0FEF72CFC99
S31508003240386108E0FEF728FC02463B69D31A642B6E
S3150800325001D9032300E25D4B1B6803F40033002BFE
S31508003260F0D014E0FEF718FC386108E0FEF714FC0D
S3150800327002463B69D31A642B01D90323ECE1534B6D
S315080032801B6803F40033002BF0D100E000BF7B6815
S315080032901B6803F00203002B63D04C4B5B6803F0FA
S315080032A00C03002B0BD0494B5B6803F00C03082B6F
S315080032B01CD1464B5B6803F48033002B16D1434B75
S315080032C01B6803F00203002B05D07B681B69012BE2
S315080032D001D00123C0E13D4B1B6823F0F8027B684F
S315080032E05B69DB00394913430B603AE07B681B696D
S315080032F0002B20D0364B01221A60FEF7CDFB386131
S3150800330008E0FEF7C9FB02463B69D31A022B01D92E
S315080033100323A1E12D4B1B6803F00203002BF0D019
S315080033202A4B1B6823F0F8027B685B69DB00274998
S3150800333013430B6015E0264B00221A60FEF7ACFB20
S31508003340386108E0FEF7A8FB02463B69D31A022B50
S3150800335001D9032380E11D4B1B6803F00203002BF0
S31508003360F0D17B681B6803F00803002B3AD07B6812
S315080033709B69002B19D0174B01221A60FEF78CFBAC
S31508003380386108E0FEF788FB02463B69D31A022B30
S3150800339001D9032360E10D4B5B6A03F00203002B9E
S315080033A0F0D0012000F0CEFA1CE00A4B00221A6089
S315080033B0FEF772FB38610FE0FEF76EFB02463B69CB
S315080033C0D31A022B08D9032346E100BF0010024096
S315080033D00000424280044242924B5B6A03F00203B9
S315080033E0002BE9D17B681B6803F00403002B00F06F
S315080033F0A6800023FB758B4BDB6903F08053002BFB
S315080034000DD1884BDB69874A43F08053D361854BDE
S31508003410DB6903F08053BB60BB680123FB75824BF5
S315080034201B6803F48073002B18D17F4B1B687E4AF8
S3150800343043F480731360FEF72FFB386108E0FEF74C
S315080034402BFB02463B69D31A642B01D9032303E1FC
S31508003450754B1B6803F48073002BF0D07B68DB6820
S31508003460012B06D16F4B1B6A6E4A43F001031362A8
S315080034702DE07B68DB68002B0CD16A4B1B6A694A16
S3150800348023F001031362674B1B6A664A23F00403A1
S3150800349013621CE07B68DB68052B0CD1614B1B6A49
S315080034A0604A43F0040313625E4B1B6A5D4A43F0AD
S315080034B0010313620BE05B4B1B6A5A4A23F00103B4
S315080034C01362584B1B6A574A23F0040313627B683E
S315080034D0DB68002B15D0FEF7DFFA38610AE0FEF745
S315080034E0DBFA02463B69D31A41F28832934201D984
S315080034F00323B1E04B4B1B6A03F00203002BEED00B
S3150800350014E0FEF7C9FA38610AE0FEF7C5FA024682
S315080035103B69D31A41F28832934201D903239BE0CF
S31508003520404B1B6A03F00203002BEED1FB7D012BF7
S3150800353005D13C4BDB693B4A23F08053D3617B685A
S31508003540DB69002B00F08780364B5B6803F00C03C1
S31508003550082B61D07B68DB69022B46D1334B0022EE
S315080035601A60FEF799FA386108E0FEF795FA0246FE
S315080035703B69D31A022B01D903236DE0294B1B683B
S3150800358003F00073002BF0D17B681B6AB3F5803F0C
S3150800359008D1244B5B6823F400327B689B68214979
S315080035A013434B601F4B5B6823F474127B68196ADC
S315080035B07B685B6A0B431B4913434B601B4B012219
S315080035C01A60FEF769FA386108E0FEF765FA0246FE
S315080035D03B69D31A022B01D903233DE0114B1B6823
S315080035E003F00073002BF0D035E0104B00221A6070
S315080035F0FEF752FA386108E0FEF74EFA02463B69D2
S31508003600D31A022B01D9032326E0064B1B6803F0C5
S315080036100073002BF0D11EE07B68DB69012B07D114
S31508003620012319E000100240007000406000424289
S315080036300B4B5B68FB60FB6803F480327B681B6A94
S315080036409A4206D1FB6803F470127B685B6A9A4259
S3150800365001D0012300E0002318461837BD4680BD77
S315080036600010024080B584B000AF786039607B688E
S31508003670002B01D10123D0E06A4B1B6803F0070336
S315080036803A689A4210D9674B1B6823F007026549C6
S315080036903B6813430B60634B1B6803F007033A68E8
S315080036A09A4201D00123B8E07B681B6803F0020345
S315080036B0002B20D07B681B6803F00403002B05D081
S315080036C0594B5B68584A43F4E06353607B681B6850
S315080036D003F00803002B05D0534B5B68524A43F4AA
S315080036E060535360504B5B6823F0F0027B689B681D
S315080036F04D4913434B607B681B6803F00103002B9D
S3150800370040D07B685B68012B07D1474B1B6803F4E5
S315080037100033002B15D101237FE07B685B68022B01
S3150800372007D1414B1B6803F00073002B09D1012315
S3150800373073E03D4B1B6803F00203002B01D1012304
S315080037406BE0394B5B6823F003027B685B6836499C
S3150800375013434B60FEF7A0F9F8600AE0FEF79CF900
S315080037600246FB68D31A41F28832934201D90323F1
S3150800377053E02D4B5B6803F00C027B685B689B008B
S315080037809A42EBD1274B1B6803F007033A689A4223
S3150800379010D2244B1B6823F0070222493B681343C7
S315080037A00B60204B1B6803F007033A689A4201D066
S315080037B0012332E07B681B6803F00403002B08D062
S315080037C0194B5B6823F4E0627B68DB681649134390
S315080037D04B607B681B6803F00803002B09D0124B6B
S315080037E05B6823F460527B681B69DB000E49134350
S315080037F04B6000F021F802460B4B5B681B0903F08F
S315080038000F030A49CB5C22FA03F3094A1360094BF2
S315080038101B681846FEF7FEF8002318461037BD4603
S3150800382080BD00BF00200240001002408C730008D3
S31508003830000000200400002080B487B000AF0023F9
S31508003840FB600023BB6000237B6100237B600023B1
S315080038503B611E4B5B68FB60FB6803F00C03042BA3
S3150800386002D0082B03D027E0194B3B6127E0FB6801
S315080038709B0C03F00F03174AD35C7B60FB6803F4C9
S315080038808033002B10D0114B5B685B0C03F00103EF
S31508003890114AD35CBB607B680D4A03FB02F2BB6826
S315080038A0B2FBF3F37B6104E07B680C4A02FB03F38B
S315080038B07B617B693B6102E0054B3B6100BF3B696D
S315080038C018461C37BD4680BC704700BF0010024032
S315080038D000127A00A4730008B473000800093D00BA
S315080038E080B400AF024B1B681846BD4680BC7047C3
S315080038F00000002080B500AFFFF7F2FF0246054B37
S315080039005B681B0A03F007030349CB5C22FA03F33F
S31508003910184680BD001002409C73000880B500AFB1
S31508003920FFF7DEFF0246054B5B68DB0A03F0070379
S315080039300349CB5C22FA03F3184680BD0010024007
S315080039409C73000880B485B000AF78600A4B1B688A
S315080039500A4AA2FB03235B0A7A6802FB03F3FB60AD
S3150800396000BFFB685A1EFA60002BF9D100BF00BFE2
S315080039701437BD4680BC704700000020D34D621046
S3150800398080B586B000AF786000233B610023FB60FA
S315080039907B681B6803F00103002B7DD00023FB75B1
S315080039A04F4BDB6903F08053002B0DD14C4BDB6981
S315080039B04B4A43F08053D361494BDB6903F080538C
S315080039C0BB60BB680123FB75464B1B6803F4807319
S315080039D0002B18D1434B1B68424A43F4807313608B
S315080039E0FEF75AF8386108E0FEF756F802463B69D2
S315080039F0D31A642B01D903236DE03A4B1B6803F4F1
S31508003A008073002BF0D0364B1B6A03F44073FB60BF
S31508003A10FB68002B2ED07B685B6803F44073FA685A
S31508003A209A4227D02E4B1B6A23F44073FB602E4B19
S31508003A3001221A602C4B00221A60294AFB6813627D
S31508003A40FB6803F00103002B14D0FEF725F8386154
S31508003A500AE0FEF721F802463B69D31A41F288329A
S31508003A60934201D9032336E01D4B1B6A03F0020378
S31508003A70002BEED01A4B1B6A23F440727B685B68F6
S31508003A80174913430B62FB7D012B05D1144BDB69E8
S31508003A90134A23F08053D3617B681B6803F0020343
S31508003AA0002B08D00E4B5B6823F440427B689B686A
S31508003AB00B4913434B607B681B6803F01003002B0C
S31508003AC008D0074B5B6823F480027B68DB680449EF
S31508003AD013434B60002318461837BD4680BD00BF08
S31508003AE000100240007000404004424280B582B097
S31508003AF000AF78607B68002B01D1012376E07B68F4
S31508003B005B6A002B08D17B685B68B3F5827F09D0B6
S31508003B107B680022DA6105E07B6800221A617B680F
S31508003B2000225A617B6800229A627B6893F85130BA
S31508003B30DBB2002B06D17B68002283F85020786818
S31508003B40FDF7DEFD7B68022283F851207B681B683F
S31508003B501A687B681B6822F040021A607B685B68FB
S31508003B6003F482727B689B6803F404431A437B68F8
S31508003B70DB6803F400631A437B681B6903F00203DE
S31508003B801A437B685B6903F001031A437B689B69E8
S31508003B9003F400731A437B68DB6903F038031A439E
S31508003BA07B681B6A03F0800342EA03017B689B6A11
S31508003BB003F400527B681B680A431A607B689B699A
S31508003BC01A0C7B681B6802F004025A607B681B6843
S31508003BD0DA697B681B6822F40062DA617B68002276
S31508003BE05A657B68012283F8512000231846083756
S31508003BF0BD4680BD80B588B000AFF860B9603B604F
S31508003C001346FB800023FB77FB6893F85030012BA3
S31508003C1001D102232DE1FB68012283F85020FDF72C
S31508003C203BFFB861FB88FB82FB6893F85130DBB237
S31508003C30012B02D00223FB7716E1BB68002B02D0CA
S31508003C40FB88002B02D10123FB770DE1FB680322D9
S31508003C5083F85120FB6800225A65FB68BA681A6324
S31508003C60FB68FA889A86FB68FA88DA86FB68002277
S31508003C709A63FB6800229A87FB680022DA87FB684A
S31508003C8000225A64FB6800221A64FB689B68B3F535
S31508003C90004F0FD1FB681B681A68FB681B6822F087
S31508003CA040021A60FB681B681A68FB681B6842F4C6
S31508003CB080421A60FB681B681B6803F04003402BB0
S31508003CC007D0FB681B681A68FB681B6842F040024D
S31508003CD01A60FB68DB68B3F5006F4FD1FB685B6859
S31508003CE0002B02D0FB8A012B42D1FB681B6B1A887A
S31508003CF0FB681B68DA60FB681B6B9A1CFB681A6317
S31508003D00FB68DB8E9BB2013B9AB2FB68DA862FE032
S31508003D10FB681B689B6803F00203022B12D1FB6841
S31508003D201B6B1A88FB681B68DA60FB681B6B9A1C9E
S31508003D30FB681A63FB68DB8E9BB2013B9AB2FB6891
S31508003D40DA8615E0FDF7A8FE0246BB69D31A3A687B
S31508003D509A4203D83B68B3F1FF3F02D13B68002B78
S31508003D6006D10323FB77FB68012283F851207BE009
S31508003D70FB68DB8E9BB2002BCAD150E0FB685B6800
S31508003D80002B02D0FB8A012B44D1FB681A6BFB6817
S31508003D901B680C3312781A70FB681B6B5A1CFB687D
S31508003DA01A63FB68DB8E9BB2013B9AB2FB68DA8624
S31508003DB030E0FB681B689B6803F00203022B13D1F3
S31508003DC0FB681A6BFB681B680C3312781A70FB6861
S31508003DD01B6B5A1CFB681A63FB68DB8E9BB2013BA4
S31508003DE09AB2FB68DA8615E0FDF756FE0246BB690D
S31508003DF0D31A3A689A4203D83B68B3F1FF3F02D117
S31508003E003B68002B06D10323FB77FB68012283F866
S31508003E10512029E0FB68DB8E9BB2002BC9D1BA6919
S31508003E203968F86800F0D8FB0346002B02D0FB6817
S31508003E3020225A65FB689B68002B0AD100233B6148
S31508003E40FB681B68DB683B61FB681B689B683B611A
S31508003E503B69FB685B6D002B02D00123FB7703E00F
S31508003E60FB68012283F85120FB68002283F8502062
S31508003E70FB7F18462037BD4680BD80B588B002AFA7
S31508003E80F860B9603B601346FB800023FB75FB684E
S31508003E9093F85130DBB2012B02D00223FB75FBE00D
S31508003EA0FB685B68B3F5827F12D1FB689B68002BC1
S31508003EB00ED1FB68042283F85120FA883B680093E8
S31508003EC01346BA68B968F86800F0EFF80346E8E000
S31508003ED0FB6893F85030012B01D10223E1E0FB681F
S31508003EE0012283F85020FDF7D7FD3861BB68002B07
S31508003EF002D0FB88002B02D10123FB75CCE0FB68BE
S31508003F00042283F85120FB6800225A65FB68BA68C8
S31508003F109A63FB68FA889A87FB68FA88DA87FB68E7
S31508003F2000221A63FB6800229A86FB680022DA865A
S31508003F30FB6800221A64FB6800225A64FB689B68C7
S31508003F40B3F5004F0FD1FB681B681A68FB681B683E
S31508003F5022F040021A60FB681B681A68FB681B6837
S31508003F6022F480421A60FB681B681B6803F0400352
S31508003F70402B07D0FB681B681A68FB681B6842F071
S31508003F8040021A60FB68DB68002B6AD132E0FB68E6
S31508003F901B689B6803F00103012B15D1FB681B689E
S31508003FA003F10C02FB689B6B1278D2B21A70FB689D
S31508003FB09B6B5A1CFB689A63FB68DB8F9BB2013BC1
S31508003FC09AB2FB68DA8715E0FDF766FD02463B699B
S31508003FD0D31A3A689A4203D83B68B3F1FF3F02D135
S31508003FE03B68002B06D10323FB75FB68012283F887
S31508003FF0512051E0FB68DB8F9BB2002BC7D135E01F
S31508004000FB681B689B6803F00103012B13D1FB684F
S315080040101B68DA68FB689B6B92B21A80FB689B6B1D
S315080040209A1CFB689A63FB68DB8F9BB2013B9AB2CA
S31508004030FB68DA8715E0FDF72FFD02463B69D31AC0
S315080040403A689A4203D83B68B3F1FF3F02D13B680E
S31508004050002B06D10323FB75FB68012283F8512048
S315080040601AE0FB68DB8F9BB2002BC9D13A69396825
S31508004070F86800F05FFA0346002B02D0FB6820229E
S315080040805A65FB685B6D002B02D00123FB7503E0C4
S31508004090FB68012283F85120FB68002283F8502030
S315080040A0FB7D18461837BD4680BD80B58CB000AF7D
S315080040B0F860B9607A607B800123FB62002387F889
S315080040C02B30FB6893F85030012B01D1022398E17D
S315080040D0FB68012283F85020FDF7DEFC7862FB6856
S315080040E093F8513087F82330FB685B68FB617B885F
S315080040F07B8397F82330012B0FD0FB69B3F5827FBA
S3150800410007D1FB689B68002B03D197F82330042B53
S3150800411003D0022387F82B306DE1BB68002B05D04E
S315080041207B68002B02D07B88002B03D1012387F8FC
S315080041302B3060E1FB6893F85130DBB2042B03D0D7
S31508004140FB68052283F85120FB6800225A65FB6844
S315080041507A689A63FB687A88DA87FB687A889A8726
S31508004160FB68BA681A63FB687A88DA86FB687A8815
S315080041709A86FB6800221A64FB6800225A64FB6868
S315080041801B681B6803F04003402B07D0FB681B68BD
S315080041901A68FB681B6842F040021A60FB68DB6815
S315080041A0B3F5006F7CD1FB685B68002B02D07B8B74
S315080041B0012B6AD1FB681B6B1A88FB681B68DA60DF
S315080041C0FB681B6B9A1CFB681A63FB68DB8E9BB249
S315080041D0013B9AB2FB68DA8657E0FB681B689B6866
S315080041E003F00203022B1BD1FB68DB8E9BB2002B6C
S315080041F016D0FB6A012B13D1FB681B6B1A88FB6868
S315080042001B68DA60FB681B6B9A1CFB681A63FB6801
S31508004210DB8E9BB2013B9AB2FB68DA860023FB620F
S31508004220FB681B689B6803F00103012B19D1FB6827
S31508004230DB8F9BB2002B14D0FB681B68DA68FB681F
S315080042409B6B92B21A80FB689B6B9A1CFB689A63FD
S31508004250FB68DB8F9BB2013B9AB2FB68DA870123C6
S31508004260FB62FDF719FC02467B6AD31ABA6B9A42BF
S315080042700BD8BB6BB3F1FF3F07D0032387F82B306E
S31508004280FB68012283F85120B5E0FB68DB8E9BB200
S31508004290002BA2D1FB68DB8F9BB2002B9DD180E05F
S315080042A0FB685B68002B02D07B8B012B6FD1FB6808
S315080042B01A6BFB681B680C3312781A70FB681B6B49
S315080042C05A1CFB681A63FB68DB8E9BB2013B9AB2E9
S315080042D0FB68DA865BE0FB681B689B6803F00203F1
S315080042E0022B1CD1FB68DB8E9BB2002B17D0FB6A16
S315080042F0012B14D1FB681A6BFB681B680C33127808
S315080043001A70FB681B6B5A1CFB681A63FB68DB8E0A
S315080043109BB2013B9AB2FB68DA860023FB62FB6814
S315080043201B689B6803F00103012B19D1FB68DB8F1F
S315080043309BB2002B14D0FB681B68DA68FB689B6B82
S31508004340D2B21A70FB689B6B5A1CFB689A63FB68AF
S31508004350DB8F9BB2013B9AB2FB68DA870123FB62CB
S31508004360FDF79AFB02467B6AD31ABA6B9A4203D8C0
S31508004370BB6BB3F1FF3F02D1BB6B002B07D1032305
S3150800438087F82B30FB68012283F8512033E0FB685D
S31508004390DB8E9BB2002B9ED1FB68DB8F9BB2002B7A
S315080043A099D17A6AB96BF86800F016F90346002BBA
S315080043B006D0012387F82B30FB6820225A651AE0BD
S315080043C0FB689B68002B0AD100237B61FB681B688E
S315080043D0DB687B61FB681B689B687B617B69FB68A4
S315080043E05B6D002B03D0012387F82B3003E0FB68B5
S315080043F0012283F85120FB68002283F8502097F8A1
S315080044002B3018463037BD4680BD80B483B000AF28
S3150800441078607B6893F85130DBB218460C37BD4696
S3150800442080BC704780B588B000AFF860B9603B6063
S315080044301346FB71FDF730FB0246BB6A9B1A3A68C6
S315080044401344FB61FDF728FBB861394B1B685B0118
S315080044501B0DFA6902FB03F37B6154E03B68B3F179
S31508004460FF3F50D0FDF718FB0246BB69D31AFA691D
S315080044709A4202D9FB69002B3DD1FB681B685A6832
S31508004480FB681B6822F0E0025A60FB685B68B3F5BC
S31508004490827F11D1FB689B68B3F5004F04D0FB6897
S315080044A09B68B3F5806F07D1FB681B681A68FB68C1
S315080044B01B6822F040021A60FB689B6AB3F5005F2E
S315080044C00FD1FB681B681A68FB681B6822F4005248
S315080044D01A60FB681B681A68FB681B6842F400527E
S315080044E01A60FB68012283F85120FB68002283F8D2
S315080044F05020032317E07B69002B01D10023FB61C1
S315080045007B69013B7B61FB681B689A68BB68134043
S31508004510BA689A420CBF01230023DBB21A46FB791C
S315080045209A429BD1002318462037BD4680BD00BF5E
S315080045300000002080B586B002AFF860B9607A60E6
S31508004540FB685B68B3F5827F11D1FB689B68B3F59E
S31508004550004F04D0FB689B68B3F5806F07D1FB68F2
S315080045601B681A68FB681B6822F040021A60FB6821
S315080045705B68B3F5827F17D1FB689B68B3F5806FDC
S3150800458012D17B680093BB6800220121F868FFF707
S3150800459049FF0346002B1AD0FB685B6D43F02002E7
S315080045A0FB685A65032313E07B680093BB68002207
S315080045B08021F868FFF736FF0346002B07D0FB6813
S315080045C05B6D43F02002FB685A65032300E0002375
S315080045D018461037BD4680BD80B586B002AFF86074
S315080045E0B9607A607B680093BB6800228021F8680E
S315080045F0FFF718FF0346002B07D0FB685B6D43F0F7
S315080046002002FB685A65032300E00023184610378A
S31508004610BD4680BD80B582B000AF78607B68002B50
S3150800462001D1012342E07B6893F84130DBB2002BCD
S3150800463006D17B68002283F840207868FDF7AAF83F
S315080046407B68242283F841207B681B68DA687B68CC
S315080046501B6822F40052DA60786800F02BF87B6851
S315080046601B681A697B681B6822F490421A617B688A
S315080046701B685A697B681B6822F02A025A617B68A4
S315080046801B68DA687B681B6842F40052DA607B684C
S3150800469000225A647B68202283F841207B68202206
S315080046A083F842207B6800225A630023184608379D
S315080046B0BD4680BD80B584B000AF78607B681B6856
S315080046C01B6923F440517B68DA687B681B680A43D8
S315080046D01A617B689A687B681B691A437B685B6901
S315080046E01343BB607B681B68DB6823F4B05323F075
S315080046F00C037A681268B9680B43D3607B681B6839
S315080047005B6923F440717B689A697B681B680A4376
S315080047105A617B681B682C4A934203D1FFF7FEF85F
S31508004720F86002E0FFF7E6F8F860FA6813469B00BF
S3150800473013449A001A447B685B689B00B2FBF3F348
S31508004740224AA2FB03235B091901FA6813469B0058
S3150800475013449A001A447B685B689B00B2FBF3F229
S315080047601A4BA3FB02035B09642000FB03F3D31A6D
S315080047701B013233154AA2FB03235B0903F0F0033E
S315080047801944FA6813469B0013449A001A447B6836
S315080047905B689B00B2FBF3F20C4BA3FB02035B09BD
S315080047A0642000FB03F3D31A1B013233074AA2FB2A
S315080047B003235B0903F00F027B681B680A449A60AF
S315080047C000BF1037BD4680BD003801401F85EB513C
S315080047D0B0B48FB000AF786040F2B113FB62072324
S315080047E087F83030072387F83130012387F83230CD
S315080047F0FF2387F83630642387F837300823BB86CB
S315080048007B681D4607F10C040FCC0FC50FCC0FC5EE
S3150800481094E8070085E8070078683C37BD46B0BCD1
S31508004820704780B582B000AF78607B6898687B680F
S315080048309B8900221946FDF7EFFB0120FDF736F9A3
S315080048407B6898687B689B8901221946FDF7E4FB1B
S315080048506420FDF72BF900BF0837BD4680BD80B53B
S3150800486084B000AF786039600121786800F09EF95D
S315080048700346BB73BB7BFB733B68002B07D1BB7B33
S3150800488023F00F03FB737B680022DA613EE03B6886
S31508004890012B0CD197F90E3023F00F035BB243F0CE
S315080048A001035BB2FB737B680122DA612EE03B6889
S315080048B0032B0CD197F90E3023F00F035BB243F0AC
S315080048C003035BB2FB737B680322DA611EE03B6875
S315080048D0052B0CD197F90E3023F00F035BB243F08A
S315080048E005035BB2FB737B680522DA610EE03B6861
S315080048F0062B0BD197F90E3023F00F035BB243F06A
S3150800490006035BB2FB737B680622DA61FB7B1A46F9
S315080049100121786800F064F900BF1037BD4680BDF4
S3150800492080B584B000AFF860B9603B601346FB8081
S31508004930FB681868FB689B8800221946FDF76CFB24
S31508004940FB689869FA884FF4FA63B968FFF752F971
S3150800495000BFFB689B691846FFF757FD0346012B06
S31508004960F7D1FB6898693A8B4FF4FA633968FFF711
S3150800497084FA00BFFB689B691846FFF746FD0346A5
S31508004980012BF7D1FB681868FB689B88012219463A
S31508004990FDF742FB00BF1037BD4680BD80B584B029
S315080049A000AFF860B9603B601346FB80FB68186887
S315080049B0FB689B8800221946FDF72EFBFB68986961
S315080049C0FA884FF4FA63B968FFF714F900BFFB6871
S315080049D09B691846FFF719FD0346012BF7D1FB68BB
S315080049E098693A8B4FF4FA633968FFF703F900BF01
S315080049F0FB689B691846FFF708FD0346012BF7D1AC
S31508004A00FB681868FB689B8801221946FDF704FBBA
S31508004A1000BF1037BD4680BD80B584B000AF786052
S31508004A2039603B68DB045B11FB60FB681B0CFB729F
S31508004A30FB7A1A460621786800F0D2F80520FDF7B9
S31508004A4035F8FB681B0AFB72FB7A1A460721786859
S31508004A5000F0C6F80520FDF729F8FB68FB72FB7A1B
S31508004A601A460821786800F0BBF80520FDF71EF8FD
S31508004A7000BF1037BD4680BD80B584B000AF7860F2
S31508004A8039603B680C2B01DD0C233B603B68062B29
S31508004A9001DC07233B601E21786800F087F803468F
S31508004AA0FB730A20FDF702F83B68DBB21B01DAB29A
S31508004AB0FB7B03F00F03DBB21344BB73BB7B1A46C5
S31508004AC01E21786800F08CF80A20FCF7EFFF00BF7B
S31508004AD01037BD4680BD80B582B000AF78600B4602
S31508004AE0FB70FB781A460921786800F079F80A20E5
S31508004AF0FCF7DCFF00BF0837BD4680BD80B584B033
S31508004B0000AF78600B46FB700023FB73FB782C2BF9
S31508004B1001D82D23FB70FB78F02B01D9F023FB700D
S31508004B20FB78782B09D8FB782D3B124A82FB0312B7
S31508004B305210DB17D31AFB730BE0FB78F02B08D85F
S31508004B40FB781E330B4A82FB03129210DB17D31A2B
S31508004B50FB73FB7B2033FB73FB7B1A460B217868C0
S31508004B6000F03EF80A20FCF7A1FF00BF1037BD464B
S31508004B7080BD00BF6766666680B584B000AF7860A2
S31508004B801E21786800F012F80346FB73FB7B43F09E
S31508004B900703BB7370221E21786800F021F80A20EB
S31508004BA0FCF784FF00BF1037BD4680BD80B586B0D0
S31508004BB002AF78600B46FB70FB7803F07F03DBB22D
S31508004BC0BB7307F10F0307F10E01012200920122C0
S31508004BD07868FFF7A5FEFB7B18461037BD4680BDF3
S31508004BE080B586B002AF78600B46FB701346BB7083
S31508004BF0FB7863F07F03DBB2BB73BB78FB7307F10B
S31508004C000F0307F10E010122009201227868FFF7CF
S31508004C10C5FE00BF1037BD4680BD80B586B000AF63
S31508004C20F8607A601A460B46FB721346BB72FB7A2B
S31508004C3063F07F03DBB2FB75FB681868FB689B882B
S31508004C4000221946FDF7E8F9FB68986907F117018C
S31508004C504FF4FA630122FEF7CDFF00BFFB689B699C
S31508004C601846FFF7D2FB0346012BF7D1FB68986974
S31508004C70BB7A9AB24FF4FA637968FEF7BBFF00BFB6
S31508004C80FB689B691846FFF7C0FB0346012BF7D163
S31508004C90FB681868FB689B8801221946FDF7BCF972
S31508004CA000BF1837BD4680BD80B483B000AF7860BA
S31508004CB0012318460C37BD4680BC704780B586B0C0
S31508004CC000AFF860B96011461A460B46FB711346E9
S31508004CD0BB80FB68DB697B610121F868FFF7BFFDD4
S31508004CE00E21F868FFF762FF0346FB7400220E21C7
S31508004CF0F868FFF775FFFB7C1A460D21F868FFF781
S31508004D006FFFFB791A462221F868FFF769FFFB79DE
S31508004D10BA680021F868FFF780FF0321F868FFF7F3
S31508004D209EFD1221F868FFF741FF0346FB74FB7CE2
S31508004D3003F00803002B0AD0FF221221F868FFF7B8
S31508004D404FFF7969F868FFF78AFD01230FE0BB88F2
S31508004D50013BBB80BB88002B05D17969F868FFF752
S31508004D607EFD002303E00120FCF7A0FED9E71846E4
S31508004D701837BD4680BD90B589B000AFF860B960F8
S31508004D801346FB710023FB770023BB6107E0BB6971
S31508004D90BA68134400221A70BB690133BB61FB79F8
S31508004DA0BA699A42F3DB0121F868FFF758FD122128
S31508004DB0F868FFF7FBFE0346FB74FB7C03F0400331
S31508004DC0002B2FD0FF221221F868FFF709FF1321C5
S31508004DD0F868FFF7EBFE0346BB741021F868FFF787
S31508004DE0E5FE0346FB74FB7C1A460D21F868FFF7BF
S31508004DF0F7FEBA7CFB79934228BF1346FB7700235C
S31508004E007B610BE07B69BA68D4180021F868FFF764
S31508004E10CDFE034623707B6901337B61FB7F7A698C
S31508004E209A42EFDB0521F868FFF719FDFB7F184664
S31508004E302437BD4690BD80B584B000AF78607868E9
S31508004E40FFF732FF0346002B00F0988000217868B0
S31508004E50FFF705FD0A20FCF729FE01217868FFF710
S31508004E60A5FE0346FB730A20FCF720FEFB7B63F0D6
S31508004E707F03BB73BB7B1A4601217868FFF7B0FE38
S31508004E806420FCF713FE7B681B6A19467868FFF7EF
S31508004E90C3FD7B6893F82A3019467868FFF71BFE2E
S31508004EA07B6893F82B3019467868FFF727FE23228C
S31508004EB00C217868FFF794FE7868FFF75DFE7B683B
S31508004EC093F8243019467868FFF7D6FDFF221F218C
S31508004ED07868FFF785FE0023BB737B6893F8253057
S31508004EE01B01DAB27B6893F826305B00DBB2134409
S31508004EF0BB73BB7B1A461D217868FFF771FE7B687A
S31508004F001B8D1B0A9BB2DBB21A4620217868FFF775
S31508004F1067FE7B681B8DDBB21A4621217868FFF78E
S31508004F205FFE40217868FFF741FE0346FB73FB7B73
S31508004F3043F03F03BB73BB7B1A4640217868FFF7F3
S31508004F404FFE01217868FFF78AFC7B680122DA6147
S31508004F500A20FCF7ABFD00220E217868FFF740FE19
S31508004F6042217868FFF722FE0346FB73FB7B122B70
S31508004F7001D1C82304E04FF4CA7301E040F2F713E5
S31508004F8018461037BD4680BD80B586B004AF0346C7
S31508004F900A46FB711346BB710C4ABB7913700C4B5E
S31508004FA01B7899B2FB799AB2642302930123019381
S31508004FB0064B009301230748FDF7BCF903461A463A
S31508004FC0054B1A7000BF0837BD4680BD6003002038
S31508004FD0090000200C0300206403002080B586B079
S31508004FE004AF03460A46FB711346BB80BA880C4BCE
S31508004FF01A800C4B1B7899B2FB799AB264230293F8
S3150800500002230193064B009301230748FDF792F903
S3150800501003461A46054B1A7000BF0837BD4680BDC1
S3150800502060030020090000200C0300206403002010
S3150800503080B588B004AF0346FB710F4B1B7843F06D
S315080050400103DBB299B2FB799AB264230293012376
S3150800505001930A4B009301230948FDF765FA0346B5
S315080050601A46084B1A70054B1B78FB73FB7B1846D0
S315080050701037BD4680BD00BF090000206003002030
S315080050800C0300206403002080B588B004AF0346F3
S31508005090FB710F4B1B7843F00103DBB299B2FB7926
S315080050A09AB264230293022301930A4B00930123C5
S315080050B00948FDF739FA03461A46084B1A70054B94
S315080050C01B88FB81FB8918461037BD4680BD00BF8B
S315080050D009000020600300200C0300206403002060
S315080050E080B586B004AF03463960FB711346BB71C1
S315080050F03B681B681A460D4B1A600D4B1B7899B214
S31508005100FB799AB2BB799BB2642002900193074B54
S31508005110009301230748FDF70DF903461A46064B87
S315080051201A7000BF0837BD4680BD00BF6003002067
S31508005130090000200C0300206403002080B586B017
S3150800514004AF03463960FB711346BB710D4B1B78E0
S3150800515043F00103DBB299B2FB799AB2BB799BB2F1
S315080051606420029001933B68009301230648FDF7EB
S31508005170DBF903461A46054B1A7000BF0837BD46C9
S3150800518080BD00BF090000200C0300206403002036
S3150800519080B586B000AF03463960FB715422396882
S315080051A0544801F035FA544B00221A70524B00222B
S315080051B05A70514B00229A704F4B0022DA70FB79D5
S315080051C0002B0AD08920FFF733FF034643F001037B
S315080051D0DBB219468920FFF7D7FE00218820FFF7A2
S315080051E0D3FE01218020FFF7CFFE0121FF20FFF724
S315080051F0CBFE00210020FFF7C7FE9120FFF718FF1E
S3150800520003461A463D4B1A7001210020FFF7BCFEE3
S315080052100021FF20FFF7B8FE00218020FFF7B4FE2B
S315080052206020FFF705FF034643F01203DBB2194679
S315080052306020FFF7A9FE4FF07A5000F009FAFF2127
S315080052400120FFF7A1FE07F1130207F11403114627
S31508005250184600F06DFD0346002B01D10023EEE150
S3150800526007F10C0306221946B020FFF767FF012154
S31508005270FF20FFF789FE00214F20FFF785FE2C212E
S315080052804E20FFF781FE0021FF20FFF77DFEB421A7
S31508005290B620FFF779FEFB7C002B01D00C2300E03B
S315080052A000237B750023FB750023BB753FE0BA7DA1
S315080052B07B7D9A4203D33B7DFA7D9A4220D1BB7D02
S315080052C0DB08D8B2034618333B4413F80C3C5AB2F1
S315080052D0BB7D03F00703012101FA03F35BB2DB434D
S315080052E05BB213405AB20346D2B218333B4403F8B2
S315080052F00C2C19E00C030020600300200603002094
S31508005300BB7DDB08DBB218333B4413F80C3C1A466A
S31508005310BB7D03F0070342FA03F303F00103002BF6
S3150800532002D0FB7D0133FB75BB7D0133BB75BB7DAD
S315080053302F2BBCD907F10C0306221946B020FFF71C
S31508005340CFFE0121FF20FFF71FFE00210020FFF7F7
S315080053501BFE0021FF20FFF717FE00210920FFF79B
S3150800536013FE00211020FFF70FFE00211120FFF782
S315080053700BFE01212420FFF707FEFF212520FFF75A
S3150800538003FE00217520FFF7FFFD0121FF20FFF72F
S31508005390FBFD2C214E20FFF7F7FD00214820FFF7E3
S315080053A0F3FD20213020FFF7EFFD0021FF20FFF756
S315080053B0EBFD09213020FFF7E7FD00215420FFF718
S315080053C0E3FD04213120FFF7DFFD03213220FFF73B
S315080053D0DBFD83214020FFF7D7FD25214620FFF777
S315080053E0D3FD00216020FFF7CFFD00212720FFF71E
S315080053F0CBFD06215020FFF7C7FD00215120FFF7FE
S31508005400C3FD96215220FFF7BFFD08215620FFF75E
S31508005410BBFD30215720FFF7B7FD00216120FFF7BC
S31508005420B3FD00216220FFF7AFFD00216420FFF7DE
S31508005430ABFD00216520FFF7A7FDA0216620FFF739
S31508005440A3FD0121FF20FFF79FFD32212220FFF750
S315080054509BFD14214720FFF797FDFF214920FFF701
S3150800546093FD00214A20FFF78FFD0021FF20FFF75B
S315080054708BFD0A217A20FFF787FD00217B20FFF7A5
S3150800548083FD21217820FFF77FFD0121FF20FFF70B
S315080054907BFD34212320FFF777FD00214220FFF70B
S315080054A073FDFF214420FFF76FFD26214520FFF7F6
S315080054B06BFD05214620FFF767FD40214020FFF7D9
S315080054C063FD06210E20FFF75FFD1A212020FFF756
S315080054D05BFD40214320FFF757FD0021FF20FFF722
S315080054E053FD03213420FFF74FFD44213520FFF7F4
S315080054F04BFD0121FF20FFF747FD04213120FFF76F
